{"abi":[{"type":"function","name":"ALIGNED_PAYMENT_SERVICE_ADDR","inputs":[],"outputs":[{"name":"","type":"address","internalType":"address"}],"stateMutability":"view"},{"type":"function","name":"ALIGNED_SERVICE_MANAGER","inputs":[],"outputs":[{"name":"","type":"address","internalType":"address"}],"stateMutability":"view"},{"type":"function","name":"ELF_COMMITMENT","inputs":[],"outputs":[{"name":"","type":"bytes32","internalType":"bytes32"}],"stateMutability":"view"},{"type":"function","name":"auctionCount","inputs":[],"outputs":[{"name":"","type":"uint256","internalType":"uint256"}],"stateMutability":"view"},{"type":"function","name":"auctions","inputs":[{"name":"","type":"uint256","internalType":"uint256"}],"outputs":[{"name":"owner","type":"address","internalType":"address"},{"name":"encryptionKey","type":"bytes","internalType":"bytes"},{"name":"token","type":"address","internalType":"contract IERC20"},{"name":"asset","type":"tuple","internalType":"struct ZkAuction.Asset","components":[{"name":"name","type":"string","internalType":"string"},{"name":"description","type":"string","internalType":"string"},{"name":"nftContract","type":"address","internalType":"address"},{"name":"tokenId","type":"uint256","internalType":"uint256"}]},{"name":"winner","type":"tuple","internalType":"struct ZkAuction.Winner","components":[{"name":"winner","type":"address","internalType":"address"},{"name":"price","type":"uint128","internalType":"uint128"}]},{"name":"depositPrice","type":"uint256","internalType":"uint256"},{"name":"endTime","type":"uint256","internalType":"uint256"},{"name":"ended","type":"bool","internalType":"bool"}],"stateMutability":"view"},{"type":"function","name":"auctionsByOwner","inputs":[{"name":"","type":"address","internalType":"address"},{"name":"","type":"uint256","internalType":"uint256"}],"outputs":[{"name":"owner","type":"address","internalType":"address"},{"name":"encryptionKey","type":"bytes","internalType":"bytes"},{"name":"token","type":"address","internalType":"contract IERC20"},{"name":"asset","type":"tuple","internalType":"struct ZkAuction.Asset","components":[{"name":"name","type":"string","internalType":"string"},{"name":"description","type":"string","internalType":"string"},{"name":"nftContract","type":"address","internalType":"address"},{"name":"tokenId","type":"uint256","internalType":"uint256"}]},{"name":"winner","type":"tuple","internalType":"struct ZkAuction.Winner","components":[{"name":"winner","type":"address","internalType":"address"},{"name":"price","type":"uint128","internalType":"uint128"}]},{"name":"depositPrice","type":"uint256","internalType":"uint256"},{"name":"endTime","type":"uint256","internalType":"uint256"},{"name":"ended","type":"bool","internalType":"bool"}],"stateMutability":"view"},{"type":"function","name":"createAuction","inputs":[{"name":"_encryptionKey","type":"bytes","internalType":"bytes"},{"name":"_token","type":"address","internalType":"contract IERC20"},{"name":"_nftContract","type":"address","internalType":"address"},{"name":"_tokenId","type":"uint256","internalType":"uint256"},{"name":"_assetName","type":"string","internalType":"string"},{"name":"_assetDescription","type":"string","internalType":"string"},{"name":"_depositPrice","type":"uint256","internalType":"uint256"},{"name":"_duration","type":"uint256","internalType":"uint256"}],"outputs":[],"stateMutability":"nonpayable"},{"type":"function","name":"finalizeAuction","inputs":[{"name":"auctionId","type":"uint256","internalType":"uint256"},{"name":"_winner","type":"tuple","internalType":"struct ZkAuction.Winner","components":[{"name":"winner","type":"address","internalType":"address"},{"name":"price","type":"uint128","internalType":"uint128"}]},{"name":"proof","type":"bytes","internalType":"bytes"}],"outputs":[],"stateMutability":"nonpayable"},{"type":"function","name":"getAuctionsByOwner","inputs":[{"name":"owner","type":"address","internalType":"address"}],"outputs":[{"name":"","type":"tuple[]","internalType":"struct ZkAuction.Auction[]","components":[{"name":"owner","type":"address","internalType":"address"},{"name":"encryptionKey","type":"bytes","internalType":"bytes"},{"name":"token","type":"address","internalType":"contract IERC20"},{"name":"asset","type":"tuple","internalType":"struct ZkAuction.Asset","components":[{"name":"name","type":"string","internalType":"string"},{"name":"description","type":"string","internalType":"string"},{"name":"nftContract","type":"address","internalType":"address"},{"name":"tokenId","type":"uint256","internalType":"uint256"}]},{"name":"bids","type":"tuple[]","internalType":"struct ZkAuction.Bid[]","components":[{"name":"bidder","type":"address","internalType":"address"},{"name":"encryptedPrice","type":"bytes","internalType":"bytes"}]},{"name":"winner","type":"tuple","internalType":"struct ZkAuction.Winner","components":[{"name":"winner","type":"address","internalType":"address"},{"name":"price","type":"uint128","internalType":"uint128"}]},{"name":"depositPrice","type":"uint256","internalType":"uint256"},{"name":"endTime","type":"uint256","internalType":"uint256"},{"name":"ended","type":"bool","internalType":"bool"}]}],"stateMutability":"view"},{"type":"function","name":"getBids","inputs":[{"name":"auctionId","type":"uint256","internalType":"uint256"}],"outputs":[{"name":"","type":"tuple[]","internalType":"struct ZkAuction.Bid[]","components":[{"name":"bidder","type":"address","internalType":"address"},{"name":"encryptedPrice","type":"bytes","internalType":"bytes"}]}],"stateMutability":"view"},{"type":"function","name":"hasDeposited","inputs":[{"name":"","type":"uint256","internalType":"uint256"},{"name":"","type":"address","internalType":"address"}],"outputs":[{"name":"","type":"bool","internalType":"bool"}],"stateMutability":"view"},{"type":"function","name":"onERC721Received","inputs":[{"name":"operator","type":"address","internalType":"address"},{"name":"from","type":"address","internalType":"address"},{"name":"tokenId","type":"uint256","internalType":"uint256"},{"name":"data","type":"bytes","internalType":"bytes"}],"outputs":[{"name":"","type":"bytes4","internalType":"bytes4"}],"stateMutability":"pure"},{"type":"function","name":"placeBid","inputs":[{"name":"auctionId","type":"uint256","internalType":"uint256"},{"name":"_encryptedPrice","type":"bytes","internalType":"bytes"}],"outputs":[],"stateMutability":"nonpayable"},{"type":"function","name":"refundNft","inputs":[{"name":"auctionId","type":"uint256","internalType":"uint256"}],"outputs":[],"stateMutability":"nonpayable"},{"type":"function","name":"reverse","inputs":[{"name":"data","type":"bytes","internalType":"bytes"}],"outputs":[{"name":"","type":"bytes","internalType":"bytes"}],"stateMutability":"pure"},{"type":"function","name":"withdraw","inputs":[{"name":"auctionId","type":"uint256","internalType":"uint256"}],"outputs":[],"stateMutability":"nonpayable"},{"type":"event","name":"AuctionCreated","inputs":[{"name":"auctionId","type":"uint256","indexed":true,"internalType":"uint256"},{"name":"owner","type":"address","indexed":true,"internalType":"address"}],"anonymous":false},{"type":"event","name":"AuctionEnded","inputs":[{"name":"auctionId","type":"uint256","indexed":true,"internalType":"uint256"},{"name":"winner","type":"address","indexed":true,"internalType":"address"},{"name":"price","type":"uint128","indexed":false,"internalType":"uint128"}],"anonymous":false},{"type":"event","name":"NewBid","inputs":[{"name":"auctionId","type":"uint256","indexed":true,"internalType":"uint256"},{"name":"bidder","type":"address","indexed":true,"internalType":"address"},{"name":"encryptedPrice","type":"bytes","indexed":false,"internalType":"bytes"}],"anonymous":false},{"type":"error","name":"InvalidElf","inputs":[{"name":"submittedElf","type":"bytes32","internalType":"bytes32"}]},{"type":"error","name":"SafeERC20FailedOperation","inputs":[{"name":"token","type":"address","internalType":"address"}]}],"bytecode":{"object":"0x6080604052348015600f57600080fd5b50612eac8061001f6000396000f3fe608060405234801561001057600080fd5b50600436106101005760003560e01c8063571a26a011610097578063cfeae74811610066578063cfeae748146102b2578063e1c92e0a146102c5578063e6819366146102d8578063ec11c823146102eb57600080fd5b8063571a26a01461021f578063864bc0a01461024657806399b1eb2e14610259578063c8dc35a91461029757600080fd5b80632e1a7d4d116100d35780632e1a7d4d1461019257806338afd936146101a557806341177855146101cc578063470df9ec146101ec57600080fd5b80630e99a6eb14610105578063131d9a271461011a578063150b7a02146101435780632ad715731461017b575b600080fd5b61011861011336600461220a565b61030b565b005b61012d6101283660046122da565b61085f565b60405161013a9190612343565b60405180910390f35b6101626101513660046123c8565b630a85bd0160e11b95945050505050565b6040516001600160e01b0319909116815260200161013a565b61018460005481565b60405190815260200161013a565b6101186101a03660046122da565b6109d5565b6101847f01d6e3579da3e89108a88e4276227c6c75c656d51a5b6769e438ca1b19b4093781565b6101df6101da366004612467565b610ab7565b60405161013a919061255e565b6102077358f280bebe9b34c9939c3c39e0890c81f163b62381565b6040516001600160a01b03909116815260200161013a565b61023261022d3660046122da565b610e99565b60405161013a989796959493929190612683565b610118610254366004612717565b6110f7565b61028761026736600461275d565b600360209081526000928352604080842090915290825290205460ff1681565b604051901515815260200161013a565b61020773815aeca64a974297942d2bbf034abee22a38a00381565b6102326102c036600461278d565b6112c1565b6101186102d33660046127b9565b61130e565b6101186102e63660046122da565b6115ef565b6102fe6102f936600461286b565b611760565b60405161013a91906128a7565b600082116103705760405162461bcd60e51b815260206004820152602760248201527f4465706f736974207072696365206d7573742062652067726561746572207468604482015266616e207a65726f60c81b60648201526084015b60405180910390fd5b600081116103cb5760405162461bcd60e51b815260206004820152602260248201527f4475726174696f6e206d7573742062652067726561746572207468616e207a65604482015261726f60f01b6064820152608401610367565b6040516331a9108f60e11b815260048101869052869033906001600160a01b03831690636352211e90602401602060405180830381865afa158015610414573d6000803e3d6000fd5b505050506040513d601f19601f8201168201806040525081019061043891906128ba565b6001600160a01b0316146104995760405162461bcd60e51b815260206004820152602260248201527f596f75206d757374206f776e20746865204e465420746f2061756374696f6e206044820152611a5d60f21b6064820152608401610367565b60405163020604bf60e21b81526004810187905230906001600160a01b0383169063081812fc90602401602060405180830381865afa1580156104e0573d6000803e3d6000fd5b505050506040513d601f19601f8201168201806040525081019061050491906128ba565b6001600160a01b0316146105665760405162461bcd60e51b8152602060048201526024808201527f596f75206e65656420617070726f766520746865204e465420746f20636f6e746044820152631c9858dd60e21b6064820152608401610367565b600080549080610575836128ed565b909155505060008054815260016020819052604090912080546001600160a01b031916331781559081016105a98b8261298e565b5060408051608081018252878152602081018790526001600160a01b038a16918101919091526060810188905260038201806105e5898261298e565b50602082015160018201906105fa908261298e565b5060408201516002820180546001600160a01b0319166001600160a01b03909216919091179055606090910151600390910155600a810184905561063e8342612a4f565b600b820155600c8101805460ff19169055600280820180546001600160a01b03808d166001600160a01b031992831617909255336000908152602093845260408120805460018181018355918352949091208554600d90950201805490921693909216929092178255829190818101906106ba90840182612a68565b5060028281015490820180546001600160a01b0319166001600160a01b039092169190911790556003808301908201806106f48382612a68565b5060018181019061070790840182612a68565b5060028281015490820180546001600160a01b0319166001600160a01b039092169190911790556003918201549101556007828101805461074b928401919061201a565b5060088281015490820180546001600160a01b0319166001600160a01b0392831617905560098084015490830180546001600160801b0319166001600160801b03909216919091179055600a8084015490830155600b8084015490830155600c9283015492909101805460ff909316151560ff1990931692909217909155604051632142170760e11b8152908316906342842e0e906107f290339030908c90600401612b3c565b600060405180830381600087803b15801561080c57600080fd5b505af1158015610820573d6000803e3d6000fd5b5050600080546040513394509092507f5d551e2a2cc977fd8c530317059b4f2d9f504fb82f7dfad736f8d56679bcdfd09190a350505050505050505050565b6000818152600160205260409020600b01546060904210156108935760405162461bcd60e51b815260040161036790612b60565b6000828152600160205260409020600c015460ff16156108c55760405162461bcd60e51b815260040161036790612b97565b600082815260016020908152604080832060070180548251818502810185019093528083529193909284015b828210156109ca576000848152602090819020604080518082019091526002850290910180546001600160a01b03168252600181018054929391929184019161093990612906565b80601f016020809104026020016040519081016040528092919081815260200182805461096590612906565b80156109b25780601f10610987576101008083540402835291602001916109b2565b820191906000526020600020905b81548152906001019060200180831161099557829003601f168201915b505050505081525050815260200190600101906108f1565b505050509050919050565b6000818152600160209081526040808320600383528184203385529092529091205460ff16610a3e5760405162461bcd60e51b81526020600482015260156024820152744e6f20746f6b656e7320746f20776974686472617760581b6044820152606401610367565b600c81015460ff16610a925760405162461bcd60e51b815260206004820152601760248201527f546f6b656e7320617265207374696c6c206c6f636b65640000000000000000006044820152606401610367565b600a8101546002820154610ab3916001600160a01b03909116903390611823565b5050565b6001600160a01b0381166000908152600260209081526040808320805482518185028101850190935280835260609492939192909184015b828210156109ca576000848152602090819020604080516101208101909152600d850290910180546001600160a01b031682526001810180549293919291840191610b3990612906565b80601f0160208091040260200160405190810160405280929190818152602001828054610b6590612906565b8015610bb25780601f10610b8757610100808354040283529160200191610bb2565b820191906000526020600020905b815481529060010190602001808311610b9557829003601f168201915b505050918352505060028201546001600160a01b03166020820152604080516080810182526003840180549290930192909182908290610bf190612906565b80601f0160208091040260200160405190810160405280929190818152602001828054610c1d90612906565b8015610c6a5780601f10610c3f57610100808354040283529160200191610c6a565b820191906000526020600020905b815481529060010190602001808311610c4d57829003601f168201915b50505050508152602001600182018054610c8390612906565b80601f0160208091040260200160405190810160405280929190818152602001828054610caf90612906565b8015610cfc5780601f10610cd157610100808354040283529160200191610cfc565b820191906000526020600020905b815481529060010190602001808311610cdf57829003601f168201915b505050918352505060028201546001600160a01b031660208083019190915260039092015460409182015291835260078401805483518184028101840190945280845293820193909160009084015b82821015610e24576000848152602090819020604080518082019091526002850290910180546001600160a01b031682526001810180549293919291840191610d9390612906565b80601f0160208091040260200160405190810160405280929190818152602001828054610dbf90612906565b8015610e0c5780601f10610de157610100808354040283529160200191610e0c565b820191906000526020600020905b815481529060010190602001808311610def57829003601f168201915b50505050508152505081526020019060010190610d4b565b5050509082525060408051808201825260088401546001600160a01b0316815260098401546001600160801b031660208281019190915280840191909152600a84015491830191909152600b8301546060830152600c9092015460ff1615156080909101529082526001929092019101610aef565b6001602081905260009182526040909120805491810180546001600160a01b0390931692610ec690612906565b80601f0160208091040260200160405190810160405280929190818152602001828054610ef290612906565b8015610f3f5780601f10610f1457610100808354040283529160200191610f3f565b820191906000526020600020905b815481529060010190602001808311610f2257829003601f168201915b5050505050908060020160009054906101000a90046001600160a01b03169080600301604051806080016040529081600082018054610f7d90612906565b80601f0160208091040260200160405190810160405280929190818152602001828054610fa990612906565b8015610ff65780601f10610fcb57610100808354040283529160200191610ff6565b820191906000526020600020905b815481529060010190602001808311610fd957829003601f168201915b5050505050815260200160018201805461100f90612906565b80601f016020809104026020016040519081016040528092919081815260200182805461103b90612906565b80156110885780601f1061105d57610100808354040283529160200191611088565b820191906000526020600020905b81548152906001019060200180831161106b57829003601f168201915b505050918352505060028201546001600160a01b039081166020808401919091526003909301546040928301528151808301909252600885015416815260098401546001600160801b031691810191909152600a830154600b840154600c909401549293919290919060ff1688565b6000828152600160205260409020600c81015460ff161561112a5760405162461bcd60e51b815260040161036790612b97565b80600b015442106111735760405162461bcd60e51b8152602060048201526013602482015272105d58dd1a5bdb881a185cc8195e1c1a5c9959606a1b6044820152606401610367565b600083815260036020908152604080832033845290915290205460ff16156111d15760405162461bcd60e51b8152602060048201526011602482015270105b1c9958591e4819195c1bdcda5d1959607a1b6044820152606401610367565b6000838152600360209081526040808320338085529083528184208054600160ff1990911681179091558251808401909352908252818301868152600786018054808401825590865293909420825160029094020180546001600160a01b0319166001600160a01b0390941693909317835592519092820190611254908261298e565b505050600a810154600282015461127a916001600160a01b039091169033903090611887565b336001600160a01b0316837f0aebdeac202f28be37e4f9405aceae67b58f4e341186d0dcb3d4443b306043b7846040516112b491906128a7565b60405180910390a3505050565b600260205281600052604060002081815481106112dd57600080fd5b60009182526020909120600d9091020180546001820180546001600160a01b039092169450919250610ec690612906565b600083815260016020526040902080548491906001600160a01b031633146113705760405162461bcd60e51b81526020600482015260156024820152742cb7ba9030b932903737ba103a34329037bbb732b960591b6044820152606401610367565b6000858152600160205260409020600b8101544210156113a25760405162461bcd60e51b815260040161036790612b60565b600c81015460ff16156113c75760405162461bcd60e51b815260040161036790612b97565b6113d28587866118b5565b80600a015485602001516001600160801b031611156114485760405162461bcd60e51b815260206004820152602c60248201527f57696e6e657220686173206d6f726520626964207072696365207468616e206460448201526b65706f73697420707269636560a01b6064820152608401610367565b84516008820180546001600160a01b0319166001600160a01b0392831690811790915560208701516009840180546001600160801b0319166001600160801b03909216919091179055600c8301805460ff1916600117905560058301546006840154604051632142170760e11b8152919093169283926342842e0e926114d392309291600401612b3c565b600060405180830381600087803b1580156114ed57600080fd5b505af1158015611501573d6000803e3d6000fd5b505050506009820154600a8301546001600160801b0390911610156115675760088201546009830154600a840154611567926001600160a01b031691611552916001600160801b0390911690612bc2565b60028501546001600160a01b03169190611823565b60098201546002830154611591916001600160a01b039091169033906001600160801b0316611823565b600882015460098301546040516001600160801b0390911681526001600160a01b039091169088907fcea9b5625991aa873d047c1eeaa9a77558ac53784c52b0647767e11e97c7a8849060200160405180910390a350505050505050565b600081815260016020526040902080548291906001600160a01b031633146116515760405162461bcd60e51b81526020600482015260156024820152742cb7ba9030b932903737ba103a34329037bbb732b960591b6044820152606401610367565b6000838152600160205260409020600b8101544210156116835760405162461bcd60e51b815260040161036790612b60565b600c8101805460ff19166001179055600581015481546006830154604051632142170760e11b81526001600160a01b039384169384936342842e0e936116d29330939290921691600401612b3c565b600060405180830381600087803b1580156116ec57600080fd5b505af1158015611700573d6000803e3d6000fd5b50505050600882015460098301546040516001600160801b0390911681526001600160a01b039091169086907fcea9b5625991aa873d047c1eeaa9a77558ac53784c52b0647767e11e97c7a8849060200160405180910390a35050505050565b6060600082516001600160401b0381111561177d5761177d61211f565b6040519080825280601f01601f1916602001820160405280156117a7576020820181803683370190505b50905060005b835181101561181c578381600186516117c69190612bc2565b6117d09190612bc2565b815181106117e0576117e0612bd5565b602001015160f81c60f81b8282815181106117fd576117fd612bd5565b60200101906001600160f81b031916908160001a9053506001016117ad565b5092915050565b6040516001600160a01b0383811660248301526044820183905261188291859182169063a9059cbb906064015b604051602081830303815290604052915060e01b6020820180516001600160e01b038381831617835250505050611c91565b505050565b6118af84856001600160a01b03166323b872dd86868660405160240161185093929190612b3c565b50505050565b600080600080600080600080888060200190518101906118d59190612c30565b97509750975097509750975097509750847f01d6e3579da3e89108a88e4276227c6c75c656d51a5b6769e438ca1b19b4093760001b1461192b5760405163636ca83360e11b815260048101869052602401610367565b606084901c33146119885760405162461bcd60e51b815260206004820152602160248201527f70726f6f6647656e657261746f724164647220646f6573206e6f74206d6174636044820152600d60fb1b6064820152608401610367565b8751602089012086146119d45760405162461bcd60e51b8152602060048201526014602482015273125b9d985b1a59081c1d589b1a58c81a5b9c1d5d60621b6044820152606401610367565b60008060006119e28b611d02565b9250925092508d600001516001600160a01b0316826001600160a01b031614611a4d5760405162461bcd60e51b815260206004820152601e60248201527f57696e6e657220696e2070726f6f6620646f6573206e6f74206d6174636800006044820152606401610367565b8d602001516001600160801b0316816001600160801b031614611ab25760405162461bcd60e51b815260206004820152601e60248201527f57696e6e657220696e2070726f6f6620646f6573206e6f74206d6174636800006044820152606401610367565b82611abc8e611d5f565b14611b095760405162461bcd60e51b815260206004820152601b60248201527f41756374696f6e206861736820646f6573206e6f74206d6174636800000000006044820152606401610367565b6000807358f280bebe9b34c9939c3c39e0890c81f163b6236001600160a01b03168c8c8c8c8c8c8c73815aeca64a974297942d2bbf034abee22a38a003604051602401611b5d989796959493929190612ced565b60408051601f198184030181529181526020820180516001600160e01b03166306045a9160e01b17905251611b929190612d4f565b600060405180830381855afa9150503d8060008114611bcd576040519150601f19603f3d011682016040523d82523d6000602084013e611bd2565b606091505b509150915081611c195760405162461bcd60e51b81526020600482015260126024820152711cdd185d1a58d7d8d85b1b0819985a5b195960721b6044820152606401610367565b600081806020019051810190611c2f9190612d6b565b905080611c7e5760405162461bcd60e51b815260206004820152601b60248201527f70726f6f66206e6f7420696e636c7564656420696e20626174636800000000006044820152606401610367565b5050505050505050505050505050505050565b600080602060008451602086016000885af180611cb4576040513d6000823e3d81fd5b50506000513d91508115611ccc578060011415611cd9565b6001600160a01b0384163b155b156118af57604051635274afe760e01b81526001600160a01b0385166004820152602401610367565b6000806000611d148460006020611f15565b611d1d90612d8d565b9250611d2c8460286014611f15565b611d3590612db1565b60601c9150611d4a6102f985603c6010611f15565b611d5390612df5565b60801c90509193909250565b600081815260016020908152604080832060070180548251818502810185019093528083528493849084015b82821015611e64576000848152602090819020604080518082019091526002850290910180546001600160a01b031682526001810180549293919291840191611dd390612906565b80601f0160208091040260200160405190810160405280929190818152602001828054611dff90612906565b8015611e4c5780601f10611e2157610100808354040283529160200191611e4c565b820191906000526020600020905b815481529060010190602001808311611e2f57829003601f168201915b50505050508152505081526020019060010190611d8b565b505050509050600083604051602001611e7f91815260200190565b604051602081830303815290604052905060005b8251811015611f055781838281518110611eaf57611eaf612bd5565b602002602001015160000151848381518110611ecd57611ecd612bd5565b602002602001015160200151604051602001611eeb93929190612e2f565b60408051601f198184030181529190529150600101611e93565b5080516020909101209392505050565b8251606090611f248385612a4f565b1115611f685760405162461bcd60e51b8152602060048201526013602482015272536c696365206f7574206f6620626f756e647360681b6044820152606401610367565b6000826001600160401b03811115611f8257611f8261211f565b6040519080825280601f01601f191660200182016040528015611fac576020820181803683370190505b50905060005b838110156120115785611fc58287612a4f565b81518110611fd557611fd5612bd5565b602001015160f81c60f81b828281518110611ff257611ff2612bd5565b60200101906001600160f81b031916908160001a905350600101611fb2565b50949350505050565b82805482825590600052602060002090600202810192821561208f5760005260206000209160020282015b8281111561208f57825482546001600160a01b0319166001600160a01b03909116178255828260018082019061207d90840182612a68565b50505091600201919060020190612045565b5061209b92915061209f565b5090565b8082111561209b5780546001600160a01b031916815560006120c460018301826120cd565b5060020161209f565b5080546120d990612906565b6000825580601f106120e9575050565b601f016020900490600052602060002090810190612107919061210a565b50565b5b8082111561209b576000815560010161210b565b634e487b7160e01b600052604160045260246000fd5b604051601f8201601f191681016001600160401b038111828210171561215d5761215d61211f565b604052919050565b60006001600160401b0382111561217e5761217e61211f565b50601f01601f191660200190565b600082601f83011261219d57600080fd5b81356020830160006121b66121b184612165565b612135565b90508281528583830111156121ca57600080fd5b82826020830137600092810160200192909252509392505050565b6001600160a01b038116811461210757600080fd5b8035612205816121e5565b919050565b600080600080600080600080610100898b03121561222757600080fd5b88356001600160401b0381111561223d57600080fd5b6122498b828c0161218c565b98505061225860208a016121fa565b965061226660408a016121fa565b95506060890135945060808901356001600160401b0381111561228857600080fd5b6122948b828c0161218c565b94505060a08901356001600160401b038111156122b057600080fd5b6122bc8b828c0161218c565b989b979a5095989497939693955050505060c08201359160e0013590565b6000602082840312156122ec57600080fd5b5035919050565b60005b8381101561230e5781810151838201526020016122f6565b50506000910152565b6000815180845261232f8160208601602086016122f3565b601f01601f19169290920160200192915050565b6000602082016020835280845180835260408501915060408160051b86010192506020860160005b828110156123bc57868503603f19018452815180516001600160a01b031686526020908101516040918701829052906123a690870182612317565b955050602093840193919091019060010161236b565b50929695505050505050565b6000806000806000608086880312156123e057600080fd5b85356123eb816121e5565b945060208601356123fb816121e5565b93506040860135925060608601356001600160401b0381111561241d57600080fd5b8601601f8101881361242e57600080fd5b80356001600160401b0381111561244457600080fd5b88602082840101111561245657600080fd5b959894975092955050506020019190565b60006020828403121561247957600080fd5b8135612484816121e5565b9392505050565b60008151608084526124a06080850182612317565b9050602083015184820360208601526124b98282612317565b6040858101516001600160a01b0316908701526060948501519490950193909352509192915050565b600082825180855260208501945060208160051b8301016020850160005b8381101561255257848303601f19018852815180516001600160a01b0316845260209081015160409185018290529061253b90850182612317565b6020998a0199909450929092019150600101612500565b50909695505050505050565b6000602082016020835280845180835260408501915060408160051b86010192506020860160005b828110156123bc57868503603f19018452815180516001600160a01b03168652602081015161014060208801526125c1610140880182612317565b905060408201516125dd60408901826001600160a01b03169052565b50606082015187820360608901526125f5828261248b565b9150506080820151878203608089015261260f82826124e2565b91505060a082015161264060a089018280516001600160a01b031682526020908101516001600160801b0316910152565b5060c082015160e088015260e0820151610100880152610100820151915061266d61012088018315159052565b9550506020938401939190910190600101612586565b6001600160a01b0389168152610120602082018190526000906126a89083018a612317565b6001600160a01b038916604084015282810360608401526126c9818961248b565b87516001600160a01b0316608085015260208801516001600160801b031660a085015291506126f59050565b8460c08301528360e08301528215156101008301529998505050505050505050565b6000806040838503121561272a57600080fd5b8235915060208301356001600160401b0381111561274757600080fd5b6127538582860161218c565b9150509250929050565b6000806040838503121561277057600080fd5b823591506020830135612782816121e5565b809150509250929050565b600080604083850312156127a057600080fd5b82356127ab816121e5565b946020939093013593505050565b600080600083850360808112156127cf57600080fd5b843593506040601f19820112156127e557600080fd5b50604080519081016001600160401b03811182821017156128085761280861211f565b6040526020850135612819816121e5565b815260408501356001600160801b038116811461283557600080fd5b6020820152915060608401356001600160401b0381111561285557600080fd5b6128618682870161218c565b9150509250925092565b60006020828403121561287d57600080fd5b81356001600160401b0381111561289357600080fd5b61289f8482850161218c565b949350505050565b6020815260006124846020830184612317565b6000602082840312156128cc57600080fd5b8151612484816121e5565b634e487b7160e01b600052601160045260246000fd5b6000600182016128ff576128ff6128d7565b5060010190565b600181811c9082168061291a57607f821691505b60208210810361293a57634e487b7160e01b600052602260045260246000fd5b50919050565b601f82111561188257806000526020600020601f840160051c810160208510156129675750805b601f840160051c820191505b818110156129875760008155600101612973565b5050505050565b81516001600160401b038111156129a7576129a761211f565b6129bb816129b58454612906565b84612940565b6020601f8211600181146129f257600083156129d75750848201515b600184901b600019600386901b1c198216175b855550612987565b600084815260208120601f198516915b82811015612a225787850151825560209485019460019092019101612a02565b5084821015612a405786840151600019600387901b60f8161c191681555b50505050600190811b01905550565b80820180821115612a6257612a626128d7565b92915050565b818103612a73575050565b612a7d8254612906565b6001600160401b03811115612a9457612a9461211f565b612aa2816129b58454612906565b6000601f821160018114612ad457600083156129d7575081850154600184901b600019600386901b1c198216176129ea565b600085815260209020601f19841690600086815260209020845b83811015612b0e5782860154825560019586019590910190602001612aee565b5085831015612b2c5781850154600019600388901b60f8161c191681555b5050505050600190811b01905550565b6001600160a01b039384168152919092166020820152604081019190915260600190565b60208082526019908201527f41756374696f6e20686173206e6f7420656e6465642079657400000000000000604082015260600190565b602080825260119082015270105d58dd1a5bdb881a185cc8195b991959607a1b604082015260600190565b81810381811115612a6257612a626128d7565b634e487b7160e01b600052603260045260246000fd5b600082601f830112612bfc57600080fd5b8151612c0a6121b182612165565b818152846020838601011115612c1f57600080fd5b61289f8260208301602087016122f3565b600080600080600080600080610100898b031215612c4d57600080fd5b88516001600160401b03811115612c6357600080fd5b612c6f8b828c01612beb565b60208b015160408c015160608d015160808e0151939c50919a509850965090506001600160601b031981168114612ca557600080fd5b60a08a015160c08b015191955093506001600160401b03811115612cc857600080fd5b612cd48b828c01612beb565b60e09a909a0151989b979a509598949793969295505050565b8881528760208201528660408201526001600160601b03198616606082015284608082015261010060a08201526000612d2a610100830186612317565b60c0830194909452506001600160a01b039190911660e0909101529695505050505050565b60008251612d618184602087016122f3565b9190910192915050565b600060208284031215612d7d57600080fd5b8151801515811461248457600080fd5b8051602080830151919081101561293a5760001960209190910360031b1b16919050565b805160208201516001600160601b0319811691906014821015612dee576001600160601b03196001600160601b03198360140360031b1b82161692505b5050919050565b805160208201516001600160801b0319811691906010821015612dee576001600160801b031960109290920360031b82901b161692915050565b60008451612e418184602089016122f3565b606085901b6001600160601b0319169083019081528351612e698160148401602088016122f3565b016014019594505050505056fea264697066735822122073452d83e635067f4ccde251a826fc34cbd9fddb9eedca50f1140503fd1e399b64736f6c634300081c0033","linkReferences":{}},"methodIdentifiers":{"ALIGNED_PAYMENT_SERVICE_ADDR()":"c8dc35a9","ALIGNED_SERVICE_MANAGER()":"470df9ec","ELF_COMMITMENT()":"38afd936","auctionCount()":"2ad71573","auctions(uint256)":"571a26a0","auctionsByOwner(address,uint256)":"cfeae748","createAuction(bytes,address,address,uint256,string,string,uint256,uint256)":"0e99a6eb","finalizeAuction(uint256,(address,uint128),bytes)":"e1c92e0a","getAuctionsByOwner(address)":"41177855","getBids(uint256)":"131d9a27","hasDeposited(uint256,address)":"99b1eb2e","onERC721Received(address,address,uint256,bytes)":"150b7a02","placeBid(uint256,bytes)":"864bc0a0","refundNft(uint256)":"e6819366","reverse(bytes)":"ec11c823","withdraw(uint256)":"2e1a7d4d"},"id":48}