{"abi":[{"type":"function","name":"SP1_VERIFIER","inputs":[],"outputs":[{"name":"","type":"address","internalType":"contract ISP1Verifier"}],"stateMutability":"view"},{"type":"function","name":"VERIFICATION_KEY","inputs":[],"outputs":[{"name":"","type":"bytes32","internalType":"bytes32"}],"stateMutability":"view"},{"type":"function","name":"auctionCount","inputs":[],"outputs":[{"name":"","type":"uint256","internalType":"uint256"}],"stateMutability":"view"},{"type":"function","name":"auctions","inputs":[{"name":"","type":"uint256","internalType":"uint256"}],"outputs":[{"name":"owner","type":"address","internalType":"address"},{"name":"encryptionKey","type":"bytes","internalType":"bytes"},{"name":"token","type":"address","internalType":"contract IERC20"},{"name":"asset","type":"tuple","internalType":"struct ZkAuction.Asset","components":[{"name":"name","type":"string","internalType":"string"},{"name":"description","type":"string","internalType":"string"},{"name":"nftContract","type":"address","internalType":"address"},{"name":"tokenId","type":"uint256","internalType":"uint256"}]},{"name":"winner","type":"tuple","internalType":"struct ZkAuction.Winner","components":[{"name":"winner","type":"address","internalType":"address"},{"name":"price","type":"uint128","internalType":"uint128"}]},{"name":"depositPrice","type":"uint256","internalType":"uint256"},{"name":"endTime","type":"uint256","internalType":"uint256"},{"name":"ended","type":"bool","internalType":"bool"}],"stateMutability":"view"},{"type":"function","name":"auctionsByOwner","inputs":[{"name":"","type":"address","internalType":"address"},{"name":"","type":"uint256","internalType":"uint256"}],"outputs":[{"name":"owner","type":"address","internalType":"address"},{"name":"encryptionKey","type":"bytes","internalType":"bytes"},{"name":"token","type":"address","internalType":"contract IERC20"},{"name":"asset","type":"tuple","internalType":"struct ZkAuction.Asset","components":[{"name":"name","type":"string","internalType":"string"},{"name":"description","type":"string","internalType":"string"},{"name":"nftContract","type":"address","internalType":"address"},{"name":"tokenId","type":"uint256","internalType":"uint256"}]},{"name":"winner","type":"tuple","internalType":"struct ZkAuction.Winner","components":[{"name":"winner","type":"address","internalType":"address"},{"name":"price","type":"uint128","internalType":"uint128"}]},{"name":"depositPrice","type":"uint256","internalType":"uint256"},{"name":"endTime","type":"uint256","internalType":"uint256"},{"name":"ended","type":"bool","internalType":"bool"}],"stateMutability":"view"},{"type":"function","name":"createAuction","inputs":[{"name":"_encryptionKey","type":"bytes","internalType":"bytes"},{"name":"_token","type":"address","internalType":"contract IERC20"},{"name":"_nftContract","type":"address","internalType":"address"},{"name":"_tokenId","type":"uint256","internalType":"uint256"},{"name":"_assetName","type":"string","internalType":"string"},{"name":"_assetDescription","type":"string","internalType":"string"},{"name":"_depositPrice","type":"uint256","internalType":"uint256"},{"name":"_duration","type":"uint256","internalType":"uint256"}],"outputs":[],"stateMutability":"nonpayable"},{"type":"function","name":"finalizeAuction","inputs":[{"name":"auctionId","type":"uint256","internalType":"uint256"},{"name":"_winner","type":"tuple","internalType":"struct ZkAuction.Winner","components":[{"name":"winner","type":"address","internalType":"address"},{"name":"price","type":"uint128","internalType":"uint128"}]},{"name":"publicInput","type":"bytes","internalType":"bytes"},{"name":"proof","type":"bytes","internalType":"bytes"}],"outputs":[],"stateMutability":"nonpayable"},{"type":"function","name":"getAuctionsByOwner","inputs":[{"name":"owner","type":"address","internalType":"address"}],"outputs":[{"name":"","type":"tuple[]","internalType":"struct ZkAuction.Auction[]","components":[{"name":"owner","type":"address","internalType":"address"},{"name":"encryptionKey","type":"bytes","internalType":"bytes"},{"name":"token","type":"address","internalType":"contract IERC20"},{"name":"asset","type":"tuple","internalType":"struct ZkAuction.Asset","components":[{"name":"name","type":"string","internalType":"string"},{"name":"description","type":"string","internalType":"string"},{"name":"nftContract","type":"address","internalType":"address"},{"name":"tokenId","type":"uint256","internalType":"uint256"}]},{"name":"bids","type":"tuple[]","internalType":"struct ZkAuction.Bid[]","components":[{"name":"bidder","type":"address","internalType":"address"},{"name":"encryptedPrice","type":"bytes","internalType":"bytes"}]},{"name":"winner","type":"tuple","internalType":"struct ZkAuction.Winner","components":[{"name":"winner","type":"address","internalType":"address"},{"name":"price","type":"uint128","internalType":"uint128"}]},{"name":"depositPrice","type":"uint256","internalType":"uint256"},{"name":"endTime","type":"uint256","internalType":"uint256"},{"name":"ended","type":"bool","internalType":"bool"}]}],"stateMutability":"view"},{"type":"function","name":"getBids","inputs":[{"name":"auctionId","type":"uint256","internalType":"uint256"}],"outputs":[{"name":"","type":"tuple[]","internalType":"struct ZkAuction.Bid[]","components":[{"name":"bidder","type":"address","internalType":"address"},{"name":"encryptedPrice","type":"bytes","internalType":"bytes"}]}],"stateMutability":"view"},{"type":"function","name":"hasDeposited","inputs":[{"name":"","type":"uint256","internalType":"uint256"},{"name":"","type":"address","internalType":"address"}],"outputs":[{"name":"","type":"bool","internalType":"bool"}],"stateMutability":"view"},{"type":"function","name":"onERC721Received","inputs":[{"name":"operator","type":"address","internalType":"address"},{"name":"from","type":"address","internalType":"address"},{"name":"tokenId","type":"uint256","internalType":"uint256"},{"name":"data","type":"bytes","internalType":"bytes"}],"outputs":[{"name":"","type":"bytes4","internalType":"bytes4"}],"stateMutability":"pure"},{"type":"function","name":"placeBid","inputs":[{"name":"auctionId","type":"uint256","internalType":"uint256"},{"name":"_encryptedPrice","type":"bytes","internalType":"bytes"}],"outputs":[],"stateMutability":"nonpayable"},{"type":"function","name":"withdraw","inputs":[{"name":"auctionId","type":"uint256","internalType":"uint256"}],"outputs":[],"stateMutability":"nonpayable"},{"type":"event","name":"AuctionCreated","inputs":[{"name":"auctionId","type":"uint256","indexed":true,"internalType":"uint256"},{"name":"owner","type":"address","indexed":true,"internalType":"address"}],"anonymous":false},{"type":"event","name":"AuctionEnded","inputs":[{"name":"auctionId","type":"uint256","indexed":true,"internalType":"uint256"},{"name":"winner","type":"address","indexed":true,"internalType":"address"},{"name":"price","type":"uint128","indexed":false,"internalType":"uint128"}],"anonymous":false},{"type":"event","name":"NewBid","inputs":[{"name":"auctionId","type":"uint256","indexed":true,"internalType":"uint256"},{"name":"bidder","type":"address","indexed":true,"internalType":"address"},{"name":"encryptedPrice","type":"bytes","indexed":false,"internalType":"bytes"}],"anonymous":false},{"type":"error","name":"SafeERC20FailedOperation","inputs":[{"name":"token","type":"address","internalType":"address"}]}],"bytecode":{"object":"0x6080604052348015600f57600080fd5b50612a428061001f6000396000f3fe608060405234801561001057600080fd5b50600436106100cf5760003560e01c8063571a26a01161008c57806399b1eb2e1161006657806399b1eb2e146102015780639db7aaba1461023f578063a1819f9b14610265578063cfeae7481461027857600080fd5b8063571a26a01461019457806378dbfee1146101bb578063864bc0a0146101ee57600080fd5b80630e99a6eb146100d4578063131d9a27146100e9578063150b7a02146101125780632ad715731461014a5780632e1a7d4d146101615780634117785514610174575b600080fd5b6100e76100e2366004611f47565b61028b565b005b6100fc6100f7366004612017565b6107e3565b6040516101099190612080565b60405180910390f35b61013161012036600461214d565b630a85bd0160e11b95945050505050565b6040516001600160e01b03199091168152602001610109565b61015360005481565b604051908152602001610109565b6100e761016f366004612017565b610985565b6101876101823660046121bf565b610a67565b60405161010991906122b6565b6101a76101a2366004612017565b610e49565b6040516101099897969594939291906123db565b6101d6733b6041173b80e77f038f3f2c0f9744f04837185e81565b6040516001600160a01b039091168152602001610109565b6100e76101fc36600461246f565b6110a7565b61022f61020f3660046124b5565b600360209081526000928352604080842090915290825290205460ff1681565b6040519015158152602001610109565b6101537e72d1c573b7b587cf19f5ebb986a1409c35bd63ec98735746a778038dc1ab9d81565b6100e76102733660046124e5565b611271565b6101a76102863660046125ab565b6115ee565b600082116102f05760405162461bcd60e51b815260206004820152602760248201527f4465706f736974207072696365206d7573742062652067726561746572207468604482015266616e207a65726f60c81b60648201526084015b60405180910390fd5b6000811161034b5760405162461bcd60e51b815260206004820152602260248201527f4475726174696f6e206d7573742062652067726561746572207468616e207a65604482015261726f60f01b60648201526084016102e7565b6040516331a9108f60e11b815260048101869052869033906001600160a01b03831690636352211e90602401602060405180830381865afa158015610394573d6000803e3d6000fd5b505050506040513d601f19601f820116820180604052508101906103b891906125d7565b6001600160a01b0316146104195760405162461bcd60e51b815260206004820152602260248201527f596f75206d757374206f776e20746865204e465420746f2061756374696f6e206044820152611a5d60f21b60648201526084016102e7565b60405163020604bf60e21b81526004810187905230906001600160a01b0383169063081812fc90602401602060405180830381865afa158015610460573d6000803e3d6000fd5b505050506040513d601f19601f8201168201806040525081019061048491906125d7565b6001600160a01b0316146104e65760405162461bcd60e51b8152602060048201526024808201527f596f75206e65656420617070726f766520746865204e465420746f20636f6e746044820152631c9858dd60e21b60648201526084016102e7565b6000805490806104f58361260a565b909155505060008054815260016020819052604090912080546001600160a01b031916331781559081016105298b826126ab565b5060408051608081018252878152602081018790526001600160a01b038a169181019190915260608101889052600382018061056589826126ab565b506020820151600182019061057a90826126ab565b5060408201516002820180546001600160a01b0319166001600160a01b03909216919091179055606090910151600390910155600a81018490556105be834261276c565b600b820155600c8101805460ff19169055600280820180546001600160a01b03808d166001600160a01b031992831617909255336000908152602093845260408120805460018181018355918352949091208554600d909502018054909216939092169290921782558291908181019061063a90840182612785565b5060028281015490820180546001600160a01b0319166001600160a01b039092169190911790556003808301908201806106748382612785565b5060018181019061068790840182612785565b5060028281015490820180546001600160a01b0319166001600160a01b03909216919091179055600391820154910155600782810180546106cb9284019190611d4b565b5060088281015490820180546001600160a01b0319166001600160a01b0392831617905560098084015490830180546001600160801b0319166001600160801b03909216919091179055600a8084015490830155600b8084015490830155600c9283015492909101805460ff909316151560ff1990931692909217909155604051632142170760e11b815233600482015230602482015260448101899052908316906342842e0e90606401600060405180830381600087803b15801561079057600080fd5b505af11580156107a4573d6000803e3d6000fd5b5050600080546040513394509092507f5d551e2a2cc977fd8c530317059b4f2d9f504fb82f7dfad736f8d56679bcdfd09190a350505050505050505050565b6000818152600160205260409020600b01546060904210156108435760405162461bcd60e51b8152602060048201526019602482015278105d58dd1a5bdb881a185cc81b9bdd08195b991959081e595d603a1b60448201526064016102e7565b6000828152600160205260409020600c015460ff16156108755760405162461bcd60e51b81526004016102e790612859565b600082815260016020908152604080832060070180548251818502810185019093528083529193909284015b8282101561097a576000848152602090819020604080518082019091526002850290910180546001600160a01b0316825260018101805492939192918401916108e990612623565b80601f016020809104026020016040519081016040528092919081815260200182805461091590612623565b80156109625780601f1061093757610100808354040283529160200191610962565b820191906000526020600020905b81548152906001019060200180831161094557829003601f168201915b505050505081525050815260200190600101906108a1565b505050509050919050565b6000818152600160209081526040808320600383528184203385529092529091205460ff166109ee5760405162461bcd60e51b81526020600482015260156024820152744e6f20746f6b656e7320746f20776974686472617760581b60448201526064016102e7565b600c81015460ff16610a425760405162461bcd60e51b815260206004820152601760248201527f546f6b656e7320617265207374696c6c206c6f636b656400000000000000000060448201526064016102e7565b600a8101546002820154610a63916001600160a01b0390911690339061163b565b5050565b6001600160a01b0381166000908152600260209081526040808320805482518185028101850190935280835260609492939192909184015b8282101561097a576000848152602090819020604080516101208101909152600d850290910180546001600160a01b031682526001810180549293919291840191610ae990612623565b80601f0160208091040260200160405190810160405280929190818152602001828054610b1590612623565b8015610b625780601f10610b3757610100808354040283529160200191610b62565b820191906000526020600020905b815481529060010190602001808311610b4557829003601f168201915b505050918352505060028201546001600160a01b03166020820152604080516080810182526003840180549290930192909182908290610ba190612623565b80601f0160208091040260200160405190810160405280929190818152602001828054610bcd90612623565b8015610c1a5780601f10610bef57610100808354040283529160200191610c1a565b820191906000526020600020905b815481529060010190602001808311610bfd57829003601f168201915b50505050508152602001600182018054610c3390612623565b80601f0160208091040260200160405190810160405280929190818152602001828054610c5f90612623565b8015610cac5780601f10610c8157610100808354040283529160200191610cac565b820191906000526020600020905b815481529060010190602001808311610c8f57829003601f168201915b505050918352505060028201546001600160a01b031660208083019190915260039092015460409182015291835260078401805483518184028101840190945280845293820193909160009084015b82821015610dd4576000848152602090819020604080518082019091526002850290910180546001600160a01b031682526001810180549293919291840191610d4390612623565b80601f0160208091040260200160405190810160405280929190818152602001828054610d6f90612623565b8015610dbc5780601f10610d9157610100808354040283529160200191610dbc565b820191906000526020600020905b815481529060010190602001808311610d9f57829003601f168201915b50505050508152505081526020019060010190610cfb565b5050509082525060408051808201825260088401546001600160a01b0316815260098401546001600160801b031660208281019190915280840191909152600a84015491830191909152600b8301546060830152600c9092015460ff1615156080909101529082526001929092019101610a9f565b6001602081905260009182526040909120805491810180546001600160a01b0390931692610e7690612623565b80601f0160208091040260200160405190810160405280929190818152602001828054610ea290612623565b8015610eef5780601f10610ec457610100808354040283529160200191610eef565b820191906000526020600020905b815481529060010190602001808311610ed257829003601f168201915b5050505050908060020160009054906101000a90046001600160a01b03169080600301604051806080016040529081600082018054610f2d90612623565b80601f0160208091040260200160405190810160405280929190818152602001828054610f5990612623565b8015610fa65780601f10610f7b57610100808354040283529160200191610fa6565b820191906000526020600020905b815481529060010190602001808311610f8957829003601f168201915b50505050508152602001600182018054610fbf90612623565b80601f0160208091040260200160405190810160405280929190818152602001828054610feb90612623565b80156110385780601f1061100d57610100808354040283529160200191611038565b820191906000526020600020905b81548152906001019060200180831161101b57829003601f168201915b505050918352505060028201546001600160a01b039081166020808401919091526003909301546040928301528151808301909252600885015416815260098401546001600160801b031691810191909152600a830154600b840154600c909401549293919290919060ff1688565b6000828152600160205260409020600c81015460ff16156110da5760405162461bcd60e51b81526004016102e790612859565b80600b015442106111235760405162461bcd60e51b8152602060048201526013602482015272105d58dd1a5bdb881a185cc8195e1c1a5c9959606a1b60448201526064016102e7565b600083815260036020908152604080832033845290915290205460ff16156111815760405162461bcd60e51b8152602060048201526011602482015270105b1c9958591e4819195c1bdcda5d1959607a1b60448201526064016102e7565b6000838152600360209081526040808320338085529083528184208054600160ff1990911681179091558251808401909352908252818301868152600786018054808401825590865293909420825160029094020180546001600160a01b0319166001600160a01b039094169390931783559251909282019061120490826126ab565b505050600a810154600282015461122a916001600160a01b03909116903390309061169f565b336001600160a01b0316837f0aebdeac202f28be37e4f9405aceae67b58f4e341186d0dcb3d4443b306043b7846040516112649190612884565b60405180910390a3505050565b600085815260016020526040902080548691906001600160a01b031633146112d35760405162461bcd60e51b81526020600482015260156024820152742cb7ba9030b932903737ba103a34329037bbb732b960591b60448201526064016102e7565b600087815260016020526040902080546001600160a01b0316331461133a5760405162461bcd60e51b815260206004820152601960248201527f596f75206e656564206f776e6572206f662061756374696f6e0000000000000060448201526064016102e7565b6000888152600160205260409020600b01544210156113975760405162461bcd60e51b8152602060048201526019602482015278105d58dd1a5bdb881a185cc81b9bdd08195b991959081e595d603a1b60448201526064016102e7565b600c81015460ff16156113bc5760405162461bcd60e51b81526004016102e790612859565b6113c987898888886116de565b80600a015487602001516001600160801b0316111561143f5760405162461bcd60e51b815260206004820152602c60248201527f57696e6e657220686173206d6f726520626964207072696365207468616e206460448201526b65706f73697420707269636560a01b60648201526084016102e7565b86516008820180546001600160a01b0319166001600160a01b0392831690811790915560208901516009840180546001600160801b0319166001600160801b03909216919091179055600c8301805460ff1916600117905560058301546006840154604051632142170760e11b8152306004820152602481019390935260448301529091169081906342842e0e90606401600060405180830381600087803b1580156114ea57600080fd5b505af11580156114fe573d6000803e3d6000fd5b505050506009820154600a8301546001600160801b0390911610156115645760088201546009830154600a840154611564926001600160a01b03169161154f916001600160801b0390911690612897565b60028501546001600160a01b0316919061163b565b6009820154600283015461158e916001600160a01b039091169033906001600160801b031661163b565b600882015460098301546040516001600160801b0390911681526001600160a01b03909116908a907fcea9b5625991aa873d047c1eeaa9a77558ac53784c52b0647767e11e97c7a8849060200160405180910390a3505050505050505050565b6002602052816000526040600020818154811061160a57600080fd5b60009182526020909120600d9091020180546001820180546001600160a01b039092169450919250610e7690612623565b6040516001600160a01b0383811660248301526044820183905261169a91859182169063a9059cbb906064015b604051602081830303815290604052915060e01b6020820180516001600160e01b0383818316178352505050506118fa565b505050565b6040516001600160a01b0384811660248301528381166044830152606482018390526116d89186918216906323b872dd90608401611668565b50505050565b600080600061172286868080601f01602080910402602001604051908101604052809392919081815260200183838082843760009201919091525061196b92505050565b92509250925087600001516001600160a01b0316826001600160a01b03161461179c5760405162461bcd60e51b815260206004820152602660248201527f57696e6e6572206164647265737320696e2070726f6f6620646f6573206e6f74604482015265040dac2e8c6d60d31b60648201526084016102e7565b87602001516001600160801b0316816001600160801b03161461180d5760405162461bcd60e51b8152602060048201526024808201527f57696e6e657220707269636520696e2070726f6f6620646f6573206e6f74206d6044820152630c2e8c6d60e31b60648201526084016102e7565b82611817886119cd565b146118645760405162461bcd60e51b815260206004820152601b60248201527f41756374696f6e206861736820646f6573206e6f74206d61746368000000000060448201526064016102e7565b60405163020a49e360e51b8152733b6041173b80e77f038f3f2c0f9744f04837185e906341493c60906118c0907e72d1c573b7b587cf19f5ebb986a1409c35bd63ec98735746a778038dc1ab9d908a908a908a906004016128aa565b60006040518083038186803b1580156118d857600080fd5b505afa1580156118ec573d6000803e3d6000fd5b505050505050505050505050565b600080602060008451602086016000885af18061191d576040513d6000823e3d81fd5b50506000513d91508115611935578060011415611942565b6001600160a01b0384163b155b156116d857604051635274afe760e01b81526001600160a01b03851660048201526024016102e7565b600080600061197d8460006020611b83565b611986906128f9565b92506119958460286014611b83565b61199e9061291d565b60601c91506119b86119b385603c6010611b83565b611c88565b6119c190612970565b60801c90509193909250565b600081815260016020908152604080832060070180548251818502810185019093528083528493849084015b82821015611ad2576000848152602090819020604080518082019091526002850290910180546001600160a01b031682526001810180549293919291840191611a4190612623565b80601f0160208091040260200160405190810160405280929190818152602001828054611a6d90612623565b8015611aba5780601f10611a8f57610100808354040283529160200191611aba565b820191906000526020600020905b815481529060010190602001808311611a9d57829003601f168201915b505050505081525050815260200190600101906119f9565b505050509050600083604051602001611aed91815260200190565b604051602081830303815290604052905060005b8251811015611b735781838281518110611b1d57611b1d6129aa565b602002602001015160000151848381518110611b3b57611b3b6129aa565b602002602001015160200151604051602001611b59939291906129c0565b60408051601f198184030181529190529150600101611b01565b5080516020909101209392505050565b8251606090611b92838561276c565b1115611bd65760405162461bcd60e51b8152602060048201526013602482015272536c696365206f7574206f6620626f756e647360681b60448201526064016102e7565b6000826001600160401b03811115611bf057611bf0611e50565b6040519080825280601f01601f191660200182016040528015611c1a576020820181803683370190505b50905060005b83811015611c7f5785611c33828761276c565b81518110611c4357611c436129aa565b602001015160f81c60f81b828281518110611c6057611c606129aa565b60200101906001600160f81b031916908160001a905350600101611c20565b50949350505050565b6060600082516001600160401b03811115611ca557611ca5611e50565b6040519080825280601f01601f191660200182016040528015611ccf576020820181803683370190505b50905060005b8351811015611d4457838160018651611cee9190612897565b611cf89190612897565b81518110611d0857611d086129aa565b602001015160f81c60f81b828281518110611d2557611d256129aa565b60200101906001600160f81b031916908160001a905350600101611cd5565b5092915050565b828054828255906000526020600020906002028101928215611dc05760005260206000209160020282015b82811115611dc057825482546001600160a01b0319166001600160a01b039091161782558282600180820190611dae90840182612785565b50505091600201919060020190611d76565b50611dcc929150611dd0565b5090565b80821115611dcc5780546001600160a01b03191681556000611df56001830182611dfe565b50600201611dd0565b508054611e0a90612623565b6000825580601f10611e1a575050565b601f016020900490600052602060002090810190611e389190611e3b565b50565b5b80821115611dcc5760008155600101611e3c565b634e487b7160e01b600052604160045260246000fd5b604080519081016001600160401b0381118282101715611e8857611e88611e50565b60405290565b600082601f830112611e9f57600080fd5b8135602083016000806001600160401b03841115611ebf57611ebf611e50565b50604051601f19601f85018116603f011681018181106001600160401b0382111715611eed57611eed611e50565b604052838152905080828401871015611f0557600080fd5b838360208301376000602085830101528094505050505092915050565b6001600160a01b0381168114611e3857600080fd5b8035611f4281611f22565b919050565b600080600080600080600080610100898b031215611f6457600080fd5b88356001600160401b03811115611f7a57600080fd5b611f868b828c01611e8e565b985050611f9560208a01611f37565b9650611fa360408a01611f37565b95506060890135945060808901356001600160401b03811115611fc557600080fd5b611fd18b828c01611e8e565b94505060a08901356001600160401b03811115611fed57600080fd5b611ff98b828c01611e8e565b989b979a5095989497939693955050505060c08201359160e0013590565b60006020828403121561202957600080fd5b5035919050565b60005b8381101561204b578181015183820152602001612033565b50506000910152565b6000815180845261206c816020860160208601612030565b601f01601f19169290920160200192915050565b6000602082016020835280845180835260408501915060408160051b86010192506020860160005b828110156120f957868503603f19018452815180516001600160a01b031686526020908101516040918701829052906120e390870182612054565b95505060209384019391909101906001016120a8565b50929695505050505050565b60008083601f84011261211757600080fd5b5081356001600160401b0381111561212e57600080fd5b60208301915083602082850101111561214657600080fd5b9250929050565b60008060008060006080868803121561216557600080fd5b853561217081611f22565b9450602086013561218081611f22565b93506040860135925060608601356001600160401b038111156121a257600080fd5b6121ae88828901612105565b969995985093965092949392505050565b6000602082840312156121d157600080fd5b81356121dc81611f22565b9392505050565b60008151608084526121f86080850182612054565b9050602083015184820360208601526122118282612054565b6040858101516001600160a01b0316908701526060948501519490950193909352509192915050565b600082825180855260208501945060208160051b8301016020850160005b838110156122aa57848303601f19018852815180516001600160a01b0316845260209081015160409185018290529061229390850182612054565b6020998a0199909450929092019150600101612258565b50909695505050505050565b6000602082016020835280845180835260408501915060408160051b86010192506020860160005b828110156120f957868503603f19018452815180516001600160a01b0316865260208101516101406020880152612319610140880182612054565b9050604082015161233560408901826001600160a01b03169052565b506060820151878203606089015261234d82826121e3565b91505060808201518782036080890152612367828261223a565b91505060a082015161239860a089018280516001600160a01b031682526020908101516001600160801b0316910152565b5060c082015160e088015260e082015161010088015261010082015191506123c561012088018315159052565b95505060209384019391909101906001016122de565b6001600160a01b0389168152610120602082018190526000906124009083018a612054565b6001600160a01b0389166040840152828103606084015261242181896121e3565b87516001600160a01b0316608085015260208801516001600160801b031660a0850152915061244d9050565b8460c08301528360e08301528215156101008301529998505050505050505050565b6000806040838503121561248257600080fd5b8235915060208301356001600160401b0381111561249f57600080fd5b6124ab85828601611e8e565b9150509250929050565b600080604083850312156124c857600080fd5b8235915060208301356124da81611f22565b809150509250929050565b600080600080600085870360a08112156124fe57600080fd5b863595506040601f198201121561251457600080fd5b5061251d611e66565b602087013561252b81611f22565b815260408701356001600160801b038116811461254757600080fd5b6020820152935060608601356001600160401b0381111561256757600080fd5b61257388828901612105565b90945092505060808601356001600160401b0381111561259257600080fd5b61259e88828901611e8e565b9150509295509295909350565b600080604083850312156125be57600080fd5b82356125c981611f22565b946020939093013593505050565b6000602082840312156125e957600080fd5b81516121dc81611f22565b634e487b7160e01b600052601160045260246000fd5b60006001820161261c5761261c6125f4565b5060010190565b600181811c9082168061263757607f821691505b60208210810361265757634e487b7160e01b600052602260045260246000fd5b50919050565b601f82111561169a57806000526020600020601f840160051c810160208510156126845750805b601f840160051c820191505b818110156126a45760008155600101612690565b5050505050565b81516001600160401b038111156126c4576126c4611e50565b6126d8816126d28454612623565b8461265d565b6020601f82116001811461270f57600083156126f45750848201515b600184901b600019600386901b1c198216175b8555506126a4565b600084815260208120601f198516915b8281101561273f578785015182556020948501946001909201910161271f565b508482101561275d5786840151600019600387901b60f8161c191681555b50505050600190811b01905550565b8082018082111561277f5761277f6125f4565b92915050565b818103612790575050565b61279a8254612623565b6001600160401b038111156127b1576127b1611e50565b6127bf816126d28454612623565b6000601f8211600181146127f157600083156126f4575081850154600184901b600019600386901b1c19821617612707565b600085815260209020601f19841690600086815260209020845b8381101561282b578286015482556001958601959091019060200161280b565b50858310156128495781850154600019600388901b60f8161c191681555b5050505050600190811b01905550565b602080825260119082015270105d58dd1a5bdb881a185cc8195b991959607a1b604082015260600190565b6020815260006121dc6020830184612054565b8181038181111561277f5761277f6125f4565b84815260606020820152826060820152828460808301376000608084830101526000601f19601f850116820160808382030160408401526128ee6080820185612054565b979650505050505050565b805160208083015191908110156126575760001960209190910360031b1b16919050565b805160208201516bffffffffffffffffffffffff19811691906014821015612969576bffffffffffffffffffffffff196bffffffffffffffffffffffff198360140360031b1b82161692505b5050919050565b805160208201516001600160801b0319811691906010821015612969576001600160801b031960109290920360031b82901b161692915050565b634e487b7160e01b600052603260045260246000fd5b600084516129d2818460208901612030565b606085901b6bffffffffffffffffffffffff191690830190815283516129ff816014840160208801612030565b016014019594505050505056fea264697066735822122006c6baf97d80fec9517265f282b7e84637a9c49f10e2559f3d1b024f6e964d8664736f6c634300081c0033","linkReferences":{}},"methodIdentifiers":{"SP1_VERIFIER()":"78dbfee1","VERIFICATION_KEY()":"9db7aaba","auctionCount()":"2ad71573","auctions(uint256)":"571a26a0","auctionsByOwner(address,uint256)":"cfeae748","createAuction(bytes,address,address,uint256,string,string,uint256,uint256)":"0e99a6eb","finalizeAuction(uint256,(address,uint128),bytes,bytes)":"a1819f9b","getAuctionsByOwner(address)":"41177855","getBids(uint256)":"131d9a27","hasDeposited(uint256,address)":"99b1eb2e","onERC721Received(address,address,uint256,bytes)":"150b7a02","placeBid(uint256,bytes)":"864bc0a0","withdraw(uint256)":"2e1a7d4d"},"id":49}