{"abi":[{"type":"function","name":"ALIGNED_PAYMENT_SERVICE_ADDR","inputs":[],"outputs":[{"name":"","type":"address","internalType":"address"}],"stateMutability":"view"},{"type":"function","name":"ALIGNED_SERVICE_MANAGER","inputs":[],"outputs":[{"name":"","type":"address","internalType":"address"}],"stateMutability":"view"},{"type":"function","name":"ELF_COMMITMENT","inputs":[],"outputs":[{"name":"","type":"bytes32","internalType":"bytes32"}],"stateMutability":"view"},{"type":"function","name":"auctionCount","inputs":[],"outputs":[{"name":"","type":"uint256","internalType":"uint256"}],"stateMutability":"view"},{"type":"function","name":"auctions","inputs":[{"name":"","type":"uint256","internalType":"uint256"}],"outputs":[{"name":"owner","type":"address","internalType":"address"},{"name":"encryptionKey","type":"bytes","internalType":"bytes"},{"name":"token","type":"address","internalType":"contract IERC20"},{"name":"asset","type":"tuple","internalType":"struct ZkAuction.Asset","components":[{"name":"name","type":"string","internalType":"string"},{"name":"description","type":"string","internalType":"string"},{"name":"nftContract","type":"address","internalType":"address"},{"name":"tokenId","type":"uint256","internalType":"uint256"}]},{"name":"winner","type":"tuple","internalType":"struct ZkAuction.Winner","components":[{"name":"winner","type":"address","internalType":"address"},{"name":"price","type":"uint128","internalType":"uint128"}]},{"name":"depositPrice","type":"uint256","internalType":"uint256"},{"name":"endTime","type":"uint256","internalType":"uint256"},{"name":"ended","type":"bool","internalType":"bool"}],"stateMutability":"view"},{"type":"function","name":"auctionsByOwner","inputs":[{"name":"","type":"address","internalType":"address"},{"name":"","type":"uint256","internalType":"uint256"}],"outputs":[{"name":"owner","type":"address","internalType":"address"},{"name":"encryptionKey","type":"bytes","internalType":"bytes"},{"name":"token","type":"address","internalType":"contract IERC20"},{"name":"asset","type":"tuple","internalType":"struct ZkAuction.Asset","components":[{"name":"name","type":"string","internalType":"string"},{"name":"description","type":"string","internalType":"string"},{"name":"nftContract","type":"address","internalType":"address"},{"name":"tokenId","type":"uint256","internalType":"uint256"}]},{"name":"winner","type":"tuple","internalType":"struct ZkAuction.Winner","components":[{"name":"winner","type":"address","internalType":"address"},{"name":"price","type":"uint128","internalType":"uint128"}]},{"name":"depositPrice","type":"uint256","internalType":"uint256"},{"name":"endTime","type":"uint256","internalType":"uint256"},{"name":"ended","type":"bool","internalType":"bool"}],"stateMutability":"view"},{"type":"function","name":"createAuction","inputs":[{"name":"_encryptionKey","type":"bytes","internalType":"bytes"},{"name":"_token","type":"address","internalType":"contract IERC20"},{"name":"_nftContract","type":"address","internalType":"address"},{"name":"_tokenId","type":"uint256","internalType":"uint256"},{"name":"_assetName","type":"string","internalType":"string"},{"name":"_assetDescription","type":"string","internalType":"string"},{"name":"_depositPrice","type":"uint256","internalType":"uint256"},{"name":"_duration","type":"uint256","internalType":"uint256"}],"outputs":[],"stateMutability":"nonpayable"},{"type":"function","name":"finalizeAuction","inputs":[{"name":"auctionId","type":"uint256","internalType":"uint256"},{"name":"_winner","type":"tuple","internalType":"struct ZkAuction.Winner","components":[{"name":"winner","type":"address","internalType":"address"},{"name":"price","type":"uint128","internalType":"uint128"}]},{"name":"proof","type":"bytes","internalType":"bytes"}],"outputs":[],"stateMutability":"nonpayable"},{"type":"function","name":"getAuctionsByOwner","inputs":[{"name":"owner","type":"address","internalType":"address"}],"outputs":[{"name":"","type":"tuple[]","internalType":"struct ZkAuction.Auction[]","components":[{"name":"owner","type":"address","internalType":"address"},{"name":"encryptionKey","type":"bytes","internalType":"bytes"},{"name":"token","type":"address","internalType":"contract IERC20"},{"name":"asset","type":"tuple","internalType":"struct ZkAuction.Asset","components":[{"name":"name","type":"string","internalType":"string"},{"name":"description","type":"string","internalType":"string"},{"name":"nftContract","type":"address","internalType":"address"},{"name":"tokenId","type":"uint256","internalType":"uint256"}]},{"name":"bids","type":"tuple[]","internalType":"struct ZkAuction.Bid[]","components":[{"name":"bidder","type":"address","internalType":"address"},{"name":"encryptedPrice","type":"bytes","internalType":"bytes"}]},{"name":"winner","type":"tuple","internalType":"struct ZkAuction.Winner","components":[{"name":"winner","type":"address","internalType":"address"},{"name":"price","type":"uint128","internalType":"uint128"}]},{"name":"depositPrice","type":"uint256","internalType":"uint256"},{"name":"endTime","type":"uint256","internalType":"uint256"},{"name":"ended","type":"bool","internalType":"bool"}]}],"stateMutability":"view"},{"type":"function","name":"getBids","inputs":[{"name":"auctionId","type":"uint256","internalType":"uint256"}],"outputs":[{"name":"","type":"tuple[]","internalType":"struct ZkAuction.Bid[]","components":[{"name":"bidder","type":"address","internalType":"address"},{"name":"encryptedPrice","type":"bytes","internalType":"bytes"}]}],"stateMutability":"view"},{"type":"function","name":"hasDeposited","inputs":[{"name":"","type":"uint256","internalType":"uint256"},{"name":"","type":"address","internalType":"address"}],"outputs":[{"name":"","type":"bool","internalType":"bool"}],"stateMutability":"view"},{"type":"function","name":"onERC721Received","inputs":[{"name":"operator","type":"address","internalType":"address"},{"name":"from","type":"address","internalType":"address"},{"name":"tokenId","type":"uint256","internalType":"uint256"},{"name":"data","type":"bytes","internalType":"bytes"}],"outputs":[{"name":"","type":"bytes4","internalType":"bytes4"}],"stateMutability":"pure"},{"type":"function","name":"placeBid","inputs":[{"name":"auctionId","type":"uint256","internalType":"uint256"},{"name":"_encryptedPrice","type":"bytes","internalType":"bytes"}],"outputs":[],"stateMutability":"nonpayable"},{"type":"function","name":"reverse","inputs":[{"name":"data","type":"bytes","internalType":"bytes"}],"outputs":[{"name":"","type":"bytes","internalType":"bytes"}],"stateMutability":"pure"},{"type":"function","name":"withdraw","inputs":[{"name":"auctionId","type":"uint256","internalType":"uint256"}],"outputs":[],"stateMutability":"nonpayable"},{"type":"event","name":"AuctionCreated","inputs":[{"name":"auctionId","type":"uint256","indexed":true,"internalType":"uint256"},{"name":"owner","type":"address","indexed":true,"internalType":"address"}],"anonymous":false},{"type":"event","name":"AuctionEnded","inputs":[{"name":"auctionId","type":"uint256","indexed":true,"internalType":"uint256"},{"name":"winner","type":"address","indexed":true,"internalType":"address"},{"name":"price","type":"uint128","indexed":false,"internalType":"uint128"}],"anonymous":false},{"type":"event","name":"NewBid","inputs":[{"name":"auctionId","type":"uint256","indexed":true,"internalType":"uint256"},{"name":"bidder","type":"address","indexed":true,"internalType":"address"},{"name":"encryptedPrice","type":"bytes","indexed":false,"internalType":"bytes"}],"anonymous":false},{"type":"error","name":"InvalidElf","inputs":[{"name":"submittedElf","type":"bytes32","internalType":"bytes32"}]},{"type":"error","name":"SafeERC20FailedOperation","inputs":[{"name":"token","type":"address","internalType":"address"}]}],"bytecode":{"object":"0x6080604052348015600f57600080fd5b50612d9b8061001f6000396000f3fe608060405234801561001057600080fd5b50600436106100f55760003560e01c8063470df9ec11610097578063c8dc35a911610066578063c8dc35a91461028c578063cfeae748146102a7578063e1c92e0a146102ba578063ec11c823146102cd57600080fd5b8063470df9ec146101e1578063571a26a014610214578063864bc0a01461023b57806399b1eb2e1461024e57600080fd5b80632ad71573116100d35780632ad71573146101705780632e1a7d4d1461018757806338afd9361461019a57806341177855146101c157600080fd5b80630e99a6eb146100fa578063131d9a271461010f578063150b7a0214610138575b600080fd5b61010d610108366004612154565b6102ed565b005b61012261011d366004612224565b610845565b60405161012f919061228d565b60405180910390f35b610157610146366004612312565b630a85bd0160e11b95945050505050565b6040516001600160e01b0319909116815260200161012f565b61017960005481565b60405190815260200161012f565b61010d610195366004612224565b6109e7565b6101797f1751d5d4ef537625091e623bbfd7cc457b0503daa18d06b59d5d0f13d38fdb5f81565b6101d46101cf3660046123b1565b610ac9565b60405161012f91906124a8565b6101fc7358f280bebe9b34c9939c3c39e0890c81f163b62381565b6040516001600160a01b03909116815260200161012f565b610227610222366004612224565b610eab565b60405161012f9897969594939291906125cd565b61010d610249366004612661565b611109565b61027c61025c3660046126a7565b600360209081526000928352604080842090915290825290205460ff1681565b604051901515815260200161012f565b6101fc73815aeca64a974297942d2bbf034abee22a38a00381565b6102276102b53660046126d7565b6112d3565b61010d6102c8366004612703565b611320565b6102e06102db3660046127b5565b611699565b60405161012f91906127f1565b600082116103525760405162461bcd60e51b815260206004820152602760248201527f4465706f736974207072696365206d7573742062652067726561746572207468604482015266616e207a65726f60c81b60648201526084015b60405180910390fd5b600081116103ad5760405162461bcd60e51b815260206004820152602260248201527f4475726174696f6e206d7573742062652067726561746572207468616e207a65604482015261726f60f01b6064820152608401610349565b6040516331a9108f60e11b815260048101869052869033906001600160a01b03831690636352211e90602401602060405180830381865afa1580156103f6573d6000803e3d6000fd5b505050506040513d601f19601f8201168201806040525081019061041a9190612804565b6001600160a01b03161461047b5760405162461bcd60e51b815260206004820152602260248201527f596f75206d757374206f776e20746865204e465420746f2061756374696f6e206044820152611a5d60f21b6064820152608401610349565b60405163020604bf60e21b81526004810187905230906001600160a01b0383169063081812fc90602401602060405180830381865afa1580156104c2573d6000803e3d6000fd5b505050506040513d601f19601f820116820180604052508101906104e69190612804565b6001600160a01b0316146105485760405162461bcd60e51b8152602060048201526024808201527f596f75206e65656420617070726f766520746865204e465420746f20636f6e746044820152631c9858dd60e21b6064820152608401610349565b60008054908061055783612837565b909155505060008054815260016020819052604090912080546001600160a01b0319163317815590810161058b8b826128d8565b5060408051608081018252878152602081018790526001600160a01b038a16918101919091526060810188905260038201806105c789826128d8565b50602082015160018201906105dc90826128d8565b5060408201516002820180546001600160a01b0319166001600160a01b03909216919091179055606090910151600390910155600a81018490556106208342612999565b600b820155600c8101805460ff19169055600280820180546001600160a01b03808d166001600160a01b031992831617909255336000908152602093845260408120805460018181018355918352949091208554600d909502018054909216939092169290921782558291908181019061069c908401826129b2565b5060028281015490820180546001600160a01b0319166001600160a01b039092169190911790556003808301908201806106d683826129b2565b506001818101906106e9908401826129b2565b5060028281015490820180546001600160a01b0319166001600160a01b039092169190911790556003918201549101556007828101805461072d9284019190611f64565b5060088281015490820180546001600160a01b0319166001600160a01b0392831617905560098084015490830180546001600160801b0319166001600160801b03909216919091179055600a8084015490830155600b8084015490830155600c9283015492909101805460ff909316151560ff1990931692909217909155604051632142170760e11b815233600482015230602482015260448101899052908316906342842e0e90606401600060405180830381600087803b1580156107f257600080fd5b505af1158015610806573d6000803e3d6000fd5b5050600080546040513394509092507f5d551e2a2cc977fd8c530317059b4f2d9f504fb82f7dfad736f8d56679bcdfd09190a350505050505050505050565b6000818152600160205260409020600b01546060904210156108a55760405162461bcd60e51b8152602060048201526019602482015278105d58dd1a5bdb881a185cc81b9bdd08195b991959081e595d603a1b6044820152606401610349565b6000828152600160205260409020600c015460ff16156108d75760405162461bcd60e51b815260040161034990612a86565b600082815260016020908152604080832060070180548251818502810185019093528083529193909284015b828210156109dc576000848152602090819020604080518082019091526002850290910180546001600160a01b03168252600181018054929391929184019161094b90612850565b80601f016020809104026020016040519081016040528092919081815260200182805461097790612850565b80156109c45780601f10610999576101008083540402835291602001916109c4565b820191906000526020600020905b8154815290600101906020018083116109a757829003601f168201915b50505050508152505081526020019060010190610903565b505050509050919050565b6000818152600160209081526040808320600383528184203385529092529091205460ff16610a505760405162461bcd60e51b81526020600482015260156024820152744e6f20746f6b656e7320746f20776974686472617760581b6044820152606401610349565b600c81015460ff16610aa45760405162461bcd60e51b815260206004820152601760248201527f546f6b656e7320617265207374696c6c206c6f636b65640000000000000000006044820152606401610349565b600a8101546002820154610ac5916001600160a01b0390911690339061175c565b5050565b6001600160a01b0381166000908152600260209081526040808320805482518185028101850190935280835260609492939192909184015b828210156109dc576000848152602090819020604080516101208101909152600d850290910180546001600160a01b031682526001810180549293919291840191610b4b90612850565b80601f0160208091040260200160405190810160405280929190818152602001828054610b7790612850565b8015610bc45780601f10610b9957610100808354040283529160200191610bc4565b820191906000526020600020905b815481529060010190602001808311610ba757829003601f168201915b505050918352505060028201546001600160a01b03166020820152604080516080810182526003840180549290930192909182908290610c0390612850565b80601f0160208091040260200160405190810160405280929190818152602001828054610c2f90612850565b8015610c7c5780601f10610c5157610100808354040283529160200191610c7c565b820191906000526020600020905b815481529060010190602001808311610c5f57829003601f168201915b50505050508152602001600182018054610c9590612850565b80601f0160208091040260200160405190810160405280929190818152602001828054610cc190612850565b8015610d0e5780601f10610ce357610100808354040283529160200191610d0e565b820191906000526020600020905b815481529060010190602001808311610cf157829003601f168201915b505050918352505060028201546001600160a01b031660208083019190915260039092015460409182015291835260078401805483518184028101840190945280845293820193909160009084015b82821015610e36576000848152602090819020604080518082019091526002850290910180546001600160a01b031682526001810180549293919291840191610da590612850565b80601f0160208091040260200160405190810160405280929190818152602001828054610dd190612850565b8015610e1e5780601f10610df357610100808354040283529160200191610e1e565b820191906000526020600020905b815481529060010190602001808311610e0157829003601f168201915b50505050508152505081526020019060010190610d5d565b5050509082525060408051808201825260088401546001600160a01b0316815260098401546001600160801b031660208281019190915280840191909152600a84015491830191909152600b8301546060830152600c9092015460ff1615156080909101529082526001929092019101610b01565b6001602081905260009182526040909120805491810180546001600160a01b0390931692610ed890612850565b80601f0160208091040260200160405190810160405280929190818152602001828054610f0490612850565b8015610f515780601f10610f2657610100808354040283529160200191610f51565b820191906000526020600020905b815481529060010190602001808311610f3457829003601f168201915b5050505050908060020160009054906101000a90046001600160a01b03169080600301604051806080016040529081600082018054610f8f90612850565b80601f0160208091040260200160405190810160405280929190818152602001828054610fbb90612850565b80156110085780601f10610fdd57610100808354040283529160200191611008565b820191906000526020600020905b815481529060010190602001808311610feb57829003601f168201915b5050505050815260200160018201805461102190612850565b80601f016020809104026020016040519081016040528092919081815260200182805461104d90612850565b801561109a5780601f1061106f5761010080835404028352916020019161109a565b820191906000526020600020905b81548152906001019060200180831161107d57829003601f168201915b505050918352505060028201546001600160a01b039081166020808401919091526003909301546040928301528151808301909252600885015416815260098401546001600160801b031691810191909152600a830154600b840154600c909401549293919290919060ff1688565b6000828152600160205260409020600c81015460ff161561113c5760405162461bcd60e51b815260040161034990612a86565b80600b015442106111855760405162461bcd60e51b8152602060048201526013602482015272105d58dd1a5bdb881a185cc8195e1c1a5c9959606a1b6044820152606401610349565b600083815260036020908152604080832033845290915290205460ff16156111e35760405162461bcd60e51b8152602060048201526011602482015270105b1c9958591e4819195c1bdcda5d1959607a1b6044820152606401610349565b6000838152600360209081526040808320338085529083528184208054600160ff1990911681179091558251808401909352908252818301868152600786018054808401825590865293909420825160029094020180546001600160a01b0319166001600160a01b039094169390931783559251909282019061126690826128d8565b505050600a810154600282015461128c916001600160a01b0390911690339030906117c0565b336001600160a01b0316837f0aebdeac202f28be37e4f9405aceae67b58f4e341186d0dcb3d4443b306043b7846040516112c691906127f1565b60405180910390a3505050565b600260205281600052604060002081815481106112ef57600080fd5b60009182526020909120600d9091020180546001820180546001600160a01b039092169450919250610ed890612850565b600083815260016020526040902080548491906001600160a01b031633146113825760405162461bcd60e51b81526020600482015260156024820152742cb7ba9030b932903737ba103a34329037bbb732b960591b6044820152606401610349565b600085815260016020526040902080546001600160a01b031633146113e95760405162461bcd60e51b815260206004820152601960248201527f596f75206e656564206f776e6572206f662061756374696f6e000000000000006044820152606401610349565b6000868152600160205260409020600b01544210156114465760405162461bcd60e51b8152602060048201526019602482015278105d58dd1a5bdb881a185cc81b9bdd08195b991959081e595d603a1b6044820152606401610349565b600c81015460ff161561146b5760405162461bcd60e51b815260040161034990612a86565b6114768587866117ff565b80600a015485602001516001600160801b031611156114ec5760405162461bcd60e51b815260206004820152602c60248201527f57696e6e657220686173206d6f726520626964207072696365207468616e206460448201526b65706f73697420707269636560a01b6064820152608401610349565b84516008820180546001600160a01b0319166001600160a01b0392831690811790915560208701516009840180546001600160801b0319166001600160801b03909216919091179055600c8301805460ff1916600117905560058301546006840154604051632142170760e11b8152306004820152602481019390935260448301529091169081906342842e0e90606401600060405180830381600087803b15801561159757600080fd5b505af11580156115ab573d6000803e3d6000fd5b505050506009820154600a8301546001600160801b0390911610156116115760088201546009830154600a840154611611926001600160a01b0316916115fc916001600160801b0390911690612ab1565b60028501546001600160a01b0316919061175c565b6009820154600283015461163b916001600160a01b039091169033906001600160801b031661175c565b600882015460098301546040516001600160801b0390911681526001600160a01b039091169088907fcea9b5625991aa873d047c1eeaa9a77558ac53784c52b0647767e11e97c7a8849060200160405180910390a350505050505050565b6060600082516001600160401b038111156116b6576116b6612069565b6040519080825280601f01601f1916602001820160405280156116e0576020820181803683370190505b50905060005b8351811015611755578381600186516116ff9190612ab1565b6117099190612ab1565b8151811061171957611719612ac4565b602001015160f81c60f81b82828151811061173657611736612ac4565b60200101906001600160f81b031916908160001a9053506001016116e6565b5092915050565b6040516001600160a01b038381166024830152604482018390526117bb91859182169063a9059cbb906064015b604051602081830303815290604052915060e01b6020820180516001600160e01b038381831617835250505050611bdb565b505050565b6040516001600160a01b0384811660248301528381166044830152606482018390526117f99186918216906323b872dd90608401611789565b50505050565b6000806000806000806000808880602001905181019061181f9190612b1f565b97509750975097509750975097509750847f1751d5d4ef537625091e623bbfd7cc457b0503daa18d06b59d5d0f13d38fdb5f60001b146118755760405163636ca83360e11b815260048101869052602401610349565b606084901c33146118d25760405162461bcd60e51b815260206004820152602160248201527f70726f6f6647656e657261746f724164647220646f6573206e6f74206d6174636044820152600d60fb1b6064820152608401610349565b87516020890120861461191e5760405162461bcd60e51b8152602060048201526014602482015273125b9d985b1a59081c1d589b1a58c81a5b9c1d5d60621b6044820152606401610349565b600080600061192c8b611c4c565b9250925092508d600001516001600160a01b0316826001600160a01b0316146119975760405162461bcd60e51b815260206004820152601e60248201527f57696e6e657220696e2070726f6f6620646f6573206e6f74206d6174636800006044820152606401610349565b8d602001516001600160801b0316816001600160801b0316146119fc5760405162461bcd60e51b815260206004820152601e60248201527f57696e6e657220696e2070726f6f6620646f6573206e6f74206d6174636800006044820152606401610349565b82611a068e611ca9565b14611a535760405162461bcd60e51b815260206004820152601b60248201527f41756374696f6e206861736820646f6573206e6f74206d6174636800000000006044820152606401610349565b6000807358f280bebe9b34c9939c3c39e0890c81f163b6236001600160a01b03168c8c8c8c8c8c8c73815aeca64a974297942d2bbf034abee22a38a003604051602401611aa7989796959493929190612bdc565b60408051601f198184030181529181526020820180516001600160e01b03166306045a9160e01b17905251611adc9190612c3e565b600060405180830381855afa9150503d8060008114611b17576040519150601f19603f3d011682016040523d82523d6000602084013e611b1c565b606091505b509150915081611b635760405162461bcd60e51b81526020600482015260126024820152711cdd185d1a58d7d8d85b1b0819985a5b195960721b6044820152606401610349565b600081806020019051810190611b799190612c5a565b905080611bc85760405162461bcd60e51b815260206004820152601b60248201527f70726f6f66206e6f7420696e636c7564656420696e20626174636800000000006044820152606401610349565b5050505050505050505050505050505050565b600080602060008451602086016000885af180611bfe576040513d6000823e3d81fd5b50506000513d91508115611c16578060011415611c23565b6001600160a01b0384163b155b156117f957604051635274afe760e01b81526001600160a01b0385166004820152602401610349565b6000806000611c5e8460006020611e5f565b611c6790612c7c565b9250611c768460286014611e5f565b611c7f90612ca0565b60601c9150611c946102db85603c6010611e5f565b611c9d90612ce4565b60801c90509193909250565b600081815260016020908152604080832060070180548251818502810185019093528083528493849084015b82821015611dae576000848152602090819020604080518082019091526002850290910180546001600160a01b031682526001810180549293919291840191611d1d90612850565b80601f0160208091040260200160405190810160405280929190818152602001828054611d4990612850565b8015611d965780601f10611d6b57610100808354040283529160200191611d96565b820191906000526020600020905b815481529060010190602001808311611d7957829003601f168201915b50505050508152505081526020019060010190611cd5565b505050509050600083604051602001611dc991815260200190565b604051602081830303815290604052905060005b8251811015611e4f5781838281518110611df957611df9612ac4565b602002602001015160000151848381518110611e1757611e17612ac4565b602002602001015160200151604051602001611e3593929190612d1e565b60408051601f198184030181529190529150600101611ddd565b5080516020909101209392505050565b8251606090611e6e8385612999565b1115611eb25760405162461bcd60e51b8152602060048201526013602482015272536c696365206f7574206f6620626f756e647360681b6044820152606401610349565b6000826001600160401b03811115611ecc57611ecc612069565b6040519080825280601f01601f191660200182016040528015611ef6576020820181803683370190505b50905060005b83811015611f5b5785611f0f8287612999565b81518110611f1f57611f1f612ac4565b602001015160f81c60f81b828281518110611f3c57611f3c612ac4565b60200101906001600160f81b031916908160001a905350600101611efc565b50949350505050565b828054828255906000526020600020906002028101928215611fd95760005260206000209160020282015b82811115611fd957825482546001600160a01b0319166001600160a01b039091161782558282600180820190611fc7908401826129b2565b50505091600201919060020190611f8f565b50611fe5929150611fe9565b5090565b80821115611fe55780546001600160a01b0319168155600061200e6001830182612017565b50600201611fe9565b50805461202390612850565b6000825580601f10612033575050565b601f0160209004906000526020600020908101906120519190612054565b50565b5b80821115611fe55760008155600101612055565b634e487b7160e01b600052604160045260246000fd5b604051601f8201601f191681016001600160401b03811182821017156120a7576120a7612069565b604052919050565b60006001600160401b038211156120c8576120c8612069565b50601f01601f191660200190565b600082601f8301126120e757600080fd5b81356020830160006121006120fb846120af565b61207f565b905082815285838301111561211457600080fd5b82826020830137600092810160200192909252509392505050565b6001600160a01b038116811461205157600080fd5b803561214f8161212f565b919050565b600080600080600080600080610100898b03121561217157600080fd5b88356001600160401b0381111561218757600080fd5b6121938b828c016120d6565b9850506121a260208a01612144565b96506121b060408a01612144565b95506060890135945060808901356001600160401b038111156121d257600080fd5b6121de8b828c016120d6565b94505060a08901356001600160401b038111156121fa57600080fd5b6122068b828c016120d6565b989b979a5095989497939693955050505060c08201359160e0013590565b60006020828403121561223657600080fd5b5035919050565b60005b83811015612258578181015183820152602001612240565b50506000910152565b6000815180845261227981602086016020860161223d565b601f01601f19169290920160200192915050565b6000602082016020835280845180835260408501915060408160051b86010192506020860160005b8281101561230657868503603f19018452815180516001600160a01b031686526020908101516040918701829052906122f090870182612261565b95505060209384019391909101906001016122b5565b50929695505050505050565b60008060008060006080868803121561232a57600080fd5b85356123358161212f565b945060208601356123458161212f565b93506040860135925060608601356001600160401b0381111561236757600080fd5b8601601f8101881361237857600080fd5b80356001600160401b0381111561238e57600080fd5b8860208284010111156123a057600080fd5b959894975092955050506020019190565b6000602082840312156123c357600080fd5b81356123ce8161212f565b9392505050565b60008151608084526123ea6080850182612261565b9050602083015184820360208601526124038282612261565b6040858101516001600160a01b0316908701526060948501519490950193909352509192915050565b600082825180855260208501945060208160051b8301016020850160005b8381101561249c57848303601f19018852815180516001600160a01b0316845260209081015160409185018290529061248590850182612261565b6020998a019990945092909201915060010161244a565b50909695505050505050565b6000602082016020835280845180835260408501915060408160051b86010192506020860160005b8281101561230657868503603f19018452815180516001600160a01b031686526020810151610140602088015261250b610140880182612261565b9050604082015161252760408901826001600160a01b03169052565b506060820151878203606089015261253f82826123d5565b91505060808201518782036080890152612559828261242c565b91505060a082015161258a60a089018280516001600160a01b031682526020908101516001600160801b0316910152565b5060c082015160e088015260e082015161010088015261010082015191506125b761012088018315159052565b95505060209384019391909101906001016124d0565b6001600160a01b0389168152610120602082018190526000906125f29083018a612261565b6001600160a01b0389166040840152828103606084015261261381896123d5565b87516001600160a01b0316608085015260208801516001600160801b031660a0850152915061263f9050565b8460c08301528360e08301528215156101008301529998505050505050505050565b6000806040838503121561267457600080fd5b8235915060208301356001600160401b0381111561269157600080fd5b61269d858286016120d6565b9150509250929050565b600080604083850312156126ba57600080fd5b8235915060208301356126cc8161212f565b809150509250929050565b600080604083850312156126ea57600080fd5b82356126f58161212f565b946020939093013593505050565b6000806000838503608081121561271957600080fd5b843593506040601f198201121561272f57600080fd5b50604080519081016001600160401b038111828210171561275257612752612069565b60405260208501356127638161212f565b815260408501356001600160801b038116811461277f57600080fd5b6020820152915060608401356001600160401b0381111561279f57600080fd5b6127ab868287016120d6565b9150509250925092565b6000602082840312156127c757600080fd5b81356001600160401b038111156127dd57600080fd5b6127e9848285016120d6565b949350505050565b6020815260006123ce6020830184612261565b60006020828403121561281657600080fd5b81516123ce8161212f565b634e487b7160e01b600052601160045260246000fd5b60006001820161284957612849612821565b5060010190565b600181811c9082168061286457607f821691505b60208210810361288457634e487b7160e01b600052602260045260246000fd5b50919050565b601f8211156117bb57806000526020600020601f840160051c810160208510156128b15750805b601f840160051c820191505b818110156128d157600081556001016128bd565b5050505050565b81516001600160401b038111156128f1576128f1612069565b612905816128ff8454612850565b8461288a565b6020601f82116001811461293c57600083156129215750848201515b600184901b600019600386901b1c198216175b8555506128d1565b600084815260208120601f198516915b8281101561296c578785015182556020948501946001909201910161294c565b508482101561298a5786840151600019600387901b60f8161c191681555b50505050600190811b01905550565b808201808211156129ac576129ac612821565b92915050565b8181036129bd575050565b6129c78254612850565b6001600160401b038111156129de576129de612069565b6129ec816128ff8454612850565b6000601f821160018114612a1e5760008315612921575081850154600184901b600019600386901b1c19821617612934565b600085815260209020601f19841690600086815260209020845b83811015612a585782860154825560019586019590910190602001612a38565b5085831015612a765781850154600019600388901b60f8161c191681555b5050505050600190811b01905550565b602080825260119082015270105d58dd1a5bdb881a185cc8195b991959607a1b604082015260600190565b818103818111156129ac576129ac612821565b634e487b7160e01b600052603260045260246000fd5b600082601f830112612aeb57600080fd5b8151612af96120fb826120af565b818152846020838601011115612b0e57600080fd5b6127e982602083016020870161223d565b600080600080600080600080610100898b031215612b3c57600080fd5b88516001600160401b03811115612b5257600080fd5b612b5e8b828c01612ada565b60208b015160408c015160608d015160808e0151939c50919a509850965090506001600160601b031981168114612b9457600080fd5b60a08a015160c08b015191955093506001600160401b03811115612bb757600080fd5b612bc38b828c01612ada565b60e09a909a0151989b979a509598949793969295505050565b8881528760208201528660408201526001600160601b03198616606082015284608082015261010060a08201526000612c19610100830186612261565b60c0830194909452506001600160a01b039190911660e0909101529695505050505050565b60008251612c5081846020870161223d565b9190910192915050565b600060208284031215612c6c57600080fd5b815180151581146123ce57600080fd5b805160208083015191908110156128845760001960209190910360031b1b16919050565b805160208201516001600160601b0319811691906014821015612cdd576001600160601b03196001600160601b03198360140360031b1b82161692505b5050919050565b805160208201516001600160801b0319811691906010821015612cdd576001600160801b031960109290920360031b82901b161692915050565b60008451612d3081846020890161223d565b606085901b6001600160601b0319169083019081528351612d5881601484016020880161223d565b016014019594505050505056fea26469706673582212208120ed109f36b74109e8042e3166a3afe23563e5a0a4ac35c73618c194c3d16764736f6c634300081c0033","linkReferences":{}},"methodIdentifiers":{"ALIGNED_PAYMENT_SERVICE_ADDR()":"c8dc35a9","ALIGNED_SERVICE_MANAGER()":"470df9ec","ELF_COMMITMENT()":"38afd936","auctionCount()":"2ad71573","auctions(uint256)":"571a26a0","auctionsByOwner(address,uint256)":"cfeae748","createAuction(bytes,address,address,uint256,string,string,uint256,uint256)":"0e99a6eb","finalizeAuction(uint256,(address,uint128),bytes)":"e1c92e0a","getAuctionsByOwner(address)":"41177855","getBids(uint256)":"131d9a27","hasDeposited(uint256,address)":"99b1eb2e","onERC721Received(address,address,uint256,bytes)":"150b7a02","placeBid(uint256,bytes)":"864bc0a0","reverse(bytes)":"ec11c823","withdraw(uint256)":"2e1a7d4d"},"id":48}