{"abi":[{"type":"constructor","inputs":[{"name":"_lockToken","type":"address","internalType":"address"}],"stateMutability":"nonpayable"},{"type":"function","name":"auctionCount","inputs":[],"outputs":[{"name":"","type":"uint256","internalType":"uint256"}],"stateMutability":"view"},{"type":"function","name":"auctions","inputs":[{"name":"","type":"uint256","internalType":"uint256"}],"outputs":[{"name":"owner","type":"address","internalType":"address"},{"name":"ownerPublicKey","type":"bytes","internalType":"bytes"},{"name":"asset","type":"tuple","internalType":"struct ZkAuction.Asset","components":[{"name":"name","type":"string","internalType":"string"},{"name":"description","type":"string","internalType":"string"}]},{"name":"item","type":"tuple","internalType":"struct ZkAuction.Item","components":[{"name":"nftContract","type":"address","internalType":"contract IERC721"},{"name":"tokenId","type":"uint256","internalType":"uint256"}]},{"name":"winner","type":"tuple","internalType":"struct ZkAuction.Winner","components":[{"name":"winner","type":"address","internalType":"address"},{"name":"price","type":"uint256","internalType":"uint256"}]},{"name":"depositPrice","type":"uint256","internalType":"uint256"},{"name":"endTime","type":"uint256","internalType":"uint256"},{"name":"ended","type":"bool","internalType":"bool"}],"stateMutability":"view"},{"type":"function","name":"createAuction","inputs":[{"name":"_ownerPublicKey","type":"bytes","internalType":"bytes"},{"name":"_nftContract","type":"address","internalType":"address"},{"name":"_tokenId","type":"uint256","internalType":"uint256"},{"name":"_assetName","type":"string","internalType":"string"},{"name":"_assetDescription","type":"string","internalType":"string"},{"name":"_depositPrice","type":"uint256","internalType":"uint256"},{"name":"_duration","type":"uint256","internalType":"uint256"}],"outputs":[],"stateMutability":"nonpayable"},{"type":"function","name":"getBids","inputs":[{"name":"auctionId","type":"uint256","internalType":"uint256"}],"outputs":[{"name":"","type":"tuple[]","internalType":"struct ZkAuction.Bid[]","components":[{"name":"bidder","type":"address","internalType":"address"},{"name":"encryptedPrice","type":"bytes","internalType":"bytes"}]}],"stateMutability":"view"},{"type":"function","name":"lockToken","inputs":[],"outputs":[{"name":"","type":"address","internalType":"contract IERC20"}],"stateMutability":"view"},{"type":"function","name":"new_bid","inputs":[{"name":"auctionId","type":"uint256","internalType":"uint256"},{"name":"_encryptedPrice","type":"bytes","internalType":"bytes"}],"outputs":[],"stateMutability":"nonpayable"},{"type":"function","name":"revealWinner","inputs":[{"name":"auctionId","type":"uint256","internalType":"uint256"},{"name":"_winner","type":"tuple","internalType":"struct ZkAuction.Winner","components":[{"name":"winner","type":"address","internalType":"address"},{"name":"price","type":"uint256","internalType":"uint256"}]},{"name":"inputHash","type":"bytes32","internalType":"bytes32"},{"name":"proof","type":"bytes","internalType":"bytes"}],"outputs":[],"stateMutability":"nonpayable"},{"type":"function","name":"withdraw","inputs":[{"name":"auctionId","type":"uint256","internalType":"uint256"}],"outputs":[],"stateMutability":"nonpayable"},{"type":"event","name":"AuctionCreated","inputs":[{"name":"auctionId","type":"uint256","indexed":true,"internalType":"uint256"},{"name":"owner","type":"address","indexed":true,"internalType":"address"}],"anonymous":false},{"type":"event","name":"AuctionEnded","inputs":[{"name":"auctionId","type":"uint256","indexed":true,"internalType":"uint256"},{"name":"winner","type":"address","indexed":true,"internalType":"address"},{"name":"price","type":"uint256","indexed":false,"internalType":"uint256"}],"anonymous":false},{"type":"event","name":"NewBid","inputs":[{"name":"auctionId","type":"uint256","indexed":true,"internalType":"uint256"},{"name":"bidder","type":"address","indexed":true,"internalType":"address"},{"name":"encryptedPrice","type":"bytes","indexed":false,"internalType":"bytes"}],"anonymous":false}],"bytecode":{"object":"0x60a060405234801561001057600080fd5b5060405161193038038061193083398101604081905261002f91610040565b6001600160a01b0316608052610070565b60006020828403121561005257600080fd5b81516001600160a01b038116811461006957600080fd5b9392505050565b6080516118826100ae60003960008181610134015281816104000152818161088a0152818161095201528181610b210152610c9e01526118826000f3fe608060405234801561001057600080fd5b50600436106100885760003560e01c8063964341731161005b5780639643417314610109578063a974d28e1461011c578063bca7a9e21461012f578063dc937abc1461016e57600080fd5b8063131d9a271461008d5780632ad71573146100b65780632e1a7d4d146100cd578063571a26a0146100e2575b600080fd5b6100a061009b3660046111f5565b610181565b6040516100ad9190611254565b60405180910390f35b6100bf60015481565b6040519081526020016100ad565b6100e06100db3660046111f5565b610326565b005b6100f56100f03660046111f5565b61047a565b6040516100ad9897969594939291906112d9565b6100e0610117366004611458565b6106ba565b6100e061012a366004611501565b610a2f565b6101567f000000000000000000000000000000000000000000000000000000000000000081565b6040516001600160a01b0390911681526020016100ad565b6100e061017c366004611548565b610d5b565b6000818152602081905260409020600b01546060904210156101e65760405162461bcd60e51b8152602060048201526019602482015278105d58dd1a5bdb881a185cc81b9bdd08195b991959081e595d603a1b60448201526064015b60405180910390fd5b6000828152602081905260409020600c015460ff16156102185760405162461bcd60e51b81526004016101dd9061160d565b60008281526020818152604080832060060180548251818502810185019093528083529193909284015b8282101561031b576000848152602090819020604080518082019091526002850290910180546001600160a01b03168252600181018054929391929184019161028a90611638565b80601f01602080910402602001604051908101604052809291908181526020018280546102b690611638565b80156103035780601f106102d857610100808354040283529160200191610303565b820191906000526020600020905b8154815290600101906020018083116102e657829003601f168201915b50505050508152505081526020019060010190610242565b505050509050919050565b600081815260208181526040808320338452600a81019092529091205460ff1661038a5760405162461bcd60e51b81526020600482015260156024820152744e6f20746f6b656e7320746f20776974686472617760581b60448201526064016101dd565b600c81015460ff166103de5760405162461bcd60e51b815260206004820152601760248201527f546f6b656e7320617265207374696c6c206c6f636b656400000000000000000060448201526064016101dd565b600981015460405163a9059cbb60e01b815233600482015260248101919091527f00000000000000000000000000000000000000000000000000000000000000006001600160a01b03169063a9059cbb906044016020604051808303816000875af1158015610451573d6000803e3d6000fd5b505050506040513d601f19601f820116820180604052508101906104759190611672565b505050565b600060208190529081526040902080546001820180546001600160a01b0390921692916104a690611638565b80601f01602080910402602001604051908101604052809291908181526020018280546104d290611638565b801561051f5780601f106104f45761010080835404028352916020019161051f565b820191906000526020600020905b81548152906001019060200180831161050257829003601f168201915b5050505050908060020160405180604001604052908160008201805461054490611638565b80601f016020809104026020016040519081016040528092919081815260200182805461057090611638565b80156105bd5780601f10610592576101008083540402835291602001916105bd565b820191906000526020600020905b8154815290600101906020018083116105a057829003601f168201915b505050505081526020016001820180546105d690611638565b80601f016020809104026020016040519081016040528092919081815260200182805461060290611638565b801561064f5780601f106106245761010080835404028352916020019161064f565b820191906000526020600020905b81548152906001019060200180831161063257829003601f168201915b50505091909252505060408051808201825260048501546001600160a01b03908116825260058601546020808401919091528351808501909452600787015490911683526008860154908301526009850154600b860154600c90960154949591949293509160ff1688565b6000848152602081905260409020600b01544210156107175760405162461bcd60e51b8152602060048201526019602482015278105d58dd1a5bdb881a185cc81b9bdd08195b991959081e595d603a1b60448201526064016101dd565b6000848152602081905260409020600c015460ff16156107495760405162461bcd60e51b81526004016101dd9061160d565b600084815260208181526040909120600981015491850151909110156107c65760405162461bcd60e51b815260206004820152602c60248201527f57696e6e657220686173206d6f726520626964207072696365207468616e206460448201526b65706f73697420707269636560a01b60648201526084016101dd565b83516007820180546001600160a01b0319166001600160a01b039283169081179091556020860151600884015560048084015460058501546040516323b872dd60e01b81523093810193909352602483019390935260448201929092529116906323b872dd90606401600060405180830381600087803b15801561084957600080fd5b505af115801561085d573d6000803e3d6000fd5b50505050600881015460098201541115610930576007810154600882015460098301546001600160a01b037f000000000000000000000000000000000000000000000000000000000000000081169363a9059cbb939116916108bf91906116b1565b6040516001600160e01b031960e085901b1681526001600160a01b03909216600483015260248201526044016020604051808303816000875af115801561090a573d6000803e3d6000fd5b505050506040513d601f19601f8201168201806040525081019061092e9190611672565b505b600881015460405163a9059cbb60e01b815233600482015260248101919091527f00000000000000000000000000000000000000000000000000000000000000006001600160a01b03169063a9059cbb906044016020604051808303816000875af11580156109a3573d6000803e3d6000fd5b505050506040513d601f19601f820116820180604052508101906109c79190611672565b50600c8101805460ff19166001179055600781015460088201546040516001600160a01b039092169187917fd2aa34a4fdbbc6dff6a3e56f46e0f3ae2a31d7785ff3487aa5c95c642acea50191610a2091815260200190565b60405180910390a35050505050565b6000828152602081905260409020600c81015460ff1615610a625760405162461bcd60e51b81526004016101dd9061160d565b80600b01544210610aab5760405162461bcd60e51b8152602060048201526013602482015272105d58dd1a5bdb881a185cc8195e1c1a5c9959606a1b60448201526064016101dd565b336000908152600a8201602052604090205460ff1615610b015760405162461bcd60e51b8152602060048201526011602482015270105b1c9958591e4819195c1bdcda5d1959607a1b60448201526064016101dd565b6009810154604051636eb1769f60e11b81523360048201523060248201527f00000000000000000000000000000000000000000000000000000000000000006001600160a01b03169063dd62ed3e90604401602060405180830381865afa158015610b70573d6000803e3d6000fd5b505050506040513d601f19601f82011682018060405250810190610b9491906116ca565b14610bf45760405162461bcd60e51b815260206004820152602a60248201527f596f75206e65656420617070726f766520746f6b656e206465706f73697420746044820152691bc818dbdb9d1c9858dd60b21b60648201526084016101dd565b336000818152600a8301602090815260408083208054600160ff1990911681179091558151808301909252938152808201868152600686018054808701825590855292909320815160029093020180546001600160a01b0319166001600160a01b0390931692909217825591519192909190820190610c739082611731565b50505060098101546040516323b872dd60e01b815233600482015230602482015260448101919091527f00000000000000000000000000000000000000000000000000000000000000006001600160a01b0316906323b872dd906064016020604051808303816000875af1158015610cef573d6000803e3d6000fd5b505050506040513d601f19601f82011682018060405250810190610d139190611672565b50336001600160a01b0316837f0aebdeac202f28be37e4f9405aceae67b58f4e341186d0dcb3d4443b306043b784604051610d4e91906117f0565b60405180910390a3505050565b60008211610dbb5760405162461bcd60e51b815260206004820152602760248201527f4465706f736974207072696365206d7573742062652067726561746572207468604482015266616e207a65726f60c81b60648201526084016101dd565b60008111610e165760405162461bcd60e51b815260206004820152602260248201527f4475726174696f6e206d7573742062652067726561746572207468616e207a65604482015261726f60f01b60648201526084016101dd565b6040516331a9108f60e11b815260048101869052869033906001600160a01b03831690636352211e90602401602060405180830381865afa158015610e5f573d6000803e3d6000fd5b505050506040513d601f19601f82011682018060405250810190610e839190611803565b6001600160a01b031614610ee45760405162461bcd60e51b815260206004820152602260248201527f596f75206d757374206f776e20746865204e465420746f2061756374696f6e206044820152611a5d60f21b60648201526084016101dd565b60405163020604bf60e21b81526004810187905230906001600160a01b0383169063081812fc90602401602060405180830381865afa158015610f2b573d6000803e3d6000fd5b505050506040513d601f19601f82011682018060405250810190610f4f9190611803565b6001600160a01b031614610fb15760405162461bcd60e51b8152602060048201526024808201527f596f75206e65656420617070726f766520746865204e465420746f20636f6e746044820152631c9858dd60e21b60648201526084016101dd565b60018054906000610fc183611820565b909155505060018054600090815260208190526040902080546001600160a01b03191633178155908101610ff58a82611731565b506040805180820182526001600160a01b03841680825260209182018a90526004840180546001600160a01b03191690911790556005830189905581518083019092528782528101869052600282018061104f8982611731565b50602082015160018201906110649082611731565b505050600981018490556110788342611839565b600b820155600c8101805460ff191690556040516323b872dd60e01b8152336004820152306024820152604481018890526001600160a01b038316906323b872dd90606401600060405180830381600087803b1580156110d757600080fd5b505af11580156110eb573d6000803e3d6000fd5b50506040516331a9108f60e11b8152600481018a90523092506001600160a01b0385169150636352211e90602401602060405180830381865afa158015611136573d6000803e3d6000fd5b505050506040513d601f19601f8201168201806040525081019061115a9190611803565b6001600160a01b0316146111bb5760405162461bcd60e51b815260206004820152602260248201527f41756374696f6e20636f6e7472616374206d757374206f776e20746865204e466044820152612a1760f11b60648201526084016101dd565b6001546040513391907f5d551e2a2cc977fd8c530317059b4f2d9f504fb82f7dfad736f8d56679bcdfd090600090a3505050505050505050565b60006020828403121561120757600080fd5b5035919050565b6000815180845260005b8181101561123457602081850181015186830182015201611218565b506000602082860101526020601f19601f83011685010191505092915050565b6000602082016020835280845180835260408501915060408160051b86010192506020860160005b828110156112cd57868503603f19018452815180516001600160a01b031686526020908101516040918701829052906112b79087018261120e565b955050602093840193919091019060010161127c565b50929695505050505050565b6001600160a01b0389168152610140602082018190526000906112fe9083018a61120e565b8281036040840152885160408252611319604083018261120e565b905060208a01518282036020840152611332828261120e565b8a516001600160a01b0316606087015260208b01516080870152935061135792505050565b85516001600160a01b031660a0830152602086015160c08301528460e0830152836101008301528215156101208301529998505050505050505050565b634e487b7160e01b600052604160045260246000fd5b6001600160a01b03811681146113bf57600080fd5b50565b600082601f8301126113d357600080fd5b81356020830160008067ffffffffffffffff8411156113f4576113f4611394565b50604051601f19601f85018116603f0116810181811067ffffffffffffffff8211171561142357611423611394565b60405283815290508082840187101561143b57600080fd5b838360208301376000602085830101528094505050505092915050565b60008060008084860360a081121561146f57600080fd5b853594506040601f198201121561148557600080fd5b506040805190810167ffffffffffffffff811182821017156114a9576114a9611394565b60405260208601356114ba816113aa565b815260408601356020820152925060608501359150608085013567ffffffffffffffff8111156114e957600080fd5b6114f5878288016113c2565b91505092959194509250565b6000806040838503121561151457600080fd5b82359150602083013567ffffffffffffffff81111561153257600080fd5b61153e858286016113c2565b9150509250929050565b600080600080600080600060e0888a03121561156357600080fd5b873567ffffffffffffffff81111561157a57600080fd5b6115868a828b016113c2565b9750506020880135611597816113aa565b955060408801359450606088013567ffffffffffffffff8111156115ba57600080fd5b6115c68a828b016113c2565b945050608088013567ffffffffffffffff8111156115e357600080fd5b6115ef8a828b016113c2565b979a969950949793969560a0850135955060c0909401359392505050565b602080825260119082015270105d58dd1a5bdb881a185cc8195b991959607a1b604082015260600190565b600181811c9082168061164c57607f821691505b60208210810361166c57634e487b7160e01b600052602260045260246000fd5b50919050565b60006020828403121561168457600080fd5b8151801515811461169457600080fd5b9392505050565b634e487b7160e01b600052601160045260246000fd5b818103818111156116c4576116c461169b565b92915050565b6000602082840312156116dc57600080fd5b5051919050565b601f82111561047557806000526020600020601f840160051c8101602085101561170a5750805b601f840160051c820191505b8181101561172a5760008155600101611716565b5050505050565b815167ffffffffffffffff81111561174b5761174b611394565b61175f816117598454611638565b846116e3565b6020601f821160018114611793576000831561177b5750848201515b600019600385901b1c1916600184901b17845561172a565b600084815260208120601f198516915b828110156117c357878501518255602094850194600190920191016117a3565b50848210156117e15786840151600019600387901b60f8161c191681555b50505050600190811b01905550565b602081526000611694602083018461120e565b60006020828403121561181557600080fd5b8151611694816113aa565b6000600182016118325761183261169b565b5060010190565b808201808211156116c4576116c461169b56fea26469706673582212207f720c12413143507e4c6acea1793787dce268e3d39f81a9f8f5bb8f519b122664736f6c634300081c0033","linkReferences":{}},"methodIdentifiers":{"auctionCount()":"2ad71573","auctions(uint256)":"571a26a0","createAuction(bytes,address,uint256,string,string,uint256,uint256)":"dc937abc","getBids(uint256)":"131d9a27","lockToken()":"bca7a9e2","new_bid(uint256,bytes)":"a974d28e","revealWinner(uint256,(address,uint256),bytes32,bytes)":"96434173","withdraw(uint256)":"2e1a7d4d"},"id":44}