{"abi":[{"type":"constructor","inputs":[{"name":"_lockToken","type":"address","internalType":"address"}],"stateMutability":"nonpayable"},{"type":"function","name":"ALIGNED_PAYMENT_SERVICE_ADDR","inputs":[],"outputs":[{"name":"","type":"address","internalType":"address"}],"stateMutability":"view"},{"type":"function","name":"ALIGNED_SERVICE_MANAGER","inputs":[],"outputs":[{"name":"","type":"address","internalType":"address"}],"stateMutability":"view"},{"type":"function","name":"ELF_COMMITMENT","inputs":[],"outputs":[{"name":"","type":"bytes32","internalType":"bytes32"}],"stateMutability":"view"},{"type":"function","name":"auctionCount","inputs":[],"outputs":[{"name":"","type":"uint256","internalType":"uint256"}],"stateMutability":"view"},{"type":"function","name":"auctions","inputs":[{"name":"","type":"uint256","internalType":"uint256"}],"outputs":[{"name":"owner","type":"address","internalType":"address"},{"name":"encryptionKey","type":"bytes","internalType":"bytes"},{"name":"asset","type":"tuple","internalType":"struct ZkAuction.Asset","components":[{"name":"name","type":"string","internalType":"string"},{"name":"description","type":"string","internalType":"string"},{"name":"nftContract","type":"address","internalType":"address"},{"name":"tokenId","type":"uint256","internalType":"uint256"}]},{"name":"winner","type":"tuple","internalType":"struct ZkAuction.Winner","components":[{"name":"winner","type":"address","internalType":"address"},{"name":"price","type":"uint256","internalType":"uint256"}]},{"name":"depositPrice","type":"uint256","internalType":"uint256"},{"name":"endTime","type":"uint256","internalType":"uint256"},{"name":"ended","type":"bool","internalType":"bool"}],"stateMutability":"view"},{"type":"function","name":"auctionsByOwner","inputs":[{"name":"","type":"address","internalType":"address"},{"name":"","type":"uint256","internalType":"uint256"}],"outputs":[{"name":"owner","type":"address","internalType":"address"},{"name":"encryptionKey","type":"bytes","internalType":"bytes"},{"name":"asset","type":"tuple","internalType":"struct ZkAuction.Asset","components":[{"name":"name","type":"string","internalType":"string"},{"name":"description","type":"string","internalType":"string"},{"name":"nftContract","type":"address","internalType":"address"},{"name":"tokenId","type":"uint256","internalType":"uint256"}]},{"name":"winner","type":"tuple","internalType":"struct ZkAuction.Winner","components":[{"name":"winner","type":"address","internalType":"address"},{"name":"price","type":"uint256","internalType":"uint256"}]},{"name":"depositPrice","type":"uint256","internalType":"uint256"},{"name":"endTime","type":"uint256","internalType":"uint256"},{"name":"ended","type":"bool","internalType":"bool"}],"stateMutability":"view"},{"type":"function","name":"createAuction","inputs":[{"name":"_encryptionKey","type":"bytes","internalType":"bytes"},{"name":"_nftContract","type":"address","internalType":"address"},{"name":"_tokenId","type":"uint256","internalType":"uint256"},{"name":"_assetName","type":"string","internalType":"string"},{"name":"_assetDescription","type":"string","internalType":"string"},{"name":"_depositPrice","type":"uint256","internalType":"uint256"},{"name":"_duration","type":"uint256","internalType":"uint256"}],"outputs":[],"stateMutability":"nonpayable"},{"type":"function","name":"finalizeAuction","inputs":[{"name":"auctionId","type":"uint256","internalType":"uint256"},{"name":"_winner","type":"tuple","internalType":"struct ZkAuction.Winner","components":[{"name":"winner","type":"address","internalType":"address"},{"name":"price","type":"uint256","internalType":"uint256"}]},{"name":"proof","type":"bytes","internalType":"bytes"}],"outputs":[],"stateMutability":"nonpayable"},{"type":"function","name":"getAuctionsByOwner","inputs":[{"name":"owner","type":"address","internalType":"address"}],"outputs":[{"name":"","type":"tuple[]","internalType":"struct ZkAuction.Auction[]","components":[{"name":"owner","type":"address","internalType":"address"},{"name":"encryptionKey","type":"bytes","internalType":"bytes"},{"name":"asset","type":"tuple","internalType":"struct ZkAuction.Asset","components":[{"name":"name","type":"string","internalType":"string"},{"name":"description","type":"string","internalType":"string"},{"name":"nftContract","type":"address","internalType":"address"},{"name":"tokenId","type":"uint256","internalType":"uint256"}]},{"name":"bids","type":"tuple[]","internalType":"struct ZkAuction.Bid[]","components":[{"name":"bidder","type":"address","internalType":"address"},{"name":"encryptedPrice","type":"bytes","internalType":"bytes"}]},{"name":"winner","type":"tuple","internalType":"struct ZkAuction.Winner","components":[{"name":"winner","type":"address","internalType":"address"},{"name":"price","type":"uint256","internalType":"uint256"}]},{"name":"depositPrice","type":"uint256","internalType":"uint256"},{"name":"endTime","type":"uint256","internalType":"uint256"},{"name":"ended","type":"bool","internalType":"bool"}]}],"stateMutability":"view"},{"type":"function","name":"getBids","inputs":[{"name":"auctionId","type":"uint256","internalType":"uint256"}],"outputs":[{"name":"","type":"tuple[]","internalType":"struct ZkAuction.Bid[]","components":[{"name":"bidder","type":"address","internalType":"address"},{"name":"encryptedPrice","type":"bytes","internalType":"bytes"}]}],"stateMutability":"view"},{"type":"function","name":"hasDeposited","inputs":[{"name":"","type":"uint256","internalType":"uint256"},{"name":"","type":"address","internalType":"address"}],"outputs":[{"name":"","type":"bool","internalType":"bool"}],"stateMutability":"view"},{"type":"function","name":"lockToken","inputs":[],"outputs":[{"name":"","type":"address","internalType":"contract IERC20"}],"stateMutability":"view"},{"type":"function","name":"onERC721Received","inputs":[{"name":"operator","type":"address","internalType":"address"},{"name":"from","type":"address","internalType":"address"},{"name":"tokenId","type":"uint256","internalType":"uint256"},{"name":"data","type":"bytes","internalType":"bytes"}],"outputs":[{"name":"","type":"bytes4","internalType":"bytes4"}],"stateMutability":"pure"},{"type":"function","name":"placeBid","inputs":[{"name":"auctionId","type":"uint256","internalType":"uint256"},{"name":"_encryptedPrice","type":"bytes","internalType":"bytes"}],"outputs":[],"stateMutability":"nonpayable"},{"type":"function","name":"withdraw","inputs":[{"name":"auctionId","type":"uint256","internalType":"uint256"}],"outputs":[],"stateMutability":"nonpayable"},{"type":"event","name":"AuctionCreated","inputs":[{"name":"auctionId","type":"uint256","indexed":true,"internalType":"uint256"},{"name":"owner","type":"address","indexed":true,"internalType":"address"}],"anonymous":false},{"type":"event","name":"AuctionEnded","inputs":[{"name":"auctionId","type":"uint256","indexed":true,"internalType":"uint256"},{"name":"winner","type":"address","indexed":true,"internalType":"address"},{"name":"price","type":"uint256","indexed":false,"internalType":"uint256"}],"anonymous":false},{"type":"event","name":"NewBid","inputs":[{"name":"auctionId","type":"uint256","indexed":true,"internalType":"uint256"},{"name":"bidder","type":"address","indexed":true,"internalType":"address"},{"name":"encryptedPrice","type":"bytes","indexed":false,"internalType":"bytes"}],"anonymous":false},{"type":"error","name":"InvalidElf","inputs":[{"name":"submittedElf","type":"bytes32","internalType":"bytes32"}]},{"type":"error","name":"SafeERC20FailedOperation","inputs":[{"name":"token","type":"address","internalType":"address"}]}],"bytecode":{"object":"0x60a060405234801561001057600080fd5b50604051612a3a380380612a3a83398101604081905261002f91610040565b6001600160a01b0316608052610070565b60006020828403121561005257600080fd5b81516001600160a01b038116811461006957600080fd5b9392505050565b6080516129936100a7600039600081816102900152818161056a01528181610e4401528181610e7e015261106d01526129936000f3fe608060405234801561001057600080fd5b50600436106100f55760003560e01c8063571a26a011610097578063bca7a9e211610066578063bca7a9e21461028b578063c8dc35a9146102b2578063cfeae748146102cd578063dc937abc146102e057600080fd5b8063571a26a0146102015780637ac99ad414610227578063864bc0a01461023a57806399b1eb2e1461024d57600080fd5b80632e1a7d4d116100d35780632e1a7d4d1461017257806338afd9361461018757806341177855146101ae578063470df9ec146101ce57600080fd5b8063131d9a27146100fa578063150b7a02146101235780632ad715731461015b575b600080fd5b61010d610108366004611d75565b6102f3565b60405161011a9190611dde565b60405180910390f35b610142610131366004611e78565b630a85bd0160e11b95945050505050565b6040516001600160e01b0319909116815260200161011a565b61016460005481565b60405190815260200161011a565b610185610180366004611d75565b61049a565b005b6101647fb3a059d3db56b7310f74575a285f591d32d2c32990bf6eff883a71e90c86230a81565b6101c16101bc366004611f17565b610596565b60405161011a919061200e565b6101e97358f280bebe9b34c9939c3c39e0890c81f163b62381565b6040516001600160a01b03909116815260200161011a565b61021461020f366004611d75565b610959565b60405161011a979695949392919061210d565b61018561023536600461224d565b610b95565b6101856102483660046122ea565b610efa565b61027b61025b366004612330565b600360209081526000928352604080842090915290825290205460ff1681565b604051901515815260200161011a565b6101e97f000000000000000000000000000000000000000000000000000000000000000081565b6101e973815aeca64a974297942d2bbf034abee22a38a00381565b6102146102db366004612360565b6110de565b6101856102ee36600461238c565b61112b565b6000818152600160205260409020600a01546060904210156103585760405162461bcd60e51b8152602060048201526019602482015278105d58dd1a5bdb881a185cc81b9bdd08195b991959081e595d603a1b60448201526064015b60405180910390fd5b6000828152600160205260409020600b015460ff161561038a5760405162461bcd60e51b815260040161034f9061244e565b600082815260016020908152604080832060060180548251818502810185019093528083529193909284015b8282101561048f576000848152602090819020604080518082019091526002850290910180546001600160a01b0316825260018101805492939192918401916103fe90612479565b80601f016020809104026020016040519081016040528092919081815260200182805461042a90612479565b80156104775780601f1061044c57610100808354040283529160200191610477565b820191906000526020600020905b81548152906001019060200180831161045a57829003601f168201915b505050505081525050815260200190600101906103b6565b505050509050919050565b6000818152600160209081526040808320600383528184203385529092529091205460ff166105035760405162461bcd60e51b81526020600482015260156024820152744e6f20746f6b656e7320746f20776974686472617760581b604482015260640161034f565b600b81015460ff166105575760405162461bcd60e51b815260206004820152601760248201527f546f6b656e7320617265207374696c6c206c6f636b6564000000000000000000604482015260640161034f565b6009810154610592906001600160a01b037f000000000000000000000000000000000000000000000000000000000000000016903390611629565b5050565b6001600160a01b0381166000908152600260209081526040808320805482518185028101850190935280835260609492939192909184015b8282101561048f576000848152602090819020604080516101008101909152600c850290910180546001600160a01b03168252600181018054929391929184019161061890612479565b80601f016020809104026020016040519081016040528092919081815260200182805461064490612479565b80156106915780601f1061066657610100808354040283529160200191610691565b820191906000526020600020905b81548152906001019060200180831161067457829003601f168201915b50505050508152602001600282016040518060800160405290816000820180546106ba90612479565b80601f01602080910402602001604051908101604052809291908181526020018280546106e690612479565b80156107335780601f1061070857610100808354040283529160200191610733565b820191906000526020600020905b81548152906001019060200180831161071657829003601f168201915b5050505050815260200160018201805461074c90612479565b80601f016020809104026020016040519081016040528092919081815260200182805461077890612479565b80156107c55780601f1061079a576101008083540402835291602001916107c5565b820191906000526020600020905b8154815290600101906020018083116107a857829003601f168201915b505050918352505060028201546001600160a01b031660208083019190915260039092015460409182015291835260068401805483518184028101840190945280845293820193909160009084015b828210156108ed576000848152602090819020604080518082019091526002850290910180546001600160a01b03168252600181018054929391929184019161085c90612479565b80601f016020809104026020016040519081016040528092919081815260200182805461088890612479565b80156108d55780601f106108aa576101008083540402835291602001916108d5565b820191906000526020600020905b8154815290600101906020018083116108b857829003601f168201915b50505050508152505081526020019060010190610814565b5050509082525060408051808201825260078401546001600160a01b03168152600884015460208281019190915280840191909152600984015491830191909152600a8301546060830152600b9092015460ff16151560809091015290825260019290920191016105ce565b6001602081905260009182526040909120805491810180546001600160a01b039093169261098690612479565b80601f01602080910402602001604051908101604052809291908181526020018280546109b290612479565b80156109ff5780601f106109d4576101008083540402835291602001916109ff565b820191906000526020600020905b8154815290600101906020018083116109e257829003601f168201915b50505050509080600201604051806080016040529081600082018054610a2490612479565b80601f0160208091040260200160405190810160405280929190818152602001828054610a5090612479565b8015610a9d5780601f10610a7257610100808354040283529160200191610a9d565b820191906000526020600020905b815481529060010190602001808311610a8057829003601f168201915b50505050508152602001600182018054610ab690612479565b80601f0160208091040260200160405190810160405280929190818152602001828054610ae290612479565b8015610b2f5780601f10610b0457610100808354040283529160200191610b2f565b820191906000526020600020905b815481529060010190602001808311610b1257829003601f168201915b505050918352505060028201546001600160a01b03908116602080840191909152600390930154604092830152815180830190925260078501541681526008840154918101919091526009830154600a840154600b909401549293919290919060ff1687565b600083815260016020526040902080548491906001600160a01b03163314610bf75760405162461bcd60e51b81526020600482015260156024820152742cb7ba9030b932903737ba103a34329037bbb732b960591b604482015260640161034f565b600085815260016020526040902080546001600160a01b03163314610c5e5760405162461bcd60e51b815260206004820152601960248201527f596f75206e656564206f776e6572206f662061756374696f6e00000000000000604482015260640161034f565b6000868152600160205260409020600a0154421015610cbb5760405162461bcd60e51b8152602060048201526019602482015278105d58dd1a5bdb881a185cc81b9bdd08195b991959081e595d603a1b604482015260640161034f565b600b81015460ff1615610ce05760405162461bcd60e51b815260040161034f9061244e565b610ceb85878661168d565b806009015485602001511115610d585760405162461bcd60e51b815260206004820152602c60248201527f57696e6e657220686173206d6f726520626964207072696365207468616e206460448201526b65706f73697420707269636560a01b606482015260840161034f565b84516007820180546001600160a01b0319166001600160a01b0392831690811790915560208701516008840155600b8301805460ff191660011790556004808401546005850154604051632142170760e11b815230938101939093526024830193909352604482019290925291169081906342842e0e90606401600060405180830381600087803b158015610dec57600080fd5b505af1158015610e00573d6000803e3d6000fd5b50505050600882015460098301541115610e6b57600782015460088301546009840154610e6b926001600160a01b031691610e3a916124c9565b6001600160a01b037f0000000000000000000000000000000000000000000000000000000000000000169190611629565b6008820154610ea6906001600160a01b037f000000000000000000000000000000000000000000000000000000000000000016903390611629565b600782015460088301546040519081526001600160a01b039091169088907fd2aa34a4fdbbc6dff6a3e56f46e0f3ae2a31d7785ff3487aa5c95c642acea5019060200160405180910390a350505050505050565b6000828152600160205260409020600b81015460ff1615610f2d5760405162461bcd60e51b815260040161034f9061244e565b80600a01544210610f765760405162461bcd60e51b8152602060048201526013602482015272105d58dd1a5bdb881a185cc8195e1c1a5c9959606a1b604482015260640161034f565b600083815260036020908152604080832033845290915290205460ff1615610fd45760405162461bcd60e51b8152602060048201526011602482015270105b1c9958591e4819195c1bdcda5d1959607a1b604482015260640161034f565b6000838152600360209081526040808320338085529083528184208054600160ff1990911681179091558251808401909352908252818301868152600686018054808401825590865293909420825160029094020180546001600160a01b0319166001600160a01b03909416939093178355925190928201906110579082612530565b5050506009810154611097906001600160a01b037f0000000000000000000000000000000000000000000000000000000000000000169033903090611a0a565b336001600160a01b0316837f0aebdeac202f28be37e4f9405aceae67b58f4e341186d0dcb3d4443b306043b7846040516110d191906125f1565b60405180910390a3505050565b600260205281600052604060002081815481106110fa57600080fd5b60009182526020909120600c9091020180546001820180546001600160a01b03909216945091925061098690612479565b6000821161118b5760405162461bcd60e51b815260206004820152602760248201527f4465706f736974207072696365206d7573742062652067726561746572207468604482015266616e207a65726f60c81b606482015260840161034f565b600081116111e65760405162461bcd60e51b815260206004820152602260248201527f4475726174696f6e206d7573742062652067726561746572207468616e207a65604482015261726f60f01b606482015260840161034f565b6040516331a9108f60e11b815260048101869052869033906001600160a01b03831690636352211e90602401602060405180830381865afa15801561122f573d6000803e3d6000fd5b505050506040513d601f19601f820116820180604052508101906112539190612604565b6001600160a01b0316146112b45760405162461bcd60e51b815260206004820152602260248201527f596f75206d757374206f776e20746865204e465420746f2061756374696f6e206044820152611a5d60f21b606482015260840161034f565b60405163020604bf60e21b81526004810187905230906001600160a01b0383169063081812fc90602401602060405180830381865afa1580156112fb573d6000803e3d6000fd5b505050506040513d601f19601f8201168201806040525081019061131f9190612604565b6001600160a01b0316146113815760405162461bcd60e51b8152602060048201526024808201527f596f75206e65656420617070726f766520746865204e465420746f20636f6e746044820152631c9858dd60e21b606482015260840161034f565b60008054815260016020819052604090912080546001600160a01b031916331781559081016113b08a82612530565b5060408051608081018252878152602081018790526001600160a01b038a16918101919091526060810188905260028201806113ec8982612530565b50602082015160018201906114019082612530565b5060408201516002820180546001600160a01b0319166001600160a01b03909216919091179055606090910151600390910155600981018490556114458342612621565b600a820155600b8101805460ff1916905560008054908061146583612634565b90915550503360009081526002602090815260408220805460018181018355918452919092208354600c9092020180546001600160a01b0319166001600160a01b03929092169190911781558291818101906114c39084018261264d565b506002828101908201806114d7838261264d565b506001818101906114ea9084018261264d565b5060028281015490820180546001600160a01b0319166001600160a01b039092169190911790556003918201549101556006828101805461152e9284019190611c70565b5060078281015490820180546001600160a01b039283166001600160a01b03199091161790556008808401549083015560098084015490830155600a8084015490830155600b9283015492909101805460ff191660ff909316151592909217909155604051632142170760e11b815233600482015230602482015260448101899052908316906342842e0e90606401600060405180830381600087803b1580156115d757600080fd5b505af11580156115eb573d6000803e3d6000fd5b5050600080546040513394509092507f5d551e2a2cc977fd8c530317059b4f2d9f504fb82f7dfad736f8d56679bcdfd09190a3505050505050505050565b6040516001600160a01b0383811660248301526044820183905261168891859182169063a9059cbb906064015b604051602081830303815290604052915060e01b6020820180516001600160e01b038381831617835250505050611a49565b505050565b600080600080600080600080888060200190518101906116ad919061276e565b97509750975097509750975097509750847fb3a059d3db56b7310f74575a285f591d32d2c32990bf6eff883a71e90c86230a60001b146117035760405163636ca83360e11b81526004810186905260240161034f565b606084901c33146117605760405162461bcd60e51b815260206004820152602160248201527f70726f6f6647656e657261746f724164647220646f6573206e6f74206d6174636044820152600d60fb1b606482015260840161034f565b8751602089012086146117ac5760405162461bcd60e51b8152602060048201526014602482015273125b9d985b1a59081c1d589b1a58c81a5b9c1d5d60621b604482015260640161034f565b600080898060200190518101906117c39190612830565b915091508c600001516001600160a01b0316816001600160a01b03161461182c5760405162461bcd60e51b815260206004820152601e60248201527f57696e6e657220696e2070726f6f6620646f6573206e6f74206d617463680000604482015260640161034f565b816118368d611aba565b146118835760405162461bcd60e51b815260206004820152601b60248201527f41756374696f6e206861736820646f6573206e6f74206d617463680000000000604482015260640161034f565b6000807358f280bebe9b34c9939c3c39e0890c81f163b6236001600160a01b03168b8b8b8b8b8b8b73815aeca64a974297942d2bbf034abee22a38a0036040516024016118d7989796959493929190612856565b60408051601f198184030181529181526020820180516001600160e01b03166306045a9160e01b1790525161190c91906128bd565b600060405180830381855afa9150503d8060008114611947576040519150601f19603f3d011682016040523d82523d6000602084013e61194c565b606091505b5091509150816119935760405162461bcd60e51b81526020600482015260126024820152711cdd185d1a58d7d8d85b1b0819985a5b195960721b604482015260640161034f565b6000818060200190518101906119a991906128d9565b9050806119f85760405162461bcd60e51b815260206004820152601b60248201527f70726f6f66206e6f7420696e636c7564656420696e2062617463680000000000604482015260640161034f565b50505050505050505050505050505050565b6040516001600160a01b038481166024830152838116604483015260648201839052611a439186918216906323b872dd90608401611656565b50505050565b600080602060008451602086016000885af180611a6c576040513d6000823e3d81fd5b50506000513d91508115611a84578060011415611a91565b6001600160a01b0384163b155b15611a4357604051635274afe760e01b81526001600160a01b038516600482015260240161034f565b600081815260016020908152604080832060060180548251818502810185019093528083528493849084015b82821015611bbf576000848152602090819020604080518082019091526002850290910180546001600160a01b031682526001810180549293919291840191611b2e90612479565b80601f0160208091040260200160405190810160405280929190818152602001828054611b5a90612479565b8015611ba75780601f10611b7c57610100808354040283529160200191611ba7565b820191906000526020600020905b815481529060010190602001808311611b8a57829003601f168201915b50505050508152505081526020019060010190611ae6565b505050509050600083604051602001611bda91815260200190565b604051602081830303815290604052905060005b8251811015611c605781838281518110611c0a57611c0a6128fb565b602002602001015160000151848381518110611c2857611c286128fb565b602002602001015160200151604051602001611c4693929190612911565b60408051601f198184030181529190529150600101611bee565b5080516020909101209392505050565b828054828255906000526020600020906002028101928215611ce55760005260206000209160020282015b82811115611ce557825482546001600160a01b0319166001600160a01b039091161782558282600180820190611cd39084018261264d565b50505091600201919060020190611c9b565b50611cf1929150611cf5565b5090565b80821115611cf15780546001600160a01b03191681556000611d1a6001830182611d23565b50600201611cf5565b508054611d2f90612479565b6000825580601f10611d3f575050565b601f016020900490600052602060002090810190611d5d9190611d60565b50565b5b80821115611cf15760008155600101611d61565b600060208284031215611d8757600080fd5b5035919050565b60005b83811015611da9578181015183820152602001611d91565b50506000910152565b60008151808452611dca816020860160208601611d8e565b601f01601f19169290920160200192915050565b6000602082016020835280845180835260408501915060408160051b86010192506020860160005b82811015611e5757868503603f19018452815180516001600160a01b03168652602090810151604091870182905290611e4190870182611db2565b9550506020938401939190910190600101611e06565b50929695505050505050565b6001600160a01b0381168114611d5d57600080fd5b600080600080600060808688031215611e9057600080fd5b8535611e9b81611e63565b94506020860135611eab81611e63565b93506040860135925060608601356001600160401b03811115611ecd57600080fd5b8601601f81018813611ede57600080fd5b80356001600160401b03811115611ef457600080fd5b886020828401011115611f0657600080fd5b959894975092955050506020019190565b600060208284031215611f2957600080fd5b8135611f3481611e63565b9392505050565b6000815160808452611f506080850182611db2565b905060208301518482036020860152611f698282611db2565b6040858101516001600160a01b0316908701526060948501519490950193909352509192915050565b600082825180855260208501945060208160051b8301016020850160005b8381101561200257848303601f19018852815180516001600160a01b03168452602090810151604091850182905290611feb90850182611db2565b6020998a0199909450929092019150600101611fb0565b50909695505050505050565b6000602082016020835280845180835260408501915060408160051b86010192506020860160005b82811015611e5757868503603f19018452815180516001600160a01b0316865260208101516101206020880152612071610120880182611db2565b90506040820151878203604089015261208a8282611f3b565b915050606082015187820360608901526120a48282611f92565b91505060808201516120cc608089018280516001600160a01b03168252602090810151910152565b5060a082015160c088015260c082015160e088015260e082015191506120f761010088018315159052565b9550506020938401939190910190600101612036565b6001600160a01b03881681526101006020820181905260009061213290830189611db2565b82810360408401526121448189611f3b565b87516001600160a01b031660608501526020880151608085015291506121679050565b8460a08301528360c083015282151560e083015298975050505050505050565b634e487b7160e01b600052604160045260246000fd5b604051601f8201601f191681016001600160401b03811182821017156121c5576121c5612187565b604052919050565b60006001600160401b038211156121e6576121e6612187565b50601f01601f191660200190565b600082601f83011261220557600080fd5b813560208301600061221e612219846121cd565b61219d565b905082815285838301111561223257600080fd5b82826020830137600092810160200192909252509392505050565b6000806000838503608081121561226357600080fd5b843593506040601f198201121561227957600080fd5b50604080519081016001600160401b038111828210171561229c5761229c612187565b60405260208501356122ad81611e63565b815260408501356020820152915060608401356001600160401b038111156122d457600080fd5b6122e0868287016121f4565b9150509250925092565b600080604083850312156122fd57600080fd5b8235915060208301356001600160401b0381111561231a57600080fd5b612326858286016121f4565b9150509250929050565b6000806040838503121561234357600080fd5b82359150602083013561235581611e63565b809150509250929050565b6000806040838503121561237357600080fd5b823561237e81611e63565b946020939093013593505050565b600080600080600080600060e0888a0312156123a757600080fd5b87356001600160401b038111156123bd57600080fd5b6123c98a828b016121f4565b97505060208801356123da81611e63565b95506040880135945060608801356001600160401b038111156123fc57600080fd5b6124088a828b016121f4565b94505060808801356001600160401b0381111561242457600080fd5b6124308a828b016121f4565b979a969950949793969560a0850135955060c0909401359392505050565b602080825260119082015270105d58dd1a5bdb881a185cc8195b991959607a1b604082015260600190565b600181811c9082168061248d57607f821691505b6020821081036124ad57634e487b7160e01b600052602260045260246000fd5b50919050565b634e487b7160e01b600052601160045260246000fd5b818103818111156124dc576124dc6124b3565b92915050565b601f82111561168857806000526020600020601f840160051c810160208510156125095750805b601f840160051c820191505b818110156125295760008155600101612515565b5050505050565b81516001600160401b0381111561254957612549612187565b61255d816125578454612479565b846124e2565b6020601f82116001811461259457600083156125795750848201515b600184901b600019600386901b1c198216175b855550612529565b600084815260208120601f198516915b828110156125c457878501518255602094850194600190920191016125a4565b50848210156125e25786840151600019600387901b60f8161c191681555b50505050600190811b01905550565b602081526000611f346020830184611db2565b60006020828403121561261657600080fd5b8151611f3481611e63565b808201808211156124dc576124dc6124b3565b600060018201612646576126466124b3565b5060010190565b818103612658575050565b6126628254612479565b6001600160401b0381111561267957612679612187565b612687816125578454612479565b6000601f8211600181146126b95760008315612579575081850154600184901b600019600386901b1c1982161761258c565b600085815260209020601f19841690600086815260209020845b838110156126f357828601548255600195860195909101906020016126d3565b50858310156127115781850154600019600388901b60f8161c191681555b5050505050600190811b01905550565b600082601f83011261273257600080fd5b8151612740612219826121cd565b81815284602083860101111561275557600080fd5b612766826020830160208701611d8e565b949350505050565b600080600080600080600080610100898b03121561278b57600080fd5b88516001600160401b038111156127a157600080fd5b6127ad8b828c01612721565b60208b015160408c015160608d015160808e0151939c50919a509850965090506bffffffffffffffffffffffff19811681146127e857600080fd5b60a08a015160c08b015191955093506001600160401b0381111561280b57600080fd5b6128178b828c01612721565b60e09a909a0151989b979a509598949793969295505050565b6000806040838503121561284357600080fd5b8251602084015190925061235581611e63565b8881528760208201528660408201526bffffffffffffffffffffffff198616606082015284608082015261010060a08201526000612898610100830186611db2565b60c0830194909452506001600160a01b039190911660e0909101529695505050505050565b600082516128cf818460208701611d8e565b9190910192915050565b6000602082840312156128eb57600080fd5b81518015158114611f3457600080fd5b634e487b7160e01b600052603260045260246000fd5b60008451612923818460208901611d8e565b606085901b6bffffffffffffffffffffffff19169083019081528351612950816014840160208801611d8e565b016014019594505050505056fea2646970667358221220b4b47c64c26ae0bbf67eedcd0a532dbd87208d39fe456db3a81531d4bc894fdb64736f6c634300081c0033","linkReferences":{}},"methodIdentifiers":{"ALIGNED_PAYMENT_SERVICE_ADDR()":"c8dc35a9","ALIGNED_SERVICE_MANAGER()":"470df9ec","ELF_COMMITMENT()":"38afd936","auctionCount()":"2ad71573","auctions(uint256)":"571a26a0","auctionsByOwner(address,uint256)":"cfeae748","createAuction(bytes,address,uint256,string,string,uint256,uint256)":"dc937abc","finalizeAuction(uint256,(address,uint256),bytes)":"7ac99ad4","getAuctionsByOwner(address)":"41177855","getBids(uint256)":"131d9a27","hasDeposited(uint256,address)":"99b1eb2e","lockToken()":"bca7a9e2","onERC721Received(address,address,uint256,bytes)":"150b7a02","placeBid(uint256,bytes)":"864bc0a0","withdraw(uint256)":"2e1a7d4d"},"id":48}