{"abi":[{"type":"constructor","inputs":[{"name":"_lockToken","type":"address","internalType":"address"}],"stateMutability":"nonpayable"},{"type":"function","name":"ALIGNED_PAYMENT_SERVICE_ADDR","inputs":[],"outputs":[{"name":"","type":"address","internalType":"address"}],"stateMutability":"view"},{"type":"function","name":"ALIGNED_SERVICE_MANAGER","inputs":[],"outputs":[{"name":"","type":"address","internalType":"address"}],"stateMutability":"view"},{"type":"function","name":"ELF_COMMITMENT","inputs":[],"outputs":[{"name":"","type":"bytes32","internalType":"bytes32"}],"stateMutability":"view"},{"type":"function","name":"auctionCount","inputs":[],"outputs":[{"name":"","type":"uint256","internalType":"uint256"}],"stateMutability":"view"},{"type":"function","name":"auctions","inputs":[{"name":"","type":"uint256","internalType":"uint256"}],"outputs":[{"name":"owner","type":"address","internalType":"address"},{"name":"encryptionKey","type":"bytes","internalType":"bytes"},{"name":"asset","type":"tuple","internalType":"struct ZkAuction.Asset","components":[{"name":"name","type":"string","internalType":"string"},{"name":"description","type":"string","internalType":"string"},{"name":"nftContract","type":"address","internalType":"address"},{"name":"tokenId","type":"uint256","internalType":"uint256"}]},{"name":"winner","type":"tuple","internalType":"struct ZkAuction.Winner","components":[{"name":"winner","type":"address","internalType":"address"},{"name":"price","type":"uint128","internalType":"uint128"}]},{"name":"depositPrice","type":"uint256","internalType":"uint256"},{"name":"endTime","type":"uint256","internalType":"uint256"},{"name":"ended","type":"bool","internalType":"bool"}],"stateMutability":"view"},{"type":"function","name":"auctionsByOwner","inputs":[{"name":"","type":"address","internalType":"address"},{"name":"","type":"uint256","internalType":"uint256"}],"outputs":[{"name":"owner","type":"address","internalType":"address"},{"name":"encryptionKey","type":"bytes","internalType":"bytes"},{"name":"asset","type":"tuple","internalType":"struct ZkAuction.Asset","components":[{"name":"name","type":"string","internalType":"string"},{"name":"description","type":"string","internalType":"string"},{"name":"nftContract","type":"address","internalType":"address"},{"name":"tokenId","type":"uint256","internalType":"uint256"}]},{"name":"winner","type":"tuple","internalType":"struct ZkAuction.Winner","components":[{"name":"winner","type":"address","internalType":"address"},{"name":"price","type":"uint128","internalType":"uint128"}]},{"name":"depositPrice","type":"uint256","internalType":"uint256"},{"name":"endTime","type":"uint256","internalType":"uint256"},{"name":"ended","type":"bool","internalType":"bool"}],"stateMutability":"view"},{"type":"function","name":"createAuction","inputs":[{"name":"_encryptionKey","type":"bytes","internalType":"bytes"},{"name":"_nftContract","type":"address","internalType":"address"},{"name":"_tokenId","type":"uint256","internalType":"uint256"},{"name":"_assetName","type":"string","internalType":"string"},{"name":"_assetDescription","type":"string","internalType":"string"},{"name":"_depositPrice","type":"uint256","internalType":"uint256"},{"name":"_duration","type":"uint256","internalType":"uint256"}],"outputs":[],"stateMutability":"nonpayable"},{"type":"function","name":"finalizeAuction","inputs":[{"name":"auctionId","type":"uint256","internalType":"uint256"},{"name":"_winner","type":"tuple","internalType":"struct ZkAuction.Winner","components":[{"name":"winner","type":"address","internalType":"address"},{"name":"price","type":"uint128","internalType":"uint128"}]},{"name":"proof","type":"bytes","internalType":"bytes"}],"outputs":[],"stateMutability":"nonpayable"},{"type":"function","name":"getAuctionsByOwner","inputs":[{"name":"owner","type":"address","internalType":"address"}],"outputs":[{"name":"","type":"tuple[]","internalType":"struct ZkAuction.Auction[]","components":[{"name":"owner","type":"address","internalType":"address"},{"name":"encryptionKey","type":"bytes","internalType":"bytes"},{"name":"asset","type":"tuple","internalType":"struct ZkAuction.Asset","components":[{"name":"name","type":"string","internalType":"string"},{"name":"description","type":"string","internalType":"string"},{"name":"nftContract","type":"address","internalType":"address"},{"name":"tokenId","type":"uint256","internalType":"uint256"}]},{"name":"bids","type":"tuple[]","internalType":"struct ZkAuction.Bid[]","components":[{"name":"bidder","type":"address","internalType":"address"},{"name":"encryptedPrice","type":"bytes","internalType":"bytes"}]},{"name":"winner","type":"tuple","internalType":"struct ZkAuction.Winner","components":[{"name":"winner","type":"address","internalType":"address"},{"name":"price","type":"uint128","internalType":"uint128"}]},{"name":"depositPrice","type":"uint256","internalType":"uint256"},{"name":"endTime","type":"uint256","internalType":"uint256"},{"name":"ended","type":"bool","internalType":"bool"}]}],"stateMutability":"view"},{"type":"function","name":"getBids","inputs":[{"name":"auctionId","type":"uint256","internalType":"uint256"}],"outputs":[{"name":"","type":"tuple[]","internalType":"struct ZkAuction.Bid[]","components":[{"name":"bidder","type":"address","internalType":"address"},{"name":"encryptedPrice","type":"bytes","internalType":"bytes"}]}],"stateMutability":"view"},{"type":"function","name":"hasDeposited","inputs":[{"name":"","type":"uint256","internalType":"uint256"},{"name":"","type":"address","internalType":"address"}],"outputs":[{"name":"","type":"bool","internalType":"bool"}],"stateMutability":"view"},{"type":"function","name":"lockToken","inputs":[],"outputs":[{"name":"","type":"address","internalType":"contract IERC20"}],"stateMutability":"view"},{"type":"function","name":"onERC721Received","inputs":[{"name":"operator","type":"address","internalType":"address"},{"name":"from","type":"address","internalType":"address"},{"name":"tokenId","type":"uint256","internalType":"uint256"},{"name":"data","type":"bytes","internalType":"bytes"}],"outputs":[{"name":"","type":"bytes4","internalType":"bytes4"}],"stateMutability":"pure"},{"type":"function","name":"placeBid","inputs":[{"name":"auctionId","type":"uint256","internalType":"uint256"},{"name":"_encryptedPrice","type":"bytes","internalType":"bytes"}],"outputs":[],"stateMutability":"nonpayable"},{"type":"function","name":"withdraw","inputs":[{"name":"auctionId","type":"uint256","internalType":"uint256"}],"outputs":[],"stateMutability":"nonpayable"},{"type":"event","name":"AuctionCreated","inputs":[{"name":"auctionId","type":"uint256","indexed":true,"internalType":"uint256"},{"name":"owner","type":"address","indexed":true,"internalType":"address"}],"anonymous":false},{"type":"event","name":"AuctionEnded","inputs":[{"name":"auctionId","type":"uint256","indexed":true,"internalType":"uint256"},{"name":"winner","type":"address","indexed":true,"internalType":"address"},{"name":"price","type":"uint128","indexed":false,"internalType":"uint128"}],"anonymous":false},{"type":"event","name":"NewBid","inputs":[{"name":"auctionId","type":"uint256","indexed":true,"internalType":"uint256"},{"name":"bidder","type":"address","indexed":true,"internalType":"address"},{"name":"encryptedPrice","type":"bytes","indexed":false,"internalType":"bytes"}],"anonymous":false},{"type":"error","name":"InvalidElf","inputs":[{"name":"submittedElf","type":"bytes32","internalType":"bytes32"}]},{"type":"error","name":"SafeERC20FailedOperation","inputs":[{"name":"token","type":"address","internalType":"address"}]}],"bytecode":{"object":"0x60a060405234801561001057600080fd5b50604051612b6f380380612b6f83398101604081905261002f91610040565b6001600160a01b0316608052610070565b60006020828403121561005257600080fd5b81516001600160a01b038116811461006957600080fd5b9392505050565b608051612ac86100a76000396000818161027d0152818161056a01528181610d1a015281816115dd01526116170152612ac86000f3fe608060405234801561001057600080fd5b50600436106100f55760003560e01c8063571a26a011610097578063c8dc35a911610066578063c8dc35a91461029f578063cfeae748146102ba578063dc937abc146102cd578063e1c92e0a146102e057600080fd5b8063571a26a014610201578063864bc0a01461022757806399b1eb2e1461023a578063bca7a9e21461027857600080fd5b80632e1a7d4d116100d35780632e1a7d4d1461017257806338afd9361461018757806341177855146101ae578063470df9ec146101ce57600080fd5b8063131d9a27146100fa578063150b7a02146101235780632ad715731461015b575b600080fd5b61010d610108366004611e5c565b6102f3565b60405161011a9190611ec5565b60405180910390f35b610142610131366004611f5f565b630a85bd0160e11b95945050505050565b6040516001600160e01b0319909116815260200161011a565b61016460005481565b60405190815260200161011a565b610185610180366004611e5c565b61049a565b005b6101647fb3a059d3db56b7310f74575a285f591d32d2c32990bf6eff883a71e90c86230a81565b6101c16101bc366004611ffe565b610596565b60405161011a91906120f5565b6101e97358f280bebe9b34c9939c3c39e0890c81f163b62381565b6040516001600160a01b03909116815260200161011a565b61021461020f366004611e5c565b610962565b60405161011a97969594939291906121fd565b610185610235366004612346565b610ba7565b61026861024836600461238c565b600360209081526000928352604080842090915290825290205460ff1681565b604051901515815260200161011a565b6101e97f000000000000000000000000000000000000000000000000000000000000000081565b6101e973815aeca64a974297942d2bbf034abee22a38a00381565b6102146102c83660046123bc565b610d8b565b6101856102db3660046123e8565b610dd8565b6101856102ee3660046124bf565b6112f2565b6000818152600160205260409020600a01546060904210156103585760405162461bcd60e51b8152602060048201526019602482015278105d58dd1a5bdb881a185cc81b9bdd08195b991959081e595d603a1b60448201526064015b60405180910390fd5b6000828152600160205260409020600b015460ff161561038a5760405162461bcd60e51b815260040161034f90612565565b600082815260016020908152604080832060060180548251818502810185019093528083529193909284015b8282101561048f576000848152602090819020604080518082019091526002850290910180546001600160a01b0316825260018101805492939192918401916103fe90612590565b80601f016020809104026020016040519081016040528092919081815260200182805461042a90612590565b80156104775780601f1061044c57610100808354040283529160200191610477565b820191906000526020600020905b81548152906001019060200180831161045a57829003601f168201915b505050505081525050815260200190600101906103b6565b505050509050919050565b6000818152600160209081526040808320600383528184203385529092529091205460ff166105035760405162461bcd60e51b81526020600482015260156024820152744e6f20746f6b656e7320746f20776974686472617760581b604482015260640161034f565b600b81015460ff166105575760405162461bcd60e51b815260206004820152601760248201527f546f6b656e7320617265207374696c6c206c6f636b6564000000000000000000604482015260640161034f565b6009810154610592906001600160a01b037f0000000000000000000000000000000000000000000000000000000000000000169033906116a6565b5050565b6001600160a01b0381166000908152600260209081526040808320805482518185028101850190935280835260609492939192909184015b8282101561048f576000848152602090819020604080516101008101909152600c850290910180546001600160a01b03168252600181018054929391929184019161061890612590565b80601f016020809104026020016040519081016040528092919081815260200182805461064490612590565b80156106915780601f1061066657610100808354040283529160200191610691565b820191906000526020600020905b81548152906001019060200180831161067457829003601f168201915b50505050508152602001600282016040518060800160405290816000820180546106ba90612590565b80601f01602080910402602001604051908101604052809291908181526020018280546106e690612590565b80156107335780601f1061070857610100808354040283529160200191610733565b820191906000526020600020905b81548152906001019060200180831161071657829003601f168201915b5050505050815260200160018201805461074c90612590565b80601f016020809104026020016040519081016040528092919081815260200182805461077890612590565b80156107c55780601f1061079a576101008083540402835291602001916107c5565b820191906000526020600020905b8154815290600101906020018083116107a857829003601f168201915b505050918352505060028201546001600160a01b031660208083019190915260039092015460409182015291835260068401805483518184028101840190945280845293820193909160009084015b828210156108ed576000848152602090819020604080518082019091526002850290910180546001600160a01b03168252600181018054929391929184019161085c90612590565b80601f016020809104026020016040519081016040528092919081815260200182805461088890612590565b80156108d55780601f106108aa576101008083540402835291602001916108d5565b820191906000526020600020905b8154815290600101906020018083116108b857829003601f168201915b50505050508152505081526020019060010190610814565b5050509082525060408051808201825260078401546001600160a01b0316815260088401546001600160801b031660208281019190915280840191909152600984015491830191909152600a8301546060830152600b9092015460ff16151560809091015290825260019290920191016105ce565b6001602081905260009182526040909120805491810180546001600160a01b039093169261098f90612590565b80601f01602080910402602001604051908101604052809291908181526020018280546109bb90612590565b8015610a085780601f106109dd57610100808354040283529160200191610a08565b820191906000526020600020905b8154815290600101906020018083116109eb57829003601f168201915b50505050509080600201604051806080016040529081600082018054610a2d90612590565b80601f0160208091040260200160405190810160405280929190818152602001828054610a5990612590565b8015610aa65780601f10610a7b57610100808354040283529160200191610aa6565b820191906000526020600020905b815481529060010190602001808311610a8957829003601f168201915b50505050508152602001600182018054610abf90612590565b80601f0160208091040260200160405190810160405280929190818152602001828054610aeb90612590565b8015610b385780601f10610b0d57610100808354040283529160200191610b38565b820191906000526020600020905b815481529060010190602001808311610b1b57829003601f168201915b505050918352505060028201546001600160a01b039081166020808401919091526003909301546040928301528151808301909252600785015416815260088401546001600160801b0316918101919091526009830154600a840154600b909401549293919290919060ff1687565b6000828152600160205260409020600b81015460ff1615610bda5760405162461bcd60e51b815260040161034f90612565565b80600a01544210610c235760405162461bcd60e51b8152602060048201526013602482015272105d58dd1a5bdb881a185cc8195e1c1a5c9959606a1b604482015260640161034f565b600083815260036020908152604080832033845290915290205460ff1615610c815760405162461bcd60e51b8152602060048201526011602482015270105b1c9958591e4819195c1bdcda5d1959607a1b604482015260640161034f565b6000838152600360209081526040808320338085529083528184208054600160ff1990911681179091558251808401909352908252818301868152600686018054808401825590865293909420825160029094020180546001600160a01b0319166001600160a01b0390941693909317835592519092820190610d049082612618565b5050506009810154610d44906001600160a01b037f000000000000000000000000000000000000000000000000000000000000000016903390309061170a565b336001600160a01b0316837f0aebdeac202f28be37e4f9405aceae67b58f4e341186d0dcb3d4443b306043b784604051610d7e91906126d9565b60405180910390a3505050565b60026020528160005260406000208181548110610da757600080fd5b60009182526020909120600c9091020180546001820180546001600160a01b03909216945091925061098f90612590565b60008211610e385760405162461bcd60e51b815260206004820152602760248201527f4465706f736974207072696365206d7573742062652067726561746572207468604482015266616e207a65726f60c81b606482015260840161034f565b60008111610e935760405162461bcd60e51b815260206004820152602260248201527f4475726174696f6e206d7573742062652067726561746572207468616e207a65604482015261726f60f01b606482015260840161034f565b6040516331a9108f60e11b815260048101869052869033906001600160a01b03831690636352211e90602401602060405180830381865afa158015610edc573d6000803e3d6000fd5b505050506040513d601f19601f82011682018060405250810190610f0091906126ec565b6001600160a01b031614610f615760405162461bcd60e51b815260206004820152602260248201527f596f75206d757374206f776e20746865204e465420746f2061756374696f6e206044820152611a5d60f21b606482015260840161034f565b60405163020604bf60e21b81526004810187905230906001600160a01b0383169063081812fc90602401602060405180830381865afa158015610fa8573d6000803e3d6000fd5b505050506040513d601f19601f82011682018060405250810190610fcc91906126ec565b6001600160a01b03161461102e5760405162461bcd60e51b8152602060048201526024808201527f596f75206e65656420617070726f766520746865204e465420746f20636f6e746044820152631c9858dd60e21b606482015260840161034f565b60008054908061103d8361271f565b909155505060008054815260016020819052604090912080546001600160a01b031916331781559081016110718a82612618565b5060408051608081018252878152602081018790526001600160a01b038a16918101919091526060810188905260028201806110ad8982612618565b50602082015160018201906110c29082612618565b5060408201516002820180546001600160a01b0319166001600160a01b03909216919091179055606090910151600390910155600981018490556111068342612738565b600a820155600b8101805460ff191690553360009081526002602090815260408220805460018181018355918452919092208354600c9092020180546001600160a01b0319166001600160a01b039290921691909117815582918181019061117090840182612751565b506002828101908201806111848382612751565b5060018181019061119790840182612751565b5060028281015490820180546001600160a01b0319166001600160a01b03909216919091179055600391820154910155600682810180546111db9284019190611d57565b5060078281015490820180546001600160a01b0319166001600160a01b0392831617905560088084015490830180546001600160801b0319166001600160801b0390921691909117905560098084015490830155600a8084015490830155600b9283015492909101805460ff909316151560ff1990931692909217909155604051632142170760e11b815233600482015230602482015260448101899052908316906342842e0e90606401600060405180830381600087803b1580156112a057600080fd5b505af11580156112b4573d6000803e3d6000fd5b5050600080546040513394509092507f5d551e2a2cc977fd8c530317059b4f2d9f504fb82f7dfad736f8d56679bcdfd09190a3505050505050505050565b600083815260016020526040902080548491906001600160a01b031633146113545760405162461bcd60e51b81526020600482015260156024820152742cb7ba9030b932903737ba103a34329037bbb732b960591b604482015260640161034f565b600085815260016020526040902080546001600160a01b031633146113bb5760405162461bcd60e51b815260206004820152601960248201527f596f75206e656564206f776e6572206f662061756374696f6e00000000000000604482015260640161034f565b6000868152600160205260409020600a01544210156114185760405162461bcd60e51b8152602060048201526019602482015278105d58dd1a5bdb881a185cc81b9bdd08195b991959081e595d603a1b604482015260640161034f565b600b81015460ff161561143d5760405162461bcd60e51b815260040161034f90612565565b611448858786611749565b806009015485602001516001600160801b031611156114be5760405162461bcd60e51b815260206004820152602c60248201527f57696e6e657220686173206d6f726520626964207072696365207468616e206460448201526b65706f73697420707269636560a01b606482015260840161034f565b84516007820180546001600160a01b0319166001600160a01b0392831690811790915560208701516008840180546001600160801b0319166001600160801b03909216919091179055600b8301805460ff191660011790556004808401546005850154604051632142170760e11b815230938101939093526024830193909352604482019290925291169081906342842e0e90606401600060405180830381600087803b15801561156e57600080fd5b505af1158015611582573d6000803e3d6000fd5b50505050600882015460098301546001600160801b03909116101561160457600782015460088301546009840154611604926001600160a01b0316916115d3916001600160801b0390911690612825565b6001600160a01b037f00000000000000000000000000000000000000000000000000000000000000001691906116a6565b6008820154611648906001600160a01b037f0000000000000000000000000000000000000000000000000000000000000000169033906001600160801b03166116a6565b600782015460088301546040516001600160801b0390911681526001600160a01b039091169088907fcea9b5625991aa873d047c1eeaa9a77558ac53784c52b0647767e11e97c7a8849060200160405180910390a350505050505050565b6040516001600160a01b0383811660248301526044820183905261170591859182169063a9059cbb906064015b604051602081830303815290604052915060e01b6020820180516001600160e01b038381831617835250505050611b30565b505050565b6040516001600160a01b0384811660248301528381166044830152606482018390526117439186918216906323b872dd906084016116d3565b50505050565b600080600080600080600080888060200190518101906117699190612885565b97509750975097509750975097509750847fb3a059d3db56b7310f74575a285f591d32d2c32990bf6eff883a71e90c86230a60001b146117bf5760405163636ca83360e11b81526004810186905260240161034f565b606084901c331461181c5760405162461bcd60e51b815260206004820152602160248201527f70726f6f6647656e657261746f724164647220646f6573206e6f74206d6174636044820152600d60fb1b606482015260840161034f565b8751602089012086146118685760405162461bcd60e51b8152602060048201526014602482015273125b9d985b1a59081c1d589b1a58c81a5b9c1d5d60621b604482015260640161034f565b60008060008a8060200190518101906118819190612947565b9250925092508d600001516001600160a01b0316826001600160a01b0316146118ec5760405162461bcd60e51b815260206004820152601e60248201527f57696e6e657220696e2070726f6f6620646f6573206e6f74206d617463680000604482015260640161034f565b8d602001516001600160801b0316816001600160801b0316146119515760405162461bcd60e51b815260206004820152601e60248201527f57696e6e657220696e2070726f6f6620646f6573206e6f74206d617463680000604482015260640161034f565b8261195b8e611ba1565b146119a85760405162461bcd60e51b815260206004820152601b60248201527f41756374696f6e206861736820646f6573206e6f74206d617463680000000000604482015260640161034f565b6000807358f280bebe9b34c9939c3c39e0890c81f163b6236001600160a01b03168c8c8c8c8c8c8c73815aeca64a974297942d2bbf034abee22a38a0036040516024016119fc98979695949392919061298b565b60408051601f198184030181529181526020820180516001600160e01b03166306045a9160e01b17905251611a3191906129f2565b600060405180830381855afa9150503d8060008114611a6c576040519150601f19603f3d011682016040523d82523d6000602084013e611a71565b606091505b509150915081611ab85760405162461bcd60e51b81526020600482015260126024820152711cdd185d1a58d7d8d85b1b0819985a5b195960721b604482015260640161034f565b600081806020019051810190611ace9190612a0e565b905080611b1d5760405162461bcd60e51b815260206004820152601b60248201527f70726f6f66206e6f7420696e636c7564656420696e2062617463680000000000604482015260640161034f565b5050505050505050505050505050505050565b600080602060008451602086016000885af180611b53576040513d6000823e3d81fd5b50506000513d91508115611b6b578060011415611b78565b6001600160a01b0384163b155b1561174357604051635274afe760e01b81526001600160a01b038516600482015260240161034f565b600081815260016020908152604080832060060180548251818502810185019093528083528493849084015b82821015611ca6576000848152602090819020604080518082019091526002850290910180546001600160a01b031682526001810180549293919291840191611c1590612590565b80601f0160208091040260200160405190810160405280929190818152602001828054611c4190612590565b8015611c8e5780601f10611c6357610100808354040283529160200191611c8e565b820191906000526020600020905b815481529060010190602001808311611c7157829003601f168201915b50505050508152505081526020019060010190611bcd565b505050509050600083604051602001611cc191815260200190565b604051602081830303815290604052905060005b8251811015611d475781838281518110611cf157611cf1612a30565b602002602001015160000151848381518110611d0f57611d0f612a30565b602002602001015160200151604051602001611d2d93929190612a46565b60408051601f198184030181529190529150600101611cd5565b5080516020909101209392505050565b828054828255906000526020600020906002028101928215611dcc5760005260206000209160020282015b82811115611dcc57825482546001600160a01b0319166001600160a01b039091161782558282600180820190611dba90840182612751565b50505091600201919060020190611d82565b50611dd8929150611ddc565b5090565b80821115611dd85780546001600160a01b03191681556000611e016001830182611e0a565b50600201611ddc565b508054611e1690612590565b6000825580601f10611e26575050565b601f016020900490600052602060002090810190611e449190611e47565b50565b5b80821115611dd85760008155600101611e48565b600060208284031215611e6e57600080fd5b5035919050565b60005b83811015611e90578181015183820152602001611e78565b50506000910152565b60008151808452611eb1816020860160208601611e75565b601f01601f19169290920160200192915050565b6000602082016020835280845180835260408501915060408160051b86010192506020860160005b82811015611f3e57868503603f19018452815180516001600160a01b03168652602090810151604091870182905290611f2890870182611e99565b9550506020938401939190910190600101611eed565b50929695505050505050565b6001600160a01b0381168114611e4457600080fd5b600080600080600060808688031215611f7757600080fd5b8535611f8281611f4a565b94506020860135611f9281611f4a565b93506040860135925060608601356001600160401b03811115611fb457600080fd5b8601601f81018813611fc557600080fd5b80356001600160401b03811115611fdb57600080fd5b886020828401011115611fed57600080fd5b959894975092955050506020019190565b60006020828403121561201057600080fd5b813561201b81611f4a565b9392505050565b60008151608084526120376080850182611e99565b9050602083015184820360208601526120508282611e99565b6040858101516001600160a01b0316908701526060948501519490950193909352509192915050565b600082825180855260208501945060208160051b8301016020850160005b838110156120e957848303601f19018852815180516001600160a01b031684526020908101516040918501829052906120d290850182611e99565b6020998a0199909450929092019150600101612097565b50909695505050505050565b6000602082016020835280845180835260408501915060408160051b86010192506020860160005b82811015611f3e57868503603f19018452815180516001600160a01b0316865260208101516101206020880152612158610120880182611e99565b9050604082015187820360408901526121718282612022565b9150506060820151878203606089015261218b8282612079565b91505060808201516121bc608089018280516001600160a01b031682526020908101516001600160801b0316910152565b5060a082015160c088015260c082015160e088015260e082015191506121e761010088018315159052565b955050602093840193919091019060010161211d565b6001600160a01b03881681526101006020820181905260009061222290830189611e99565b82810360408401526122348189612022565b87516001600160a01b0316606085015260208801516001600160801b0316608085015291506122609050565b8460a08301528360c083015282151560e083015298975050505050505050565b634e487b7160e01b600052604160045260246000fd5b604051601f8201601f191681016001600160401b03811182821017156122be576122be612280565b604052919050565b60006001600160401b038211156122df576122df612280565b50601f01601f191660200190565b600082601f8301126122fe57600080fd5b8135602083016000612317612312846122c6565b612296565b905082815285838301111561232b57600080fd5b82826020830137600092810160200192909252509392505050565b6000806040838503121561235957600080fd5b8235915060208301356001600160401b0381111561237657600080fd5b612382858286016122ed565b9150509250929050565b6000806040838503121561239f57600080fd5b8235915060208301356123b181611f4a565b809150509250929050565b600080604083850312156123cf57600080fd5b82356123da81611f4a565b946020939093013593505050565b600080600080600080600060e0888a03121561240357600080fd5b87356001600160401b0381111561241957600080fd5b6124258a828b016122ed565b975050602088013561243681611f4a565b95506040880135945060608801356001600160401b0381111561245857600080fd5b6124648a828b016122ed565b94505060808801356001600160401b0381111561248057600080fd5b61248c8a828b016122ed565b979a969950949793969560a0850135955060c0909401359392505050565b6001600160801b0381168114611e4457600080fd5b600080600083850360808112156124d557600080fd5b843593506040601f19820112156124eb57600080fd5b50604080519081016001600160401b038111828210171561250e5761250e612280565b604052602085013561251f81611f4a565b8152604085013561252f816124aa565b6020820152915060608401356001600160401b0381111561254f57600080fd5b61255b868287016122ed565b9150509250925092565b602080825260119082015270105d58dd1a5bdb881a185cc8195b991959607a1b604082015260600190565b600181811c908216806125a457607f821691505b6020821081036125c457634e487b7160e01b600052602260045260246000fd5b50919050565b601f82111561170557806000526020600020601f840160051c810160208510156125f15750805b601f840160051c820191505b8181101561261157600081556001016125fd565b5050505050565b81516001600160401b0381111561263157612631612280565b6126458161263f8454612590565b846125ca565b6020601f82116001811461267c57600083156126615750848201515b600184901b600019600386901b1c198216175b855550612611565b600084815260208120601f198516915b828110156126ac578785015182556020948501946001909201910161268c565b50848210156126ca5786840151600019600387901b60f8161c191681555b50505050600190811b01905550565b60208152600061201b6020830184611e99565b6000602082840312156126fe57600080fd5b815161201b81611f4a565b634e487b7160e01b600052601160045260246000fd5b60006001820161273157612731612709565b5060010190565b8082018082111561274b5761274b612709565b92915050565b81810361275c575050565b6127668254612590565b6001600160401b0381111561277d5761277d612280565b61278b8161263f8454612590565b6000601f8211600181146127bd5760008315612661575081850154600184901b600019600386901b1c19821617612674565b600085815260209020601f19841690600086815260209020845b838110156127f757828601548255600195860195909101906020016127d7565b50858310156128155781850154600019600388901b60f8161c191681555b5050505050600190811b01905550565b8181038181111561274b5761274b612709565b600082601f83011261284957600080fd5b8151612857612312826122c6565b81815284602083860101111561286c57600080fd5b61287d826020830160208701611e75565b949350505050565b600080600080600080600080610100898b0312156128a257600080fd5b88516001600160401b038111156128b857600080fd5b6128c48b828c01612838565b60208b015160408c015160608d015160808e0151939c50919a509850965090506bffffffffffffffffffffffff19811681146128ff57600080fd5b60a08a015160c08b015191955093506001600160401b0381111561292257600080fd5b61292e8b828c01612838565b60e09a909a0151989b979a509598949793969295505050565b60008060006060848603121561295c57600080fd5b8351602085015190935061296f81611f4a565b6040850151909250612980816124aa565b809150509250925092565b8881528760208201528660408201526bffffffffffffffffffffffff198616606082015284608082015261010060a082015260006129cd610100830186611e99565b60c0830194909452506001600160a01b039190911660e0909101529695505050505050565b60008251612a04818460208701611e75565b9190910192915050565b600060208284031215612a2057600080fd5b8151801515811461201b57600080fd5b634e487b7160e01b600052603260045260246000fd5b60008451612a58818460208901611e75565b606085901b6bffffffffffffffffffffffff19169083019081528351612a85816014840160208801611e75565b016014019594505050505056fea26469706673582212203b6b05d1f8c562ab0f5d81e70efebac3fd5c652ac996061a217d7d67cd34c99464736f6c634300081c0033","linkReferences":{}},"methodIdentifiers":{"ALIGNED_PAYMENT_SERVICE_ADDR()":"c8dc35a9","ALIGNED_SERVICE_MANAGER()":"470df9ec","ELF_COMMITMENT()":"38afd936","auctionCount()":"2ad71573","auctions(uint256)":"571a26a0","auctionsByOwner(address,uint256)":"cfeae748","createAuction(bytes,address,uint256,string,string,uint256,uint256)":"dc937abc","finalizeAuction(uint256,(address,uint128),bytes)":"e1c92e0a","getAuctionsByOwner(address)":"41177855","getBids(uint256)":"131d9a27","hasDeposited(uint256,address)":"99b1eb2e","lockToken()":"bca7a9e2","onERC721Received(address,address,uint256,bytes)":"150b7a02","placeBid(uint256,bytes)":"864bc0a0","withdraw(uint256)":"2e1a7d4d"},"id":48}