{"abi":[{"type":"constructor","inputs":[{"name":"_lockToken","type":"address","internalType":"address"}],"stateMutability":"nonpayable"},{"type":"function","name":"ALIGNED_PAYMENT_SERVICE_ADDR","inputs":[],"outputs":[{"name":"","type":"address","internalType":"address"}],"stateMutability":"view"},{"type":"function","name":"ALIGNED_SERVICE_MANAGER","inputs":[],"outputs":[{"name":"","type":"address","internalType":"address"}],"stateMutability":"view"},{"type":"function","name":"ELF_COMMITMENT","inputs":[],"outputs":[{"name":"","type":"bytes32","internalType":"bytes32"}],"stateMutability":"view"},{"type":"function","name":"auctionCount","inputs":[],"outputs":[{"name":"","type":"uint256","internalType":"uint256"}],"stateMutability":"view"},{"type":"function","name":"auctions","inputs":[{"name":"","type":"uint256","internalType":"uint256"}],"outputs":[{"name":"owner","type":"address","internalType":"address"},{"name":"encryptionKey","type":"bytes","internalType":"bytes"},{"name":"asset","type":"tuple","internalType":"struct ZkAuction.Asset","components":[{"name":"name","type":"string","internalType":"string"},{"name":"description","type":"string","internalType":"string"},{"name":"nftContract","type":"address","internalType":"address"},{"name":"tokenId","type":"uint256","internalType":"uint256"}]},{"name":"winner","type":"tuple","internalType":"struct ZkAuction.Winner","components":[{"name":"winner","type":"address","internalType":"address"},{"name":"price","type":"uint128","internalType":"uint128"}]},{"name":"depositPrice","type":"uint128","internalType":"uint128"},{"name":"endTime","type":"uint256","internalType":"uint256"},{"name":"ended","type":"bool","internalType":"bool"}],"stateMutability":"view"},{"type":"function","name":"auctionsByOwner","inputs":[{"name":"","type":"address","internalType":"address"},{"name":"","type":"uint256","internalType":"uint256"}],"outputs":[{"name":"owner","type":"address","internalType":"address"},{"name":"encryptionKey","type":"bytes","internalType":"bytes"},{"name":"asset","type":"tuple","internalType":"struct ZkAuction.Asset","components":[{"name":"name","type":"string","internalType":"string"},{"name":"description","type":"string","internalType":"string"},{"name":"nftContract","type":"address","internalType":"address"},{"name":"tokenId","type":"uint256","internalType":"uint256"}]},{"name":"winner","type":"tuple","internalType":"struct ZkAuction.Winner","components":[{"name":"winner","type":"address","internalType":"address"},{"name":"price","type":"uint128","internalType":"uint128"}]},{"name":"depositPrice","type":"uint128","internalType":"uint128"},{"name":"endTime","type":"uint256","internalType":"uint256"},{"name":"ended","type":"bool","internalType":"bool"}],"stateMutability":"view"},{"type":"function","name":"createAuction","inputs":[{"name":"_encryptionKey","type":"bytes","internalType":"bytes"},{"name":"_nftContract","type":"address","internalType":"address"},{"name":"_tokenId","type":"uint256","internalType":"uint256"},{"name":"_assetName","type":"string","internalType":"string"},{"name":"_assetDescription","type":"string","internalType":"string"},{"name":"_depositPrice","type":"uint128","internalType":"uint128"},{"name":"_duration","type":"uint256","internalType":"uint256"}],"outputs":[],"stateMutability":"nonpayable"},{"type":"function","name":"finalizeAuction","inputs":[{"name":"auctionId","type":"uint256","internalType":"uint256"},{"name":"_winner","type":"tuple","internalType":"struct ZkAuction.Winner","components":[{"name":"winner","type":"address","internalType":"address"},{"name":"price","type":"uint128","internalType":"uint128"}]},{"name":"proof","type":"bytes","internalType":"bytes"}],"outputs":[],"stateMutability":"nonpayable"},{"type":"function","name":"getAuctionsByOwner","inputs":[{"name":"owner","type":"address","internalType":"address"}],"outputs":[{"name":"","type":"tuple[]","internalType":"struct ZkAuction.Auction[]","components":[{"name":"owner","type":"address","internalType":"address"},{"name":"encryptionKey","type":"bytes","internalType":"bytes"},{"name":"asset","type":"tuple","internalType":"struct ZkAuction.Asset","components":[{"name":"name","type":"string","internalType":"string"},{"name":"description","type":"string","internalType":"string"},{"name":"nftContract","type":"address","internalType":"address"},{"name":"tokenId","type":"uint256","internalType":"uint256"}]},{"name":"bids","type":"tuple[]","internalType":"struct ZkAuction.Bid[]","components":[{"name":"bidder","type":"address","internalType":"address"},{"name":"encryptedPrice","type":"bytes","internalType":"bytes"}]},{"name":"winner","type":"tuple","internalType":"struct ZkAuction.Winner","components":[{"name":"winner","type":"address","internalType":"address"},{"name":"price","type":"uint128","internalType":"uint128"}]},{"name":"depositPrice","type":"uint128","internalType":"uint128"},{"name":"endTime","type":"uint256","internalType":"uint256"},{"name":"ended","type":"bool","internalType":"bool"}]}],"stateMutability":"view"},{"type":"function","name":"getBids","inputs":[{"name":"auctionId","type":"uint256","internalType":"uint256"}],"outputs":[{"name":"","type":"tuple[]","internalType":"struct ZkAuction.Bid[]","components":[{"name":"bidder","type":"address","internalType":"address"},{"name":"encryptedPrice","type":"bytes","internalType":"bytes"}]}],"stateMutability":"view"},{"type":"function","name":"hasDeposited","inputs":[{"name":"","type":"uint256","internalType":"uint256"},{"name":"","type":"address","internalType":"address"}],"outputs":[{"name":"","type":"bool","internalType":"bool"}],"stateMutability":"view"},{"type":"function","name":"lockToken","inputs":[],"outputs":[{"name":"","type":"address","internalType":"contract IERC20"}],"stateMutability":"view"},{"type":"function","name":"onERC721Received","inputs":[{"name":"operator","type":"address","internalType":"address"},{"name":"from","type":"address","internalType":"address"},{"name":"tokenId","type":"uint256","internalType":"uint256"},{"name":"data","type":"bytes","internalType":"bytes"}],"outputs":[{"name":"","type":"bytes4","internalType":"bytes4"}],"stateMutability":"pure"},{"type":"function","name":"placeBid","inputs":[{"name":"auctionId","type":"uint256","internalType":"uint256"},{"name":"_encryptedPrice","type":"bytes","internalType":"bytes"}],"outputs":[],"stateMutability":"nonpayable"},{"type":"function","name":"withdraw","inputs":[{"name":"auctionId","type":"uint256","internalType":"uint256"}],"outputs":[],"stateMutability":"nonpayable"},{"type":"event","name":"AuctionCreated","inputs":[{"name":"auctionId","type":"uint256","indexed":true,"internalType":"uint256"},{"name":"owner","type":"address","indexed":true,"internalType":"address"}],"anonymous":false},{"type":"event","name":"AuctionEnded","inputs":[{"name":"auctionId","type":"uint256","indexed":true,"internalType":"uint256"},{"name":"winner","type":"address","indexed":true,"internalType":"address"},{"name":"price","type":"uint128","indexed":false,"internalType":"uint128"}],"anonymous":false},{"type":"event","name":"NewBid","inputs":[{"name":"auctionId","type":"uint256","indexed":true,"internalType":"uint256"},{"name":"bidder","type":"address","indexed":true,"internalType":"address"},{"name":"encryptedPrice","type":"bytes","indexed":false,"internalType":"bytes"}],"anonymous":false},{"type":"error","name":"InvalidElf","inputs":[{"name":"submittedElf","type":"bytes32","internalType":"bytes32"}]},{"type":"error","name":"SafeERC20FailedOperation","inputs":[{"name":"token","type":"address","internalType":"address"}]}],"bytecode":{"object":"0x60a060405234801561001057600080fd5b50604051612bf8380380612bf883398101604081905261002f91610040565b6001600160a01b0316608052610070565b60006020828403121561005257600080fd5b81516001600160a01b038116811461006957600080fd5b9392505050565b608051612b516100a76000396000818161029001528181610aad0152818161126b0152818161162401526116670152612b516000f3fe608060405234801561001057600080fd5b50600436106100f55760003560e01c8063470df9ec11610097578063bca7a9e211610066578063bca7a9e21461028b578063c8dc35a9146102b2578063cfeae748146102cd578063e1c92e0a146102e057600080fd5b8063470df9ec146101e1578063571a26a014610214578063864bc0a01461023a57806399b1eb2e1461024d57600080fd5b80632ad71573116100d35780632ad71573146101705780632e1a7d4d1461018757806338afd9361461019a57806341177855146101c157600080fd5b80630a98877b146100fa578063131d9a271461010f578063150b7a0214610138575b600080fd5b61010d610108366004611fac565b6102f3565b005b61012261011d366004612077565b61083b565b60405161012f91906120e0565b60405180910390f35b610157610146366004612165565b630a85bd0160e11b95945050505050565b6040516001600160e01b0319909116815260200161012f565b61017960005481565b60405190815260200161012f565b61010d610195366004612077565b6109dd565b6101797fb3a059d3db56b7310f74575a285f591d32d2c32990bf6eff883a71e90c86230a81565b6101d46101cf366004612204565b610ae2565b60405161012f91906122fb565b6101fc7358f280bebe9b34c9939c3c39e0890c81f163b62381565b6040516001600160a01b03909116815260200161012f565b610227610222366004612077565b610eb1565b60405161012f979695949392919061240e565b61010d61024836600461249a565b6110f8565b61027b61025b3660046124e0565b600360209081526000928352604080842090915290825290205460ff1681565b604051901515815260200161012f565b6101fc7f000000000000000000000000000000000000000000000000000000000000000081565b6101fc73815aeca64a974297942d2bbf034abee22a38a00381565b6102276102db366004612510565b6112e5565b61010d6102ee36600461253c565b611332565b6000826001600160801b0316116103615760405162461bcd60e51b815260206004820152602760248201527f4465706f736974207072696365206d7573742062652067726561746572207468604482015266616e207a65726f60c81b60648201526084015b60405180910390fd5b600081116103bc5760405162461bcd60e51b815260206004820152602260248201527f4475726174696f6e206d7573742062652067726561746572207468616e207a65604482015261726f60f01b6064820152608401610358565b6040516331a9108f60e11b815260048101869052869033906001600160a01b03831690636352211e90602401602060405180830381865afa158015610405573d6000803e3d6000fd5b505050506040513d601f19601f8201168201806040525081019061042991906125e2565b6001600160a01b03161461048a5760405162461bcd60e51b815260206004820152602260248201527f596f75206d757374206f776e20746865204e465420746f2061756374696f6e206044820152611a5d60f21b6064820152608401610358565b60405163020604bf60e21b81526004810187905230906001600160a01b0383169063081812fc90602401602060405180830381865afa1580156104d1573d6000803e3d6000fd5b505050506040513d601f19601f820116820180604052508101906104f591906125e2565b6001600160a01b0316146105575760405162461bcd60e51b8152602060048201526024808201527f596f75206e65656420617070726f766520746865204e465420746f20636f6e746044820152631c9858dd60e21b6064820152608401610358565b60008054815260016020819052604090912080546001600160a01b031916331781559081016105868a82612687565b5060408051608081018252878152602081018790526001600160a01b038a16918101919091526060810188905260028201806105c28982612687565b50602082015160018201906105d79082612687565b5060408201516002820180546001600160a01b0319166001600160a01b039092169190911790556060909101516003909101556009810180546001600160801b0319166001600160801b038616179055610631834261275e565b600a820155600b8101805460ff1916905560008054908061065183612777565b90915550503360009081526002602090815260408220805460018181018355918452919092208354600c9092020180546001600160a01b0319166001600160a01b03929092169190911781558291818101906106af90840182612790565b506002828101908201806106c38382612790565b506001818101906106d690840182612790565b5060028281015490820180546001600160a01b0319166001600160a01b039092169190911790556003918201549101556006828101805461071a9284019190611da7565b5060078281015490820180546001600160a01b039283166001600160a01b031990911617905560088084015490830180546001600160801b039283166001600160801b0319918216179091556009808601549085018054919093169116179055600a8084015490830155600b9283015492909101805460ff191660ff909316151592909217909155604051632142170760e11b815233600482015230602482015260448101899052908316906342842e0e90606401600060405180830381600087803b1580156107e957600080fd5b505af11580156107fd573d6000803e3d6000fd5b5050600080546040513394509092507f5d551e2a2cc977fd8c530317059b4f2d9f504fb82f7dfad736f8d56679bcdfd09190a3505050505050505050565b6000818152600160205260409020600a015460609042101561089b5760405162461bcd60e51b8152602060048201526019602482015278105d58dd1a5bdb881a185cc81b9bdd08195b991959081e595d603a1b6044820152606401610358565b6000828152600160205260409020600b015460ff16156108cd5760405162461bcd60e51b815260040161035890612864565b600082815260016020908152604080832060060180548251818502810185019093528083529193909284015b828210156109d2576000848152602090819020604080518082019091526002850290910180546001600160a01b031682526001810180549293919291840191610941906125ff565b80601f016020809104026020016040519081016040528092919081815260200182805461096d906125ff565b80156109ba5780601f1061098f576101008083540402835291602001916109ba565b820191906000526020600020905b81548152906001019060200180831161099d57829003601f168201915b505050505081525050815260200190600101906108f9565b505050509050919050565b6000818152600160209081526040808320600383528184203385529092529091205460ff16610a465760405162461bcd60e51b81526020600482015260156024820152744e6f20746f6b656e7320746f20776974686472617760581b6044820152606401610358565b600b81015460ff16610a9a5760405162461bcd60e51b815260206004820152601760248201527f546f6b656e7320617265207374696c6c206c6f636b65640000000000000000006044820152606401610358565b6009810154610ade906001600160a01b037f0000000000000000000000000000000000000000000000000000000000000000169033906001600160801b03166116f6565b5050565b6001600160a01b0381166000908152600260209081526040808320805482518185028101850190935280835260609492939192909184015b828210156109d2576000848152602090819020604080516101008101909152600c850290910180546001600160a01b031682526001810180549293919291840191610b64906125ff565b80601f0160208091040260200160405190810160405280929190818152602001828054610b90906125ff565b8015610bdd5780601f10610bb257610100808354040283529160200191610bdd565b820191906000526020600020905b815481529060010190602001808311610bc057829003601f168201915b5050505050815260200160028201604051806080016040529081600082018054610c06906125ff565b80601f0160208091040260200160405190810160405280929190818152602001828054610c32906125ff565b8015610c7f5780601f10610c5457610100808354040283529160200191610c7f565b820191906000526020600020905b815481529060010190602001808311610c6257829003601f168201915b50505050508152602001600182018054610c98906125ff565b80601f0160208091040260200160405190810160405280929190818152602001828054610cc4906125ff565b8015610d115780601f10610ce657610100808354040283529160200191610d11565b820191906000526020600020905b815481529060010190602001808311610cf457829003601f168201915b505050918352505060028201546001600160a01b031660208083019190915260039092015460409182015291835260068401805483518184028101840190945280845293820193909160009084015b82821015610e39576000848152602090819020604080518082019091526002850290910180546001600160a01b031682526001810180549293919291840191610da8906125ff565b80601f0160208091040260200160405190810160405280929190818152602001828054610dd4906125ff565b8015610e215780601f10610df657610100808354040283529160200191610e21565b820191906000526020600020905b815481529060010190602001808311610e0457829003601f168201915b50505050508152505081526020019060010190610d60565b5050509082525060408051808201825260078401546001600160a01b0316815260088401546001600160801b039081166020838101919091528085019290925260098501541691830191909152600a8301546060830152600b9092015460ff1615156080909101529082526001929092019101610b1a565b6001602081905260009182526040909120805491810180546001600160a01b0390931692610ede906125ff565b80601f0160208091040260200160405190810160405280929190818152602001828054610f0a906125ff565b8015610f575780601f10610f2c57610100808354040283529160200191610f57565b820191906000526020600020905b815481529060010190602001808311610f3a57829003601f168201915b50505050509080600201604051806080016040529081600082018054610f7c906125ff565b80601f0160208091040260200160405190810160405280929190818152602001828054610fa8906125ff565b8015610ff55780601f10610fca57610100808354040283529160200191610ff5565b820191906000526020600020905b815481529060010190602001808311610fd857829003601f168201915b5050505050815260200160018201805461100e906125ff565b80601f016020809104026020016040519081016040528092919081815260200182805461103a906125ff565b80156110875780601f1061105c57610100808354040283529160200191611087565b820191906000526020600020905b81548152906001019060200180831161106a57829003601f168201915b505050918352505060028201546001600160a01b039081166020808401919091526003909301546040928301528151808301909252600785015416815260088401546001600160801b03908116928201929092526009840154600a850154600b909501549394919392169160ff1687565b6000828152600160205260409020600b81015460ff161561112b5760405162461bcd60e51b815260040161035890612864565b80600a015442106111745760405162461bcd60e51b8152602060048201526013602482015272105d58dd1a5bdb881a185cc8195e1c1a5c9959606a1b6044820152606401610358565b600083815260036020908152604080832033845290915290205460ff16156111d25760405162461bcd60e51b8152602060048201526011602482015270105b1c9958591e4819195c1bdcda5d1959607a1b6044820152606401610358565b6000838152600360209081526040808320338085529083528184208054600160ff1990911681179091558251808401909352908252818301868152600686018054808401825590865293909420825160029094020180546001600160a01b0319166001600160a01b03909416939093178355925190928201906112559082612687565b505050600981015461129e906001600160a01b037f00000000000000000000000000000000000000000000000000000000000000001690339030906001600160801b031661175a565b336001600160a01b0316837f0aebdeac202f28be37e4f9405aceae67b58f4e341186d0dcb3d4443b306043b7846040516112d8919061288f565b60405180910390a3505050565b6002602052816000526040600020818154811061130157600080fd5b60009182526020909120600c9091020180546001820180546001600160a01b039092169450919250610ede906125ff565b600083815260016020526040902080548491906001600160a01b031633146113945760405162461bcd60e51b81526020600482015260156024820152742cb7ba9030b932903737ba103a34329037bbb732b960591b6044820152606401610358565b600085815260016020526040902080546001600160a01b031633146113fb5760405162461bcd60e51b815260206004820152601960248201527f596f75206e656564206f776e6572206f662061756374696f6e000000000000006044820152606401610358565b6000868152600160205260409020600a01544210156114585760405162461bcd60e51b8152602060048201526019602482015278105d58dd1a5bdb881a185cc81b9bdd08195b991959081e595d603a1b6044820152606401610358565b600b81015460ff161561147d5760405162461bcd60e51b815260040161035890612864565b611488858786611799565b600981015460208601516001600160801b03918216911611156115025760405162461bcd60e51b815260206004820152602c60248201527f57696e6e657220686173206d6f726520626964207072696365207468616e206460448201526b65706f73697420707269636560a01b6064820152608401610358565b84516007820180546001600160a01b0319166001600160a01b0392831690811790915560208701516008840180546001600160801b0319166001600160801b03909216919091179055600b8301805460ff191660011790556004808401546005850154604051632142170760e11b815230938101939093526024830193909352604482019290925291169081906342842e0e90606401600060405180830381600087803b1580156115b257600080fd5b505af11580156115c6573d6000803e3d6000fd5b50505050600882015460098301546001600160801b039182169116111561165457600782015460088301546009840154611654926001600160a01b03169161161a916001600160801b0391821691166128a2565b6001600160a01b037f00000000000000000000000000000000000000000000000000000000000000001691906001600160801b03166116f6565b6008820154611698906001600160a01b037f0000000000000000000000000000000000000000000000000000000000000000169033906001600160801b03166116f6565b600782015460088301546040516001600160801b0390911681526001600160a01b039091169088907fcea9b5625991aa873d047c1eeaa9a77558ac53784c52b0647767e11e97c7a8849060200160405180910390a350505050505050565b6040516001600160a01b0383811660248301526044820183905261175591859182169063a9059cbb906064015b604051602081830303815290604052915060e01b6020820180516001600160e01b038381831617835250505050611b80565b505050565b6040516001600160a01b0384811660248301528381166044830152606482018390526117939186918216906323b872dd90608401611723565b50505050565b600080600080600080600080888060200190518101906117b9919061290e565b97509750975097509750975097509750847fb3a059d3db56b7310f74575a285f591d32d2c32990bf6eff883a71e90c86230a60001b1461180f5760405163636ca83360e11b815260048101869052602401610358565b606084901c331461186c5760405162461bcd60e51b815260206004820152602160248201527f70726f6f6647656e657261746f724164647220646f6573206e6f74206d6174636044820152600d60fb1b6064820152608401610358565b8751602089012086146118b85760405162461bcd60e51b8152602060048201526014602482015273125b9d985b1a59081c1d589b1a58c81a5b9c1d5d60621b6044820152606401610358565b60008060008a8060200190518101906118d191906129d0565b9250925092508d600001516001600160a01b0316826001600160a01b03161461193c5760405162461bcd60e51b815260206004820152601e60248201527f57696e6e657220696e2070726f6f6620646f6573206e6f74206d6174636800006044820152606401610358565b8d602001516001600160801b0316816001600160801b0316146119a15760405162461bcd60e51b815260206004820152601e60248201527f57696e6e657220696e2070726f6f6620646f6573206e6f74206d6174636800006044820152606401610358565b826119ab8e611bf1565b146119f85760405162461bcd60e51b815260206004820152601b60248201527f41756374696f6e206861736820646f6573206e6f74206d6174636800000000006044820152606401610358565b6000807358f280bebe9b34c9939c3c39e0890c81f163b6236001600160a01b03168c8c8c8c8c8c8c73815aeca64a974297942d2bbf034abee22a38a003604051602401611a4c989796959493929190612a14565b60408051601f198184030181529181526020820180516001600160e01b03166306045a9160e01b17905251611a819190612a7b565b600060405180830381855afa9150503d8060008114611abc576040519150601f19603f3d011682016040523d82523d6000602084013e611ac1565b606091505b509150915081611b085760405162461bcd60e51b81526020600482015260126024820152711cdd185d1a58d7d8d85b1b0819985a5b195960721b6044820152606401610358565b600081806020019051810190611b1e9190612a97565b905080611b6d5760405162461bcd60e51b815260206004820152601b60248201527f70726f6f66206e6f7420696e636c7564656420696e20626174636800000000006044820152606401610358565b5050505050505050505050505050505050565b600080602060008451602086016000885af180611ba3576040513d6000823e3d81fd5b50506000513d91508115611bbb578060011415611bc8565b6001600160a01b0384163b155b1561179357604051635274afe760e01b81526001600160a01b0385166004820152602401610358565b600081815260016020908152604080832060060180548251818502810185019093528083528493849084015b82821015611cf6576000848152602090819020604080518082019091526002850290910180546001600160a01b031682526001810180549293919291840191611c65906125ff565b80601f0160208091040260200160405190810160405280929190818152602001828054611c91906125ff565b8015611cde5780601f10611cb357610100808354040283529160200191611cde565b820191906000526020600020905b815481529060010190602001808311611cc157829003601f168201915b50505050508152505081526020019060010190611c1d565b505050509050600083604051602001611d1191815260200190565b604051602081830303815290604052905060005b8251811015611d975781838281518110611d4157611d41612ab9565b602002602001015160000151848381518110611d5f57611d5f612ab9565b602002602001015160200151604051602001611d7d93929190612acf565b60408051601f198184030181529190529150600101611d25565b5080516020909101209392505050565b828054828255906000526020600020906002028101928215611e1c5760005260206000209160020282015b82811115611e1c57825482546001600160a01b0319166001600160a01b039091161782558282600180820190611e0a90840182612790565b50505091600201919060020190611dd2565b50611e28929150611e2c565b5090565b80821115611e285780546001600160a01b03191681556000611e516001830182611e5a565b50600201611e2c565b508054611e66906125ff565b6000825580601f10611e76575050565b601f016020900490600052602060002090810190611e949190611e97565b50565b5b80821115611e285760008155600101611e98565b634e487b7160e01b600052604160045260246000fd5b604051601f8201601f191681016001600160401b0381118282101715611eea57611eea611eac565b604052919050565b60006001600160401b03821115611f0b57611f0b611eac565b50601f01601f191660200190565b600082601f830112611f2a57600080fd5b8135602083016000611f43611f3e84611ef2565b611ec2565b9050828152858383011115611f5757600080fd5b82826020830137600092810160200192909252509392505050565b6001600160a01b0381168114611e9457600080fd5b6001600160801b0381168114611e9457600080fd5b8035611fa781611f87565b919050565b600080600080600080600060e0888a031215611fc757600080fd5b87356001600160401b03811115611fdd57600080fd5b611fe98a828b01611f19565b9750506020880135611ffa81611f72565b95506040880135945060608801356001600160401b0381111561201c57600080fd5b6120288a828b01611f19565b94505060808801356001600160401b0381111561204457600080fd5b6120508a828b01611f19565b93505061205f60a08901611f9c565b96999598509396929591949193505060c09091013590565b60006020828403121561208957600080fd5b5035919050565b60005b838110156120ab578181015183820152602001612093565b50506000910152565b600081518084526120cc816020860160208601612090565b601f01601f19169290920160200192915050565b6000602082016020835280845180835260408501915060408160051b86010192506020860160005b8281101561215957868503603f19018452815180516001600160a01b03168652602090810151604091870182905290612143908701826120b4565b9550506020938401939190910190600101612108565b50929695505050505050565b60008060008060006080868803121561217d57600080fd5b853561218881611f72565b9450602086013561219881611f72565b93506040860135925060608601356001600160401b038111156121ba57600080fd5b8601601f810188136121cb57600080fd5b80356001600160401b038111156121e157600080fd5b8860208284010111156121f357600080fd5b959894975092955050506020019190565b60006020828403121561221657600080fd5b813561222181611f72565b9392505050565b600081516080845261223d60808501826120b4565b90506020830151848203602086015261225682826120b4565b6040858101516001600160a01b0316908701526060948501519490950193909352509192915050565b600082825180855260208501945060208160051b8301016020850160005b838110156122ef57848303601f19018852815180516001600160a01b031684526020908101516040918501829052906122d8908501826120b4565b6020998a019990945092909201915060010161229d565b50909695505050505050565b6000602082016020835280845180835260408501915060408160051b86010192506020860160005b8281101561215957868503603f19018452815180516001600160a01b031686526020810151610120602088015261235e6101208801826120b4565b9050604082015187820360408901526123778282612228565b91505060608201518782036060890152612391828261227f565b91505060808201516123c2608089018280516001600160a01b031682526020908101516001600160801b0316910152565b5060a08201516001600160801b03811660c08901525060c082015160e088015260e082015191506123f861010088018315159052565b9550506020938401939190910190600101612323565b6001600160a01b038816815261010060208201819052600090612433908301896120b4565b82810360408401526124458189612228565b87516001600160a01b0316606085015260208801516001600160801b0316608085015291506124719050565b6001600160801b03851660a08301528360c083015282151560e083015298975050505050505050565b600080604083850312156124ad57600080fd5b8235915060208301356001600160401b038111156124ca57600080fd5b6124d685828601611f19565b9150509250929050565b600080604083850312156124f357600080fd5b82359150602083013561250581611f72565b809150509250929050565b6000806040838503121561252357600080fd5b823561252e81611f72565b946020939093013593505050565b6000806000838503608081121561255257600080fd5b843593506040601f198201121561256857600080fd5b50604080519081016001600160401b038111828210171561258b5761258b611eac565b604052602085013561259c81611f72565b815260408501356125ac81611f87565b6020820152915060608401356001600160401b038111156125cc57600080fd5b6125d886828701611f19565b9150509250925092565b6000602082840312156125f457600080fd5b815161222181611f72565b600181811c9082168061261357607f821691505b60208210810361263357634e487b7160e01b600052602260045260246000fd5b50919050565b601f82111561175557806000526020600020601f840160051c810160208510156126605750805b601f840160051c820191505b81811015612680576000815560010161266c565b5050505050565b81516001600160401b038111156126a0576126a0611eac565b6126b4816126ae84546125ff565b84612639565b6020601f8211600181146126eb57600083156126d05750848201515b600184901b600019600386901b1c198216175b855550612680565b600084815260208120601f198516915b8281101561271b57878501518255602094850194600190920191016126fb565b50848210156127395786840151600019600387901b60f8161c191681555b50505050600190811b01905550565b634e487b7160e01b600052601160045260246000fd5b8082018082111561277157612771612748565b92915050565b60006001820161278957612789612748565b5060010190565b81810361279b575050565b6127a582546125ff565b6001600160401b038111156127bc576127bc611eac565b6127ca816126ae84546125ff565b6000601f8211600181146127fc57600083156126d0575081850154600184901b600019600386901b1c198216176126e3565b600085815260209020601f19841690600086815260209020845b838110156128365782860154825560019586019590910190602001612816565b50858310156128545781850154600019600388901b60f8161c191681555b5050505050600190811b01905550565b602080825260119082015270105d58dd1a5bdb881a185cc8195b991959607a1b604082015260600190565b60208152600061222160208301846120b4565b6001600160801b03828116828216039081111561277157612771612748565b600082601f8301126128d257600080fd5b81516128e0611f3e82611ef2565b8181528460208386010111156128f557600080fd5b612906826020830160208701612090565b949350505050565b600080600080600080600080610100898b03121561292b57600080fd5b88516001600160401b0381111561294157600080fd5b61294d8b828c016128c1565b60208b015160408c015160608d015160808e0151939c50919a509850965090506bffffffffffffffffffffffff198116811461298857600080fd5b60a08a015160c08b015191955093506001600160401b038111156129ab57600080fd5b6129b78b828c016128c1565b60e09a909a0151989b979a509598949793969295505050565b6000806000606084860312156129e557600080fd5b835160208501519093506129f881611f72565b6040850151909250612a0981611f87565b809150509250925092565b8881528760208201528660408201526bffffffffffffffffffffffff198616606082015284608082015261010060a08201526000612a566101008301866120b4565b60c0830194909452506001600160a01b039190911660e0909101529695505050505050565b60008251612a8d818460208701612090565b9190910192915050565b600060208284031215612aa957600080fd5b8151801515811461222157600080fd5b634e487b7160e01b600052603260045260246000fd5b60008451612ae1818460208901612090565b606085901b6bffffffffffffffffffffffff19169083019081528351612b0e816014840160208801612090565b016014019594505050505056fea26469706673582212201986a6690c1caf07cd1b38e1cfc4cd70bd76a717b88b746b760a41c97ff556c964736f6c634300081c0033","linkReferences":{}},"methodIdentifiers":{"ALIGNED_PAYMENT_SERVICE_ADDR()":"c8dc35a9","ALIGNED_SERVICE_MANAGER()":"470df9ec","ELF_COMMITMENT()":"38afd936","auctionCount()":"2ad71573","auctions(uint256)":"571a26a0","auctionsByOwner(address,uint256)":"cfeae748","createAuction(bytes,address,uint256,string,string,uint128,uint256)":"0a98877b","finalizeAuction(uint256,(address,uint128),bytes)":"e1c92e0a","getAuctionsByOwner(address)":"41177855","getBids(uint256)":"131d9a27","hasDeposited(uint256,address)":"99b1eb2e","lockToken()":"bca7a9e2","onERC721Received(address,address,uint256,bytes)":"150b7a02","placeBid(uint256,bytes)":"864bc0a0","withdraw(uint256)":"2e1a7d4d"},"id":48}