{"abi":[{"type":"constructor","inputs":[{"name":"_lockToken","type":"address","internalType":"address"}],"stateMutability":"nonpayable"},{"type":"function","name":"ALIGNED_PAYMENT_SERVICE_ADDR","inputs":[],"outputs":[{"name":"","type":"address","internalType":"address"}],"stateMutability":"view"},{"type":"function","name":"ALIGNED_SERVICE_MANAGER","inputs":[],"outputs":[{"name":"","type":"address","internalType":"address"}],"stateMutability":"view"},{"type":"function","name":"ELF_COMMITMENT","inputs":[],"outputs":[{"name":"","type":"bytes32","internalType":"bytes32"}],"stateMutability":"view"},{"type":"function","name":"auctionCount","inputs":[],"outputs":[{"name":"","type":"uint256","internalType":"uint256"}],"stateMutability":"view"},{"type":"function","name":"auctions","inputs":[{"name":"","type":"uint256","internalType":"uint256"}],"outputs":[{"name":"owner","type":"address","internalType":"address"},{"name":"encryptionKey","type":"bytes","internalType":"bytes"},{"name":"asset","type":"tuple","internalType":"struct ZkAuction.Asset","components":[{"name":"name","type":"string","internalType":"string"},{"name":"description","type":"string","internalType":"string"},{"name":"nftContract","type":"address","internalType":"address"},{"name":"tokenId","type":"uint256","internalType":"uint256"}]},{"name":"winner","type":"tuple","internalType":"struct ZkAuction.Winner","components":[{"name":"winner","type":"address","internalType":"address"},{"name":"price","type":"uint128","internalType":"uint128"}]},{"name":"depositPrice","type":"uint128","internalType":"uint128"},{"name":"endTime","type":"uint256","internalType":"uint256"},{"name":"ended","type":"bool","internalType":"bool"}],"stateMutability":"view"},{"type":"function","name":"auctionsByOwner","inputs":[{"name":"","type":"address","internalType":"address"},{"name":"","type":"uint256","internalType":"uint256"}],"outputs":[{"name":"owner","type":"address","internalType":"address"},{"name":"encryptionKey","type":"bytes","internalType":"bytes"},{"name":"asset","type":"tuple","internalType":"struct ZkAuction.Asset","components":[{"name":"name","type":"string","internalType":"string"},{"name":"description","type":"string","internalType":"string"},{"name":"nftContract","type":"address","internalType":"address"},{"name":"tokenId","type":"uint256","internalType":"uint256"}]},{"name":"winner","type":"tuple","internalType":"struct ZkAuction.Winner","components":[{"name":"winner","type":"address","internalType":"address"},{"name":"price","type":"uint128","internalType":"uint128"}]},{"name":"depositPrice","type":"uint128","internalType":"uint128"},{"name":"endTime","type":"uint256","internalType":"uint256"},{"name":"ended","type":"bool","internalType":"bool"}],"stateMutability":"view"},{"type":"function","name":"createAuction","inputs":[{"name":"_encryptionKey","type":"bytes","internalType":"bytes"},{"name":"_nftContract","type":"address","internalType":"address"},{"name":"_tokenId","type":"uint256","internalType":"uint256"},{"name":"_assetName","type":"string","internalType":"string"},{"name":"_assetDescription","type":"string","internalType":"string"},{"name":"_depositPrice","type":"uint128","internalType":"uint128"},{"name":"_duration","type":"uint256","internalType":"uint256"}],"outputs":[],"stateMutability":"nonpayable"},{"type":"function","name":"finalizeAuction","inputs":[{"name":"auctionId","type":"uint256","internalType":"uint256"},{"name":"_winner","type":"tuple","internalType":"struct ZkAuction.Winner","components":[{"name":"winner","type":"address","internalType":"address"},{"name":"price","type":"uint128","internalType":"uint128"}]},{"name":"proof","type":"bytes","internalType":"bytes"}],"outputs":[],"stateMutability":"nonpayable"},{"type":"function","name":"getAuctionsByOwner","inputs":[{"name":"owner","type":"address","internalType":"address"}],"outputs":[{"name":"","type":"tuple[]","internalType":"struct ZkAuction.Auction[]","components":[{"name":"owner","type":"address","internalType":"address"},{"name":"encryptionKey","type":"bytes","internalType":"bytes"},{"name":"asset","type":"tuple","internalType":"struct ZkAuction.Asset","components":[{"name":"name","type":"string","internalType":"string"},{"name":"description","type":"string","internalType":"string"},{"name":"nftContract","type":"address","internalType":"address"},{"name":"tokenId","type":"uint256","internalType":"uint256"}]},{"name":"bids","type":"tuple[]","internalType":"struct ZkAuction.Bid[]","components":[{"name":"bidder","type":"address","internalType":"address"},{"name":"encryptedPrice","type":"bytes","internalType":"bytes"}]},{"name":"winner","type":"tuple","internalType":"struct ZkAuction.Winner","components":[{"name":"winner","type":"address","internalType":"address"},{"name":"price","type":"uint128","internalType":"uint128"}]},{"name":"depositPrice","type":"uint128","internalType":"uint128"},{"name":"endTime","type":"uint256","internalType":"uint256"},{"name":"ended","type":"bool","internalType":"bool"}]}],"stateMutability":"view"},{"type":"function","name":"getBids","inputs":[{"name":"auctionId","type":"uint256","internalType":"uint256"}],"outputs":[{"name":"","type":"tuple[]","internalType":"struct ZkAuction.Bid[]","components":[{"name":"bidder","type":"address","internalType":"address"},{"name":"encryptedPrice","type":"bytes","internalType":"bytes"}]}],"stateMutability":"view"},{"type":"function","name":"hasDeposited","inputs":[{"name":"","type":"uint256","internalType":"uint256"},{"name":"","type":"address","internalType":"address"}],"outputs":[{"name":"","type":"bool","internalType":"bool"}],"stateMutability":"view"},{"type":"function","name":"lockToken","inputs":[],"outputs":[{"name":"","type":"address","internalType":"contract IERC20"}],"stateMutability":"view"},{"type":"function","name":"onERC721Received","inputs":[{"name":"operator","type":"address","internalType":"address"},{"name":"from","type":"address","internalType":"address"},{"name":"tokenId","type":"uint256","internalType":"uint256"},{"name":"data","type":"bytes","internalType":"bytes"}],"outputs":[{"name":"","type":"bytes4","internalType":"bytes4"}],"stateMutability":"pure"},{"type":"function","name":"placeBid","inputs":[{"name":"auctionId","type":"uint256","internalType":"uint256"},{"name":"_encryptedPrice","type":"bytes","internalType":"bytes"}],"outputs":[],"stateMutability":"nonpayable"},{"type":"function","name":"reverse","inputs":[{"name":"data","type":"bytes","internalType":"bytes"}],"outputs":[{"name":"","type":"bytes","internalType":"bytes"}],"stateMutability":"pure"},{"type":"function","name":"withdraw","inputs":[{"name":"auctionId","type":"uint256","internalType":"uint256"}],"outputs":[],"stateMutability":"nonpayable"},{"type":"event","name":"AuctionCreated","inputs":[{"name":"auctionId","type":"uint256","indexed":true,"internalType":"uint256"},{"name":"owner","type":"address","indexed":true,"internalType":"address"}],"anonymous":false},{"type":"event","name":"AuctionEnded","inputs":[{"name":"auctionId","type":"uint256","indexed":true,"internalType":"uint256"},{"name":"winner","type":"address","indexed":true,"internalType":"address"},{"name":"price","type":"uint128","indexed":false,"internalType":"uint128"}],"anonymous":false},{"type":"event","name":"NewBid","inputs":[{"name":"auctionId","type":"uint256","indexed":true,"internalType":"uint256"},{"name":"bidder","type":"address","indexed":true,"internalType":"address"},{"name":"encryptedPrice","type":"bytes","indexed":false,"internalType":"bytes"}],"anonymous":false},{"type":"error","name":"InvalidElf","inputs":[{"name":"submittedElf","type":"bytes32","internalType":"bytes32"}]},{"type":"error","name":"SafeERC20FailedOperation","inputs":[{"name":"token","type":"address","internalType":"address"}]}],"bytecode":{"object":"0x60a060405234801561001057600080fd5b50604051612ec8380380612ec883398101604081905261002f91610040565b6001600160a01b0316608052610070565b60006020828403121561005257600080fd5b81516001600160a01b038116811461006957600080fd5b9392505050565b608051612e216100a76000396000818161029b01528181610ad8015281816112960152818161164f01526116920152612e216000f3fe608060405234801561001057600080fd5b50600436106101005760003560e01c8063571a26a011610097578063c8dc35a911610066578063c8dc35a9146102bd578063cfeae748146102d8578063e1c92e0a146102eb578063ec11c823146102fe57600080fd5b8063571a26a01461021f578063864bc0a01461024557806399b1eb2e14610258578063bca7a9e21461029657600080fd5b80632e1a7d4d116100d35780632e1a7d4d1461019257806338afd936146101a557806341177855146101cc578063470df9ec146101ec57600080fd5b80630a98877b14610105578063131d9a271461011a578063150b7a02146101435780632ad715731461017b575b600080fd5b6101186101133660046121e8565b61031e565b005b61012d6101283660046122b3565b610866565b60405161013a919061231c565b60405180910390f35b6101626101513660046123a1565b630a85bd0160e11b95945050505050565b6040516001600160e01b0319909116815260200161013a565b61018460005481565b60405190815260200161013a565b6101186101a03660046122b3565b610a08565b6101847f2d3d27d6ced831878d074bc67f50a804798145815c83d10a51d282400bc2a84481565b6101df6101da366004612440565b610b0d565b60405161013a9190612537565b6102077358f280bebe9b34c9939c3c39e0890c81f163b62381565b6040516001600160a01b03909116815260200161013a565b61023261022d3660046122b3565b610edc565b60405161013a979695949392919061264a565b6101186102533660046126d6565b611123565b61028661026636600461271c565b600360209081526000928352604080842090915290825290205460ff1681565b604051901515815260200161013a565b6102077f000000000000000000000000000000000000000000000000000000000000000081565b61020773815aeca64a974297942d2bbf034abee22a38a00381565b6102326102e636600461274c565b611310565b6101186102f9366004612778565b61135d565b61031161030c36600461281c565b611721565b60405161013a9190612858565b6000826001600160801b03161161038c5760405162461bcd60e51b815260206004820152602760248201527f4465706f736974207072696365206d7573742062652067726561746572207468604482015266616e207a65726f60c81b60648201526084015b60405180910390fd5b600081116103e75760405162461bcd60e51b815260206004820152602260248201527f4475726174696f6e206d7573742062652067726561746572207468616e207a65604482015261726f60f01b6064820152608401610383565b6040516331a9108f60e11b815260048101869052869033906001600160a01b03831690636352211e90602401602060405180830381865afa158015610430573d6000803e3d6000fd5b505050506040513d601f19601f82011682018060405250810190610454919061286b565b6001600160a01b0316146104b55760405162461bcd60e51b815260206004820152602260248201527f596f75206d757374206f776e20746865204e465420746f2061756374696f6e206044820152611a5d60f21b6064820152608401610383565b60405163020604bf60e21b81526004810187905230906001600160a01b0383169063081812fc90602401602060405180830381865afa1580156104fc573d6000803e3d6000fd5b505050506040513d601f19601f82011682018060405250810190610520919061286b565b6001600160a01b0316146105825760405162461bcd60e51b8152602060048201526024808201527f596f75206e65656420617070726f766520746865204e465420746f20636f6e746044820152631c9858dd60e21b6064820152608401610383565b60008054815260016020819052604090912080546001600160a01b031916331781559081016105b18a82612910565b5060408051608081018252878152602081018790526001600160a01b038a16918101919091526060810188905260028201806105ed8982612910565b50602082015160018201906106029082612910565b5060408201516002820180546001600160a01b0319166001600160a01b039092169190911790556060909101516003909101556009810180546001600160801b0319166001600160801b03861617905561065c83426129e7565b600a820155600b8101805460ff1916905560008054908061067c83612a00565b90915550503360009081526002602090815260408220805460018181018355918452919092208354600c9092020180546001600160a01b0319166001600160a01b03929092169190911781558291818101906106da90840182612a19565b506002828101908201806106ee8382612a19565b5060018181019061070190840182612a19565b5060028281015490820180546001600160a01b0319166001600160a01b03909216919091179055600391820154910155600682810180546107459284019190611fec565b5060078281015490820180546001600160a01b039283166001600160a01b031990911617905560088084015490830180546001600160801b039283166001600160801b0319918216179091556009808601549085018054919093169116179055600a8084015490830155600b9283015492909101805460ff191660ff909316151592909217909155604051632142170760e11b815233600482015230602482015260448101899052908316906342842e0e90606401600060405180830381600087803b15801561081457600080fd5b505af1158015610828573d6000803e3d6000fd5b5050600080546040513394509092507f5d551e2a2cc977fd8c530317059b4f2d9f504fb82f7dfad736f8d56679bcdfd09190a3505050505050505050565b6000818152600160205260409020600a01546060904210156108c65760405162461bcd60e51b8152602060048201526019602482015278105d58dd1a5bdb881a185cc81b9bdd08195b991959081e595d603a1b6044820152606401610383565b6000828152600160205260409020600b015460ff16156108f85760405162461bcd60e51b815260040161038390612aed565b600082815260016020908152604080832060060180548251818502810185019093528083529193909284015b828210156109fd576000848152602090819020604080518082019091526002850290910180546001600160a01b03168252600181018054929391929184019161096c90612888565b80601f016020809104026020016040519081016040528092919081815260200182805461099890612888565b80156109e55780601f106109ba576101008083540402835291602001916109e5565b820191906000526020600020905b8154815290600101906020018083116109c857829003601f168201915b50505050508152505081526020019060010190610924565b505050509050919050565b6000818152600160209081526040808320600383528184203385529092529091205460ff16610a715760405162461bcd60e51b81526020600482015260156024820152744e6f20746f6b656e7320746f20776974686472617760581b6044820152606401610383565b600b81015460ff16610ac55760405162461bcd60e51b815260206004820152601760248201527f546f6b656e7320617265207374696c6c206c6f636b65640000000000000000006044820152606401610383565b6009810154610b09906001600160a01b037f0000000000000000000000000000000000000000000000000000000000000000169033906001600160801b03166117e4565b5050565b6001600160a01b0381166000908152600260209081526040808320805482518185028101850190935280835260609492939192909184015b828210156109fd576000848152602090819020604080516101008101909152600c850290910180546001600160a01b031682526001810180549293919291840191610b8f90612888565b80601f0160208091040260200160405190810160405280929190818152602001828054610bbb90612888565b8015610c085780601f10610bdd57610100808354040283529160200191610c08565b820191906000526020600020905b815481529060010190602001808311610beb57829003601f168201915b5050505050815260200160028201604051806080016040529081600082018054610c3190612888565b80601f0160208091040260200160405190810160405280929190818152602001828054610c5d90612888565b8015610caa5780601f10610c7f57610100808354040283529160200191610caa565b820191906000526020600020905b815481529060010190602001808311610c8d57829003601f168201915b50505050508152602001600182018054610cc390612888565b80601f0160208091040260200160405190810160405280929190818152602001828054610cef90612888565b8015610d3c5780601f10610d1157610100808354040283529160200191610d3c565b820191906000526020600020905b815481529060010190602001808311610d1f57829003601f168201915b505050918352505060028201546001600160a01b031660208083019190915260039092015460409182015291835260068401805483518184028101840190945280845293820193909160009084015b82821015610e64576000848152602090819020604080518082019091526002850290910180546001600160a01b031682526001810180549293919291840191610dd390612888565b80601f0160208091040260200160405190810160405280929190818152602001828054610dff90612888565b8015610e4c5780601f10610e2157610100808354040283529160200191610e4c565b820191906000526020600020905b815481529060010190602001808311610e2f57829003601f168201915b50505050508152505081526020019060010190610d8b565b5050509082525060408051808201825260078401546001600160a01b0316815260088401546001600160801b039081166020838101919091528085019290925260098501541691830191909152600a8301546060830152600b9092015460ff1615156080909101529082526001929092019101610b45565b6001602081905260009182526040909120805491810180546001600160a01b0390931692610f0990612888565b80601f0160208091040260200160405190810160405280929190818152602001828054610f3590612888565b8015610f825780601f10610f5757610100808354040283529160200191610f82565b820191906000526020600020905b815481529060010190602001808311610f6557829003601f168201915b50505050509080600201604051806080016040529081600082018054610fa790612888565b80601f0160208091040260200160405190810160405280929190818152602001828054610fd390612888565b80156110205780601f10610ff557610100808354040283529160200191611020565b820191906000526020600020905b81548152906001019060200180831161100357829003601f168201915b5050505050815260200160018201805461103990612888565b80601f016020809104026020016040519081016040528092919081815260200182805461106590612888565b80156110b25780601f10611087576101008083540402835291602001916110b2565b820191906000526020600020905b81548152906001019060200180831161109557829003601f168201915b505050918352505060028201546001600160a01b039081166020808401919091526003909301546040928301528151808301909252600785015416815260088401546001600160801b03908116928201929092526009840154600a850154600b909501549394919392169160ff1687565b6000828152600160205260409020600b81015460ff16156111565760405162461bcd60e51b815260040161038390612aed565b80600a0154421061119f5760405162461bcd60e51b8152602060048201526013602482015272105d58dd1a5bdb881a185cc8195e1c1a5c9959606a1b6044820152606401610383565b600083815260036020908152604080832033845290915290205460ff16156111fd5760405162461bcd60e51b8152602060048201526011602482015270105b1c9958591e4819195c1bdcda5d1959607a1b6044820152606401610383565b6000838152600360209081526040808320338085529083528184208054600160ff1990911681179091558251808401909352908252818301868152600686018054808401825590865293909420825160029094020180546001600160a01b0319166001600160a01b03909416939093178355925190928201906112809082612910565b50505060098101546112c9906001600160a01b037f00000000000000000000000000000000000000000000000000000000000000001690339030906001600160801b0316611848565b336001600160a01b0316837f0aebdeac202f28be37e4f9405aceae67b58f4e341186d0dcb3d4443b306043b7846040516113039190612858565b60405180910390a3505050565b6002602052816000526040600020818154811061132c57600080fd5b60009182526020909120600c9091020180546001820180546001600160a01b039092169450919250610f0990612888565b600083815260016020526040902080548491906001600160a01b031633146113bf5760405162461bcd60e51b81526020600482015260156024820152742cb7ba9030b932903737ba103a34329037bbb732b960591b6044820152606401610383565b600085815260016020526040902080546001600160a01b031633146114265760405162461bcd60e51b815260206004820152601960248201527f596f75206e656564206f776e6572206f662061756374696f6e000000000000006044820152606401610383565b6000868152600160205260409020600a01544210156114835760405162461bcd60e51b8152602060048201526019602482015278105d58dd1a5bdb881a185cc81b9bdd08195b991959081e595d603a1b6044820152606401610383565b600b81015460ff16156114a85760405162461bcd60e51b815260040161038390612aed565b6114b3858786611887565b600981015460208601516001600160801b039182169116111561152d5760405162461bcd60e51b815260206004820152602c60248201527f57696e6e657220686173206d6f726520626964207072696365207468616e206460448201526b65706f73697420707269636560a01b6064820152608401610383565b84516007820180546001600160a01b0319166001600160a01b0392831690811790915560208701516008840180546001600160801b0319166001600160801b03909216919091179055600b8301805460ff191660011790556004808401546005850154604051632142170760e11b815230938101939093526024830193909352604482019290925291169081906342842e0e90606401600060405180830381600087803b1580156115dd57600080fd5b505af11580156115f1573d6000803e3d6000fd5b50505050600882015460098301546001600160801b039182169116111561167f5760078201546008830154600984015461167f926001600160a01b031691611645916001600160801b039182169116612b18565b6001600160a01b037f00000000000000000000000000000000000000000000000000000000000000001691906001600160801b03166117e4565b60088201546116c3906001600160a01b037f0000000000000000000000000000000000000000000000000000000000000000169033906001600160801b03166117e4565b600782015460088301546040516001600160801b0390911681526001600160a01b039091169088907fcea9b5625991aa873d047c1eeaa9a77558ac53784c52b0647767e11e97c7a8849060200160405180910390a350505050505050565b6060600082516001600160401b0381111561173e5761173e6120f1565b6040519080825280601f01601f191660200182016040528015611768576020820181803683370190505b50905060005b83518110156117dd578381600186516117879190612b37565b6117919190612b37565b815181106117a1576117a1612b4a565b602001015160f81c60f81b8282815181106117be576117be612b4a565b60200101906001600160f81b031916908160001a90535060010161176e565b5092915050565b6040516001600160a01b0383811660248301526044820183905261184391859182169063a9059cbb906064015b604051602081830303815290604052915060e01b6020820180516001600160e01b038381831617835250505050611c63565b505050565b6040516001600160a01b0384811660248301528381166044830152606482018390526118819186918216906323b872dd90608401611811565b50505050565b600080600080600080600080888060200190518101906118a79190612ba5565b97509750975097509750975097509750847f2d3d27d6ced831878d074bc67f50a804798145815c83d10a51d282400bc2a84460001b146118fd5760405163636ca83360e11b815260048101869052602401610383565b606084901c331461195a5760405162461bcd60e51b815260206004820152602160248201527f70726f6f6647656e657261746f724164647220646f6573206e6f74206d6174636044820152600d60fb1b6064820152608401610383565b8751602089012086146119a65760405162461bcd60e51b8152602060048201526014602482015273125b9d985b1a59081c1d589b1a58c81a5b9c1d5d60621b6044820152606401610383565b60008060006119b48b611cd4565b9250925092508d600001516001600160a01b0316826001600160a01b031614611a1f5760405162461bcd60e51b815260206004820152601e60248201527f57696e6e657220696e2070726f6f6620646f6573206e6f74206d6174636800006044820152606401610383565b8d602001516001600160801b0316816001600160801b031614611a845760405162461bcd60e51b815260206004820152601e60248201527f57696e6e657220696e2070726f6f6620646f6573206e6f74206d6174636800006044820152606401610383565b82611a8e8e611d31565b14611adb5760405162461bcd60e51b815260206004820152601b60248201527f41756374696f6e206861736820646f6573206e6f74206d6174636800000000006044820152606401610383565b6000807358f280bebe9b34c9939c3c39e0890c81f163b6236001600160a01b03168c8c8c8c8c8c8c73815aeca64a974297942d2bbf034abee22a38a003604051602401611b2f989796959493929190612c62565b60408051601f198184030181529181526020820180516001600160e01b03166306045a9160e01b17905251611b649190612cc4565b600060405180830381855afa9150503d8060008114611b9f576040519150601f19603f3d011682016040523d82523d6000602084013e611ba4565b606091505b509150915081611beb5760405162461bcd60e51b81526020600482015260126024820152711cdd185d1a58d7d8d85b1b0819985a5b195960721b6044820152606401610383565b600081806020019051810190611c019190612ce0565b905080611c505760405162461bcd60e51b815260206004820152601b60248201527f70726f6f66206e6f7420696e636c7564656420696e20626174636800000000006044820152606401610383565b5050505050505050505050505050505050565b600080602060008451602086016000885af180611c86576040513d6000823e3d81fd5b50506000513d91508115611c9e578060011415611cab565b6001600160a01b0384163b155b1561188157604051635274afe760e01b81526001600160a01b0385166004820152602401610383565b6000806000611ce68460006020611ee7565b611cef90612d02565b9250611cfe8460286014611ee7565b611d0790612d26565b60601c9150611d1c61030c85603c6010611ee7565b611d2590612d6a565b60801c90509193909250565b600081815260016020908152604080832060060180548251818502810185019093528083528493849084015b82821015611e36576000848152602090819020604080518082019091526002850290910180546001600160a01b031682526001810180549293919291840191611da590612888565b80601f0160208091040260200160405190810160405280929190818152602001828054611dd190612888565b8015611e1e5780601f10611df357610100808354040283529160200191611e1e565b820191906000526020600020905b815481529060010190602001808311611e0157829003601f168201915b50505050508152505081526020019060010190611d5d565b505050509050600083604051602001611e5191815260200190565b604051602081830303815290604052905060005b8251811015611ed75781838281518110611e8157611e81612b4a565b602002602001015160000151848381518110611e9f57611e9f612b4a565b602002602001015160200151604051602001611ebd93929190612da4565b60408051601f198184030181529190529150600101611e65565b5080516020909101209392505050565b8251606090611ef683856129e7565b1115611f3a5760405162461bcd60e51b8152602060048201526013602482015272536c696365206f7574206f6620626f756e647360681b6044820152606401610383565b6000826001600160401b03811115611f5457611f546120f1565b6040519080825280601f01601f191660200182016040528015611f7e576020820181803683370190505b50905060005b83811015611fe35785611f9782876129e7565b81518110611fa757611fa7612b4a565b602001015160f81c60f81b828281518110611fc457611fc4612b4a565b60200101906001600160f81b031916908160001a905350600101611f84565b50949350505050565b8280548282559060005260206000209060020281019282156120615760005260206000209160020282015b8281111561206157825482546001600160a01b0319166001600160a01b03909116178255828260018082019061204f90840182612a19565b50505091600201919060020190612017565b5061206d929150612071565b5090565b8082111561206d5780546001600160a01b03191681556000612096600183018261209f565b50600201612071565b5080546120ab90612888565b6000825580601f106120bb575050565b601f0160209004906000526020600020908101906120d991906120dc565b50565b5b8082111561206d57600081556001016120dd565b634e487b7160e01b600052604160045260246000fd5b604051601f8201601f191681016001600160401b038111828210171561212f5761212f6120f1565b604052919050565b60006001600160401b03821115612150576121506120f1565b50601f01601f191660200190565b600082601f83011261216f57600080fd5b813560208301600061218861218384612137565b612107565b905082815285838301111561219c57600080fd5b82826020830137600092810160200192909252509392505050565b6001600160a01b03811681146120d957600080fd5b80356001600160801b03811681146121e357600080fd5b919050565b600080600080600080600060e0888a03121561220357600080fd5b87356001600160401b0381111561221957600080fd5b6122258a828b0161215e565b9750506020880135612236816121b7565b95506040880135945060608801356001600160401b0381111561225857600080fd5b6122648a828b0161215e565b94505060808801356001600160401b0381111561228057600080fd5b61228c8a828b0161215e565b93505061229b60a089016121cc565b96999598509396929591949193505060c09091013590565b6000602082840312156122c557600080fd5b5035919050565b60005b838110156122e75781810151838201526020016122cf565b50506000910152565b600081518084526123088160208601602086016122cc565b601f01601f19169290920160200192915050565b6000602082016020835280845180835260408501915060408160051b86010192506020860160005b8281101561239557868503603f19018452815180516001600160a01b0316865260209081015160409187018290529061237f908701826122f0565b9550506020938401939190910190600101612344565b50929695505050505050565b6000806000806000608086880312156123b957600080fd5b85356123c4816121b7565b945060208601356123d4816121b7565b93506040860135925060608601356001600160401b038111156123f657600080fd5b8601601f8101881361240757600080fd5b80356001600160401b0381111561241d57600080fd5b88602082840101111561242f57600080fd5b959894975092955050506020019190565b60006020828403121561245257600080fd5b813561245d816121b7565b9392505050565b600081516080845261247960808501826122f0565b90506020830151848203602086015261249282826122f0565b6040858101516001600160a01b0316908701526060948501519490950193909352509192915050565b600082825180855260208501945060208160051b8301016020850160005b8381101561252b57848303601f19018852815180516001600160a01b03168452602090810151604091850182905290612514908501826122f0565b6020998a01999094509290920191506001016124d9565b50909695505050505050565b6000602082016020835280845180835260408501915060408160051b86010192506020860160005b8281101561239557868503603f19018452815180516001600160a01b031686526020810151610120602088015261259a6101208801826122f0565b9050604082015187820360408901526125b38282612464565b915050606082015187820360608901526125cd82826124bb565b91505060808201516125fe608089018280516001600160a01b031682526020908101516001600160801b0316910152565b5060a08201516001600160801b03811660c08901525060c082015160e088015260e0820151915061263461010088018315159052565b955050602093840193919091019060010161255f565b6001600160a01b03881681526101006020820181905260009061266f908301896122f0565b82810360408401526126818189612464565b87516001600160a01b0316606085015260208801516001600160801b0316608085015291506126ad9050565b6001600160801b03851660a08301528360c083015282151560e083015298975050505050505050565b600080604083850312156126e957600080fd5b8235915060208301356001600160401b0381111561270657600080fd5b6127128582860161215e565b9150509250929050565b6000806040838503121561272f57600080fd5b823591506020830135612741816121b7565b809150509250929050565b6000806040838503121561275f57600080fd5b823561276a816121b7565b946020939093013593505050565b6000806000838503608081121561278e57600080fd5b843593506040601f19820112156127a457600080fd5b50604080519081016001600160401b03811182821017156127c7576127c76120f1565b60405260208501356127d8816121b7565b81526127e6604086016121cc565b6020820152915060608401356001600160401b0381111561280657600080fd5b6128128682870161215e565b9150509250925092565b60006020828403121561282e57600080fd5b81356001600160401b0381111561284457600080fd5b6128508482850161215e565b949350505050565b60208152600061245d60208301846122f0565b60006020828403121561287d57600080fd5b815161245d816121b7565b600181811c9082168061289c57607f821691505b6020821081036128bc57634e487b7160e01b600052602260045260246000fd5b50919050565b601f82111561184357806000526020600020601f840160051c810160208510156128e95750805b601f840160051c820191505b8181101561290957600081556001016128f5565b5050505050565b81516001600160401b03811115612929576129296120f1565b61293d816129378454612888565b846128c2565b6020601f82116001811461297457600083156129595750848201515b600184901b600019600386901b1c198216175b855550612909565b600084815260208120601f198516915b828110156129a45787850151825560209485019460019092019101612984565b50848210156129c25786840151600019600387901b60f8161c191681555b50505050600190811b01905550565b634e487b7160e01b600052601160045260246000fd5b808201808211156129fa576129fa6129d1565b92915050565b600060018201612a1257612a126129d1565b5060010190565b818103612a24575050565b612a2e8254612888565b6001600160401b03811115612a4557612a456120f1565b612a53816129378454612888565b6000601f821160018114612a855760008315612959575081850154600184901b600019600386901b1c1982161761296c565b600085815260209020601f19841690600086815260209020845b83811015612abf5782860154825560019586019590910190602001612a9f565b5085831015612add5781850154600019600388901b60f8161c191681555b5050505050600190811b01905550565b602080825260119082015270105d58dd1a5bdb881a185cc8195b991959607a1b604082015260600190565b6001600160801b0382811682821603908111156129fa576129fa6129d1565b818103818111156129fa576129fa6129d1565b634e487b7160e01b600052603260045260246000fd5b600082601f830112612b7157600080fd5b8151612b7f61218382612137565b818152846020838601011115612b9457600080fd5b6128508260208301602087016122cc565b600080600080600080600080610100898b031215612bc257600080fd5b88516001600160401b03811115612bd857600080fd5b612be48b828c01612b60565b60208b015160408c015160608d015160808e0151939c50919a509850965090506001600160601b031981168114612c1a57600080fd5b60a08a015160c08b015191955093506001600160401b03811115612c3d57600080fd5b612c498b828c01612b60565b60e09a909a0151989b979a509598949793969295505050565b8881528760208201528660408201526001600160601b03198616606082015284608082015261010060a08201526000612c9f6101008301866122f0565b60c0830194909452506001600160a01b039190911660e0909101529695505050505050565b60008251612cd68184602087016122cc565b9190910192915050565b600060208284031215612cf257600080fd5b8151801515811461245d57600080fd5b805160208083015191908110156128bc5760001960209190910360031b1b16919050565b805160208201516001600160601b0319811691906014821015612d63576001600160601b03196001600160601b03198360140360031b1b82161692505b5050919050565b805160208201516001600160801b0319811691906010821015612d63576001600160801b031960109290920360031b82901b161692915050565b60008451612db68184602089016122cc565b606085901b6001600160601b0319169083019081528351612dde8160148401602088016122cc565b016014019594505050505056fea2646970667358221220f537950c0c589554c0ebf71789412effb8aaec121c45e13cb2586a15b1d4c14a64736f6c634300081c0033","linkReferences":{}},"methodIdentifiers":{"ALIGNED_PAYMENT_SERVICE_ADDR()":"c8dc35a9","ALIGNED_SERVICE_MANAGER()":"470df9ec","ELF_COMMITMENT()":"38afd936","auctionCount()":"2ad71573","auctions(uint256)":"571a26a0","auctionsByOwner(address,uint256)":"cfeae748","createAuction(bytes,address,uint256,string,string,uint128,uint256)":"0a98877b","finalizeAuction(uint256,(address,uint128),bytes)":"e1c92e0a","getAuctionsByOwner(address)":"41177855","getBids(uint256)":"131d9a27","hasDeposited(uint256,address)":"99b1eb2e","lockToken()":"bca7a9e2","onERC721Received(address,address,uint256,bytes)":"150b7a02","placeBid(uint256,bytes)":"864bc0a0","reverse(bytes)":"ec11c823","withdraw(uint256)":"2e1a7d4d"},"id":46}