{"abi":[{"type":"constructor","inputs":[{"name":"_lockToken","type":"address","internalType":"address"}],"stateMutability":"nonpayable"},{"type":"function","name":"ALIGNED_PAYMENT_SERVICE_ADDR","inputs":[],"outputs":[{"name":"","type":"address","internalType":"address"}],"stateMutability":"view"},{"type":"function","name":"ALIGNED_SERVICE_MANAGER","inputs":[],"outputs":[{"name":"","type":"address","internalType":"address"}],"stateMutability":"view"},{"type":"function","name":"ELF_COMMITMENT","inputs":[],"outputs":[{"name":"","type":"bytes32","internalType":"bytes32"}],"stateMutability":"view"},{"type":"function","name":"auctionCount","inputs":[],"outputs":[{"name":"","type":"uint256","internalType":"uint256"}],"stateMutability":"view"},{"type":"function","name":"auctions","inputs":[{"name":"","type":"uint256","internalType":"uint256"}],"outputs":[{"name":"owner","type":"address","internalType":"address"},{"name":"encryptionKey","type":"bytes","internalType":"bytes"},{"name":"asset","type":"tuple","internalType":"struct ZkAuction.Asset","components":[{"name":"name","type":"string","internalType":"string"},{"name":"description","type":"string","internalType":"string"},{"name":"nftContract","type":"address","internalType":"address"},{"name":"tokenId","type":"uint256","internalType":"uint256"}]},{"name":"winner","type":"tuple","internalType":"struct ZkAuction.Winner","components":[{"name":"winner","type":"address","internalType":"address"},{"name":"price","type":"uint128","internalType":"uint128"}]},{"name":"depositPrice","type":"uint256","internalType":"uint256"},{"name":"endTime","type":"uint256","internalType":"uint256"},{"name":"ended","type":"bool","internalType":"bool"}],"stateMutability":"view"},{"type":"function","name":"auctionsByOwner","inputs":[{"name":"","type":"address","internalType":"address"},{"name":"","type":"uint256","internalType":"uint256"}],"outputs":[{"name":"owner","type":"address","internalType":"address"},{"name":"encryptionKey","type":"bytes","internalType":"bytes"},{"name":"asset","type":"tuple","internalType":"struct ZkAuction.Asset","components":[{"name":"name","type":"string","internalType":"string"},{"name":"description","type":"string","internalType":"string"},{"name":"nftContract","type":"address","internalType":"address"},{"name":"tokenId","type":"uint256","internalType":"uint256"}]},{"name":"winner","type":"tuple","internalType":"struct ZkAuction.Winner","components":[{"name":"winner","type":"address","internalType":"address"},{"name":"price","type":"uint128","internalType":"uint128"}]},{"name":"depositPrice","type":"uint256","internalType":"uint256"},{"name":"endTime","type":"uint256","internalType":"uint256"},{"name":"ended","type":"bool","internalType":"bool"}],"stateMutability":"view"},{"type":"function","name":"createAuction","inputs":[{"name":"_encryptionKey","type":"bytes","internalType":"bytes"},{"name":"_nftContract","type":"address","internalType":"address"},{"name":"_tokenId","type":"uint256","internalType":"uint256"},{"name":"_assetName","type":"string","internalType":"string"},{"name":"_assetDescription","type":"string","internalType":"string"},{"name":"_depositPrice","type":"uint256","internalType":"uint256"},{"name":"_duration","type":"uint256","internalType":"uint256"}],"outputs":[],"stateMutability":"nonpayable"},{"type":"function","name":"finalizeAuction","inputs":[{"name":"auctionId","type":"uint256","internalType":"uint256"},{"name":"_winner","type":"tuple","internalType":"struct ZkAuction.Winner","components":[{"name":"winner","type":"address","internalType":"address"},{"name":"price","type":"uint128","internalType":"uint128"}]},{"name":"proof","type":"bytes","internalType":"bytes"}],"outputs":[],"stateMutability":"nonpayable"},{"type":"function","name":"getAuctionsByOwner","inputs":[{"name":"owner","type":"address","internalType":"address"}],"outputs":[{"name":"","type":"tuple[]","internalType":"struct ZkAuction.Auction[]","components":[{"name":"owner","type":"address","internalType":"address"},{"name":"encryptionKey","type":"bytes","internalType":"bytes"},{"name":"asset","type":"tuple","internalType":"struct ZkAuction.Asset","components":[{"name":"name","type":"string","internalType":"string"},{"name":"description","type":"string","internalType":"string"},{"name":"nftContract","type":"address","internalType":"address"},{"name":"tokenId","type":"uint256","internalType":"uint256"}]},{"name":"bids","type":"tuple[]","internalType":"struct ZkAuction.Bid[]","components":[{"name":"bidder","type":"address","internalType":"address"},{"name":"encryptedPrice","type":"bytes","internalType":"bytes"}]},{"name":"winner","type":"tuple","internalType":"struct ZkAuction.Winner","components":[{"name":"winner","type":"address","internalType":"address"},{"name":"price","type":"uint128","internalType":"uint128"}]},{"name":"depositPrice","type":"uint256","internalType":"uint256"},{"name":"endTime","type":"uint256","internalType":"uint256"},{"name":"ended","type":"bool","internalType":"bool"}]}],"stateMutability":"view"},{"type":"function","name":"getBids","inputs":[{"name":"auctionId","type":"uint256","internalType":"uint256"}],"outputs":[{"name":"","type":"tuple[]","internalType":"struct ZkAuction.Bid[]","components":[{"name":"bidder","type":"address","internalType":"address"},{"name":"encryptedPrice","type":"bytes","internalType":"bytes"}]}],"stateMutability":"view"},{"type":"function","name":"hasDeposited","inputs":[{"name":"","type":"uint256","internalType":"uint256"},{"name":"","type":"address","internalType":"address"}],"outputs":[{"name":"","type":"bool","internalType":"bool"}],"stateMutability":"view"},{"type":"function","name":"lockToken","inputs":[],"outputs":[{"name":"","type":"address","internalType":"contract IERC20"}],"stateMutability":"view"},{"type":"function","name":"onERC721Received","inputs":[{"name":"operator","type":"address","internalType":"address"},{"name":"from","type":"address","internalType":"address"},{"name":"tokenId","type":"uint256","internalType":"uint256"},{"name":"data","type":"bytes","internalType":"bytes"}],"outputs":[{"name":"","type":"bytes4","internalType":"bytes4"}],"stateMutability":"pure"},{"type":"function","name":"placeBid","inputs":[{"name":"auctionId","type":"uint256","internalType":"uint256"},{"name":"_encryptedPrice","type":"bytes","internalType":"bytes"}],"outputs":[],"stateMutability":"nonpayable"},{"type":"function","name":"reverse","inputs":[{"name":"data","type":"bytes","internalType":"bytes"}],"outputs":[{"name":"","type":"bytes","internalType":"bytes"}],"stateMutability":"pure"},{"type":"function","name":"withdraw","inputs":[{"name":"auctionId","type":"uint256","internalType":"uint256"}],"outputs":[],"stateMutability":"nonpayable"},{"type":"event","name":"AuctionCreated","inputs":[{"name":"auctionId","type":"uint256","indexed":true,"internalType":"uint256"},{"name":"owner","type":"address","indexed":true,"internalType":"address"}],"anonymous":false},{"type":"event","name":"AuctionEnded","inputs":[{"name":"auctionId","type":"uint256","indexed":true,"internalType":"uint256"},{"name":"winner","type":"address","indexed":true,"internalType":"address"},{"name":"price","type":"uint128","indexed":false,"internalType":"uint128"}],"anonymous":false},{"type":"event","name":"NewBid","inputs":[{"name":"auctionId","type":"uint256","indexed":true,"internalType":"uint256"},{"name":"bidder","type":"address","indexed":true,"internalType":"address"},{"name":"encryptedPrice","type":"bytes","indexed":false,"internalType":"bytes"}],"anonymous":false},{"type":"error","name":"InvalidElf","inputs":[{"name":"submittedElf","type":"bytes32","internalType":"bytes32"}]},{"type":"error","name":"SafeERC20FailedOperation","inputs":[{"name":"token","type":"address","internalType":"address"}]}],"bytecode":{"object":"0x60a060405234801561001057600080fd5b50604051612e2e380380612e2e83398101604081905261002f91610040565b6001600160a01b0316608052610070565b60006020828403121561005257600080fd5b81516001600160a01b038116811461006957600080fd5b9392505050565b608051612d876100a7600039600081816102880152818161059501528181610d450152818161160801526116420152612d876000f3fe608060405234801561001057600080fd5b50600436106101005760003560e01c8063864bc0a011610097578063cfeae74811610066578063cfeae748146102c5578063dc937abc146102d8578063e1c92e0a146102eb578063ec11c823146102fe57600080fd5b8063864bc0a01461023257806399b1eb2e14610245578063bca7a9e214610283578063c8dc35a9146102aa57600080fd5b806338afd936116100d357806338afd9361461019257806341177855146101b9578063470df9ec146101d9578063571a26a01461020c57600080fd5b8063131d9a2714610105578063150b7a021461012e5780632ad71573146101665780632e1a7d4d1461017d575b600080fd5b6101186101133660046120a1565b61031e565b604051610125919061210a565b60405180910390f35b61014d61013c3660046121a4565b630a85bd0160e11b95945050505050565b6040516001600160e01b03199091168152602001610125565b61016f60005481565b604051908152602001610125565b61019061018b3660046120a1565b6104c5565b005b61016f7f7c10ecda2f867d4fef5077830efd2123b0d06a66de974699994861b12785c4f281565b6101cc6101c7366004612243565b6105c1565b604051610125919061233a565b6101f47358f280bebe9b34c9939c3c39e0890c81f163b62381565b6040516001600160a01b039091168152602001610125565b61021f61021a3660046120a1565b61098d565b6040516101259796959493929190612442565b61019061024036600461258b565b610bd2565b6102736102533660046125d1565b600360209081526000928352604080842090915290825290205460ff1681565b6040519015158152602001610125565b6101f47f000000000000000000000000000000000000000000000000000000000000000081565b6101f473815aeca64a974297942d2bbf034abee22a38a00381565b61021f6102d3366004612601565b610db6565b6101906102e636600461262d565b610e03565b6101906102f93660046126ef565b61131d565b61031161030c3660046127a1565b6116d1565b60405161012591906127dd565b6000818152600160205260409020600a01546060904210156103835760405162461bcd60e51b8152602060048201526019602482015278105d58dd1a5bdb881a185cc81b9bdd08195b991959081e595d603a1b60448201526064015b60405180910390fd5b6000828152600160205260409020600b015460ff16156103b55760405162461bcd60e51b815260040161037a906127f0565b600082815260016020908152604080832060060180548251818502810185019093528083529193909284015b828210156104ba576000848152602090819020604080518082019091526002850290910180546001600160a01b0316825260018101805492939192918401916104299061281b565b80601f01602080910402602001604051908101604052809291908181526020018280546104559061281b565b80156104a25780601f10610477576101008083540402835291602001916104a2565b820191906000526020600020905b81548152906001019060200180831161048557829003601f168201915b505050505081525050815260200190600101906103e1565b505050509050919050565b6000818152600160209081526040808320600383528184203385529092529091205460ff1661052e5760405162461bcd60e51b81526020600482015260156024820152744e6f20746f6b656e7320746f20776974686472617760581b604482015260640161037a565b600b81015460ff166105825760405162461bcd60e51b815260206004820152601760248201527f546f6b656e7320617265207374696c6c206c6f636b6564000000000000000000604482015260640161037a565b60098101546105bd906001600160a01b037f000000000000000000000000000000000000000000000000000000000000000016903390611794565b5050565b6001600160a01b0381166000908152600260209081526040808320805482518185028101850190935280835260609492939192909184015b828210156104ba576000848152602090819020604080516101008101909152600c850290910180546001600160a01b0316825260018101805492939192918401916106439061281b565b80601f016020809104026020016040519081016040528092919081815260200182805461066f9061281b565b80156106bc5780601f10610691576101008083540402835291602001916106bc565b820191906000526020600020905b81548152906001019060200180831161069f57829003601f168201915b50505050508152602001600282016040518060800160405290816000820180546106e59061281b565b80601f01602080910402602001604051908101604052809291908181526020018280546107119061281b565b801561075e5780601f106107335761010080835404028352916020019161075e565b820191906000526020600020905b81548152906001019060200180831161074157829003601f168201915b505050505081526020016001820180546107779061281b565b80601f01602080910402602001604051908101604052809291908181526020018280546107a39061281b565b80156107f05780601f106107c5576101008083540402835291602001916107f0565b820191906000526020600020905b8154815290600101906020018083116107d357829003601f168201915b505050918352505060028201546001600160a01b031660208083019190915260039092015460409182015291835260068401805483518184028101840190945280845293820193909160009084015b82821015610918576000848152602090819020604080518082019091526002850290910180546001600160a01b0316825260018101805492939192918401916108879061281b565b80601f01602080910402602001604051908101604052809291908181526020018280546108b39061281b565b80156109005780601f106108d557610100808354040283529160200191610900565b820191906000526020600020905b8154815290600101906020018083116108e357829003601f168201915b5050505050815250508152602001906001019061083f565b5050509082525060408051808201825260078401546001600160a01b0316815260088401546001600160801b031660208281019190915280840191909152600984015491830191909152600a8301546060830152600b9092015460ff16151560809091015290825260019290920191016105f9565b6001602081905260009182526040909120805491810180546001600160a01b03909316926109ba9061281b565b80601f01602080910402602001604051908101604052809291908181526020018280546109e69061281b565b8015610a335780601f10610a0857610100808354040283529160200191610a33565b820191906000526020600020905b815481529060010190602001808311610a1657829003601f168201915b50505050509080600201604051806080016040529081600082018054610a589061281b565b80601f0160208091040260200160405190810160405280929190818152602001828054610a849061281b565b8015610ad15780601f10610aa657610100808354040283529160200191610ad1565b820191906000526020600020905b815481529060010190602001808311610ab457829003601f168201915b50505050508152602001600182018054610aea9061281b565b80601f0160208091040260200160405190810160405280929190818152602001828054610b169061281b565b8015610b635780601f10610b3857610100808354040283529160200191610b63565b820191906000526020600020905b815481529060010190602001808311610b4657829003601f168201915b505050918352505060028201546001600160a01b039081166020808401919091526003909301546040928301528151808301909252600785015416815260088401546001600160801b0316918101919091526009830154600a840154600b909401549293919290919060ff1687565b6000828152600160205260409020600b81015460ff1615610c055760405162461bcd60e51b815260040161037a906127f0565b80600a01544210610c4e5760405162461bcd60e51b8152602060048201526013602482015272105d58dd1a5bdb881a185cc8195e1c1a5c9959606a1b604482015260640161037a565b600083815260036020908152604080832033845290915290205460ff1615610cac5760405162461bcd60e51b8152602060048201526011602482015270105b1c9958591e4819195c1bdcda5d1959607a1b604482015260640161037a565b6000838152600360209081526040808320338085529083528184208054600160ff1990911681179091558251808401909352908252818301868152600686018054808401825590865293909420825160029094020180546001600160a01b0319166001600160a01b0390941693909317835592519092820190610d2f90826128a3565b5050506009810154610d6f906001600160a01b037f00000000000000000000000000000000000000000000000000000000000000001690339030906117f8565b336001600160a01b0316837f0aebdeac202f28be37e4f9405aceae67b58f4e341186d0dcb3d4443b306043b784604051610da991906127dd565b60405180910390a3505050565b60026020528160005260406000208181548110610dd257600080fd5b60009182526020909120600c9091020180546001820180546001600160a01b0390921694509192506109ba9061281b565b60008211610e635760405162461bcd60e51b815260206004820152602760248201527f4465706f736974207072696365206d7573742062652067726561746572207468604482015266616e207a65726f60c81b606482015260840161037a565b60008111610ebe5760405162461bcd60e51b815260206004820152602260248201527f4475726174696f6e206d7573742062652067726561746572207468616e207a65604482015261726f60f01b606482015260840161037a565b6040516331a9108f60e11b815260048101869052869033906001600160a01b03831690636352211e90602401602060405180830381865afa158015610f07573d6000803e3d6000fd5b505050506040513d601f19601f82011682018060405250810190610f2b9190612964565b6001600160a01b031614610f8c5760405162461bcd60e51b815260206004820152602260248201527f596f75206d757374206f776e20746865204e465420746f2061756374696f6e206044820152611a5d60f21b606482015260840161037a565b60405163020604bf60e21b81526004810187905230906001600160a01b0383169063081812fc90602401602060405180830381865afa158015610fd3573d6000803e3d6000fd5b505050506040513d601f19601f82011682018060405250810190610ff79190612964565b6001600160a01b0316146110595760405162461bcd60e51b8152602060048201526024808201527f596f75206e65656420617070726f766520746865204e465420746f20636f6e746044820152631c9858dd60e21b606482015260840161037a565b60008054908061106883612997565b909155505060008054815260016020819052604090912080546001600160a01b0319163317815590810161109c8a826128a3565b5060408051608081018252878152602081018790526001600160a01b038a16918101919091526060810188905260028201806110d889826128a3565b50602082015160018201906110ed90826128a3565b5060408201516002820180546001600160a01b0319166001600160a01b039092169190911790556060909101516003909101556009810184905561113183426129b0565b600a820155600b8101805460ff191690553360009081526002602090815260408220805460018181018355918452919092208354600c9092020180546001600160a01b0319166001600160a01b039290921691909117815582918181019061119b908401826129c9565b506002828101908201806111af83826129c9565b506001818101906111c2908401826129c9565b5060028281015490820180546001600160a01b0319166001600160a01b03909216919091179055600391820154910155600682810180546112069284019190611f9c565b5060078281015490820180546001600160a01b0319166001600160a01b0392831617905560088084015490830180546001600160801b0319166001600160801b0390921691909117905560098084015490830155600a8084015490830155600b9283015492909101805460ff909316151560ff1990931692909217909155604051632142170760e11b815233600482015230602482015260448101899052908316906342842e0e90606401600060405180830381600087803b1580156112cb57600080fd5b505af11580156112df573d6000803e3d6000fd5b5050600080546040513394509092507f5d551e2a2cc977fd8c530317059b4f2d9f504fb82f7dfad736f8d56679bcdfd09190a3505050505050505050565b600083815260016020526040902080548491906001600160a01b0316331461137f5760405162461bcd60e51b81526020600482015260156024820152742cb7ba9030b932903737ba103a34329037bbb732b960591b604482015260640161037a565b600085815260016020526040902080546001600160a01b031633146113e65760405162461bcd60e51b815260206004820152601960248201527f596f75206e656564206f776e6572206f662061756374696f6e00000000000000604482015260640161037a565b6000868152600160205260409020600a01544210156114435760405162461bcd60e51b8152602060048201526019602482015278105d58dd1a5bdb881a185cc81b9bdd08195b991959081e595d603a1b604482015260640161037a565b600b81015460ff16156114685760405162461bcd60e51b815260040161037a906127f0565b611473858786611837565b806009015485602001516001600160801b031611156114e95760405162461bcd60e51b815260206004820152602c60248201527f57696e6e657220686173206d6f726520626964207072696365207468616e206460448201526b65706f73697420707269636560a01b606482015260840161037a565b84516007820180546001600160a01b0319166001600160a01b0392831690811790915560208701516008840180546001600160801b0319166001600160801b03909216919091179055600b8301805460ff191660011790556004808401546005850154604051632142170760e11b815230938101939093526024830193909352604482019290925291169081906342842e0e90606401600060405180830381600087803b15801561159957600080fd5b505af11580156115ad573d6000803e3d6000fd5b50505050600882015460098301546001600160801b03909116101561162f5760078201546008830154600984015461162f926001600160a01b0316916115fe916001600160801b0390911690612a9d565b6001600160a01b037f0000000000000000000000000000000000000000000000000000000000000000169190611794565b6008820154611673906001600160a01b037f0000000000000000000000000000000000000000000000000000000000000000169033906001600160801b0316611794565b600782015460088301546040516001600160801b0390911681526001600160a01b039091169088907fcea9b5625991aa873d047c1eeaa9a77558ac53784c52b0647767e11e97c7a8849060200160405180910390a350505050505050565b6060600082516001600160401b038111156116ee576116ee6124c5565b6040519080825280601f01601f191660200182016040528015611718576020820181803683370190505b50905060005b835181101561178d578381600186516117379190612a9d565b6117419190612a9d565b8151811061175157611751612ab0565b602001015160f81c60f81b82828151811061176e5761176e612ab0565b60200101906001600160f81b031916908160001a90535060010161171e565b5092915050565b6040516001600160a01b038381166024830152604482018390526117f391859182169063a9059cbb906064015b604051602081830303815290604052915060e01b6020820180516001600160e01b038381831617835250505050611c13565b505050565b6040516001600160a01b0384811660248301528381166044830152606482018390526118319186918216906323b872dd906084016117c1565b50505050565b600080600080600080600080888060200190518101906118579190612b0b565b97509750975097509750975097509750847f7c10ecda2f867d4fef5077830efd2123b0d06a66de974699994861b12785c4f260001b146118ad5760405163636ca83360e11b81526004810186905260240161037a565b606084901c331461190a5760405162461bcd60e51b815260206004820152602160248201527f70726f6f6647656e657261746f724164647220646f6573206e6f74206d6174636044820152600d60fb1b606482015260840161037a565b8751602089012086146119565760405162461bcd60e51b8152602060048201526014602482015273125b9d985b1a59081c1d589b1a58c81a5b9c1d5d60621b604482015260640161037a565b60008060006119648b611c84565b9250925092508d600001516001600160a01b0316826001600160a01b0316146119cf5760405162461bcd60e51b815260206004820152601e60248201527f57696e6e657220696e2070726f6f6620646f6573206e6f74206d617463680000604482015260640161037a565b8d602001516001600160801b0316816001600160801b031614611a345760405162461bcd60e51b815260206004820152601e60248201527f57696e6e657220696e2070726f6f6620646f6573206e6f74206d617463680000604482015260640161037a565b82611a3e8e611ce1565b14611a8b5760405162461bcd60e51b815260206004820152601b60248201527f41756374696f6e206861736820646f6573206e6f74206d617463680000000000604482015260640161037a565b6000807358f280bebe9b34c9939c3c39e0890c81f163b6236001600160a01b03168c8c8c8c8c8c8c73815aeca64a974297942d2bbf034abee22a38a003604051602401611adf989796959493929190612bc8565b60408051601f198184030181529181526020820180516001600160e01b03166306045a9160e01b17905251611b149190612c2a565b600060405180830381855afa9150503d8060008114611b4f576040519150601f19603f3d011682016040523d82523d6000602084013e611b54565b606091505b509150915081611b9b5760405162461bcd60e51b81526020600482015260126024820152711cdd185d1a58d7d8d85b1b0819985a5b195960721b604482015260640161037a565b600081806020019051810190611bb19190612c46565b905080611c005760405162461bcd60e51b815260206004820152601b60248201527f70726f6f66206e6f7420696e636c7564656420696e2062617463680000000000604482015260640161037a565b5050505050505050505050505050505050565b600080602060008451602086016000885af180611c36576040513d6000823e3d81fd5b50506000513d91508115611c4e578060011415611c5b565b6001600160a01b0384163b155b1561183157604051635274afe760e01b81526001600160a01b038516600482015260240161037a565b6000806000611c968460006020611e97565b611c9f90612c68565b9250611cae8460286014611e97565b611cb790612c8c565b60601c9150611ccc61030c85603c6010611e97565b611cd590612cd0565b60801c90509193909250565b600081815260016020908152604080832060060180548251818502810185019093528083528493849084015b82821015611de6576000848152602090819020604080518082019091526002850290910180546001600160a01b031682526001810180549293919291840191611d559061281b565b80601f0160208091040260200160405190810160405280929190818152602001828054611d819061281b565b8015611dce5780601f10611da357610100808354040283529160200191611dce565b820191906000526020600020905b815481529060010190602001808311611db157829003601f168201915b50505050508152505081526020019060010190611d0d565b505050509050600083604051602001611e0191815260200190565b604051602081830303815290604052905060005b8251811015611e875781838281518110611e3157611e31612ab0565b602002602001015160000151848381518110611e4f57611e4f612ab0565b602002602001015160200151604051602001611e6d93929190612d0a565b60408051601f198184030181529190529150600101611e15565b5080516020909101209392505050565b8251606090611ea683856129b0565b1115611eea5760405162461bcd60e51b8152602060048201526013602482015272536c696365206f7574206f6620626f756e647360681b604482015260640161037a565b6000826001600160401b03811115611f0457611f046124c5565b6040519080825280601f01601f191660200182016040528015611f2e576020820181803683370190505b50905060005b83811015611f935785611f4782876129b0565b81518110611f5757611f57612ab0565b602001015160f81c60f81b828281518110611f7457611f74612ab0565b60200101906001600160f81b031916908160001a905350600101611f34565b50949350505050565b8280548282559060005260206000209060020281019282156120115760005260206000209160020282015b8281111561201157825482546001600160a01b0319166001600160a01b039091161782558282600180820190611fff908401826129c9565b50505091600201919060020190611fc7565b5061201d929150612021565b5090565b8082111561201d5780546001600160a01b03191681556000612046600183018261204f565b50600201612021565b50805461205b9061281b565b6000825580601f1061206b575050565b601f016020900490600052602060002090810190612089919061208c565b50565b5b8082111561201d576000815560010161208d565b6000602082840312156120b357600080fd5b5035919050565b60005b838110156120d55781810151838201526020016120bd565b50506000910152565b600081518084526120f68160208601602086016120ba565b601f01601f19169290920160200192915050565b6000602082016020835280845180835260408501915060408160051b86010192506020860160005b8281101561218357868503603f19018452815180516001600160a01b0316865260209081015160409187018290529061216d908701826120de565b9550506020938401939190910190600101612132565b50929695505050505050565b6001600160a01b038116811461208957600080fd5b6000806000806000608086880312156121bc57600080fd5b85356121c78161218f565b945060208601356121d78161218f565b93506040860135925060608601356001600160401b038111156121f957600080fd5b8601601f8101881361220a57600080fd5b80356001600160401b0381111561222057600080fd5b88602082840101111561223257600080fd5b959894975092955050506020019190565b60006020828403121561225557600080fd5b81356122608161218f565b9392505050565b600081516080845261227c60808501826120de565b90506020830151848203602086015261229582826120de565b6040858101516001600160a01b0316908701526060948501519490950193909352509192915050565b600082825180855260208501945060208160051b8301016020850160005b8381101561232e57848303601f19018852815180516001600160a01b03168452602090810151604091850182905290612317908501826120de565b6020998a01999094509290920191506001016122dc565b50909695505050505050565b6000602082016020835280845180835260408501915060408160051b86010192506020860160005b8281101561218357868503603f19018452815180516001600160a01b031686526020810151610120602088015261239d6101208801826120de565b9050604082015187820360408901526123b68282612267565b915050606082015187820360608901526123d082826122be565b9150506080820151612401608089018280516001600160a01b031682526020908101516001600160801b0316910152565b5060a082015160c088015260c082015160e088015260e0820151915061242c61010088018315159052565b9550506020938401939190910190600101612362565b6001600160a01b038816815261010060208201819052600090612467908301896120de565b82810360408401526124798189612267565b87516001600160a01b0316606085015260208801516001600160801b0316608085015291506124a59050565b8460a08301528360c083015282151560e083015298975050505050505050565b634e487b7160e01b600052604160045260246000fd5b604051601f8201601f191681016001600160401b0381118282101715612503576125036124c5565b604052919050565b60006001600160401b03821115612524576125246124c5565b50601f01601f191660200190565b600082601f83011261254357600080fd5b813560208301600061255c6125578461250b565b6124db565b905082815285838301111561257057600080fd5b82826020830137600092810160200192909252509392505050565b6000806040838503121561259e57600080fd5b8235915060208301356001600160401b038111156125bb57600080fd5b6125c785828601612532565b9150509250929050565b600080604083850312156125e457600080fd5b8235915060208301356125f68161218f565b809150509250929050565b6000806040838503121561261457600080fd5b823561261f8161218f565b946020939093013593505050565b600080600080600080600060e0888a03121561264857600080fd5b87356001600160401b0381111561265e57600080fd5b61266a8a828b01612532565b975050602088013561267b8161218f565b95506040880135945060608801356001600160401b0381111561269d57600080fd5b6126a98a828b01612532565b94505060808801356001600160401b038111156126c557600080fd5b6126d18a828b01612532565b979a969950949793969560a0850135955060c0909401359392505050565b6000806000838503608081121561270557600080fd5b843593506040601f198201121561271b57600080fd5b50604080519081016001600160401b038111828210171561273e5761273e6124c5565b604052602085013561274f8161218f565b815260408501356001600160801b038116811461276b57600080fd5b6020820152915060608401356001600160401b0381111561278b57600080fd5b61279786828701612532565b9150509250925092565b6000602082840312156127b357600080fd5b81356001600160401b038111156127c957600080fd5b6127d584828501612532565b949350505050565b60208152600061226060208301846120de565b602080825260119082015270105d58dd1a5bdb881a185cc8195b991959607a1b604082015260600190565b600181811c9082168061282f57607f821691505b60208210810361284f57634e487b7160e01b600052602260045260246000fd5b50919050565b601f8211156117f357806000526020600020601f840160051c8101602085101561287c5750805b601f840160051c820191505b8181101561289c5760008155600101612888565b5050505050565b81516001600160401b038111156128bc576128bc6124c5565b6128d0816128ca845461281b565b84612855565b6020601f82116001811461290757600083156128ec5750848201515b600184901b600019600386901b1c198216175b85555061289c565b600084815260208120601f198516915b828110156129375787850151825560209485019460019092019101612917565b50848210156129555786840151600019600387901b60f8161c191681555b50505050600190811b01905550565b60006020828403121561297657600080fd5b81516122608161218f565b634e487b7160e01b600052601160045260246000fd5b6000600182016129a9576129a9612981565b5060010190565b808201808211156129c3576129c3612981565b92915050565b8181036129d4575050565b6129de825461281b565b6001600160401b038111156129f5576129f56124c5565b612a03816128ca845461281b565b6000601f821160018114612a3557600083156128ec575081850154600184901b600019600386901b1c198216176128ff565b600085815260209020601f19841690600086815260209020845b83811015612a6f5782860154825560019586019590910190602001612a4f565b5085831015612a8d5781850154600019600388901b60f8161c191681555b5050505050600190811b01905550565b818103818111156129c3576129c3612981565b634e487b7160e01b600052603260045260246000fd5b600082601f830112612ad757600080fd5b8151612ae56125578261250b565b818152846020838601011115612afa57600080fd5b6127d58260208301602087016120ba565b600080600080600080600080610100898b031215612b2857600080fd5b88516001600160401b03811115612b3e57600080fd5b612b4a8b828c01612ac6565b60208b015160408c015160608d015160808e0151939c50919a509850965090506001600160601b031981168114612b8057600080fd5b60a08a015160c08b015191955093506001600160401b03811115612ba357600080fd5b612baf8b828c01612ac6565b60e09a909a0151989b979a509598949793969295505050565b8881528760208201528660408201526001600160601b03198616606082015284608082015261010060a08201526000612c056101008301866120de565b60c0830194909452506001600160a01b039190911660e0909101529695505050505050565b60008251612c3c8184602087016120ba565b9190910192915050565b600060208284031215612c5857600080fd5b8151801515811461226057600080fd5b8051602080830151919081101561284f5760001960209190910360031b1b16919050565b805160208201516001600160601b0319811691906014821015612cc9576001600160601b03196001600160601b03198360140360031b1b82161692505b5050919050565b805160208201516001600160801b0319811691906010821015612cc9576001600160801b031960109290920360031b82901b161692915050565b60008451612d1c8184602089016120ba565b606085901b6001600160601b0319169083019081528351612d448160148401602088016120ba565b016014019594505050505056fea264697066735822122098fc7effe52d29bffc51b5eb64d31ac477b866d353a6edeb7b38f2a3488ba1bd64736f6c634300081c0033","linkReferences":{}},"methodIdentifiers":{"ALIGNED_PAYMENT_SERVICE_ADDR()":"c8dc35a9","ALIGNED_SERVICE_MANAGER()":"470df9ec","ELF_COMMITMENT()":"38afd936","auctionCount()":"2ad71573","auctions(uint256)":"571a26a0","auctionsByOwner(address,uint256)":"cfeae748","createAuction(bytes,address,uint256,string,string,uint256,uint256)":"dc937abc","finalizeAuction(uint256,(address,uint128),bytes)":"e1c92e0a","getAuctionsByOwner(address)":"41177855","getBids(uint256)":"131d9a27","hasDeposited(uint256,address)":"99b1eb2e","lockToken()":"bca7a9e2","onERC721Received(address,address,uint256,bytes)":"150b7a02","placeBid(uint256,bytes)":"864bc0a0","reverse(bytes)":"ec11c823","withdraw(uint256)":"2e1a7d4d"},"id":48}