{
  "abi": [
    {
      "type": "constructor",
      "inputs": [
        {
          "name": "_lockToken",
          "type": "address",
          "internalType": "address"
        }
      ],
      "stateMutability": "nonpayable"
    },
    {
      "type": "function",
      "name": "auctionCount",
      "inputs": [],
      "outputs": [
        {
          "name": "",
          "type": "uint256",
          "internalType": "uint256"
        }
      ],
      "stateMutability": "view"
    },
    {
      "type": "function",
      "name": "auctions",
      "inputs": [
        {
          "name": "",
          "type": "uint256",
          "internalType": "uint256"
        }
      ],
      "outputs": [
        {
          "name": "owner",
          "type": "address",
          "internalType": "address"
        },
        {
          "name": "ownerPublicKey",
          "type": "bytes",
          "internalType": "bytes"
        },
        {
          "name": "asset",
          "type": "tuple",
          "internalType": "struct ZkAuction.Asset",
          "components": [
            {
              "name": "name",
              "type": "string",
              "internalType": "string"
            },
            {
              "name": "description",
              "type": "string",
              "internalType": "string"
            },
            {
              "name": "nftContract",
              "type": "address",
              "internalType": "address"
            },
            {
              "name": "tokenId",
              "type": "uint256",
              "internalType": "uint256"
            }
          ]
        },
        {
          "name": "winner",
          "type": "tuple",
          "internalType": "struct ZkAuction.Winner",
          "components": [
            {
              "name": "winner",
              "type": "address",
              "internalType": "address"
            },
            {
              "name": "price",
              "type": "uint256",
              "internalType": "uint256"
            }
          ]
        },
        {
          "name": "depositPrice",
          "type": "uint256",
          "internalType": "uint256"
        },
        {
          "name": "endTime",
          "type": "uint256",
          "internalType": "uint256"
        },
        {
          "name": "ended",
          "type": "bool",
          "internalType": "bool"
        }
      ],
      "stateMutability": "view"
    },
    {
      "type": "function",
      "name": "auctionsByOwner",
      "inputs": [
        {
          "name": "",
          "type": "address",
          "internalType": "address"
        },
        {
          "name": "",
          "type": "uint256",
          "internalType": "uint256"
        }
      ],
      "outputs": [
        {
          "name": "owner",
          "type": "address",
          "internalType": "address"
        },
        {
          "name": "ownerPublicKey",
          "type": "bytes",
          "internalType": "bytes"
        },
        {
          "name": "asset",
          "type": "tuple",
          "internalType": "struct ZkAuction.Asset",
          "components": [
            {
              "name": "name",
              "type": "string",
              "internalType": "string"
            },
            {
              "name": "description",
              "type": "string",
              "internalType": "string"
            },
            {
              "name": "nftContract",
              "type": "address",
              "internalType": "address"
            },
            {
              "name": "tokenId",
              "type": "uint256",
              "internalType": "uint256"
            }
          ]
        },
        {
          "name": "winner",
          "type": "tuple",
          "internalType": "struct ZkAuction.Winner",
          "components": [
            {
              "name": "winner",
              "type": "address",
              "internalType": "address"
            },
            {
              "name": "price",
              "type": "uint256",
              "internalType": "uint256"
            }
          ]
        },
        {
          "name": "depositPrice",
          "type": "uint256",
          "internalType": "uint256"
        },
        {
          "name": "endTime",
          "type": "uint256",
          "internalType": "uint256"
        },
        {
          "name": "ended",
          "type": "bool",
          "internalType": "bool"
        }
      ],
      "stateMutability": "view"
    },
    {
      "type": "function",
      "name": "createAuction",
      "inputs": [
        {
          "name": "_ownerPublicKey",
          "type": "bytes",
          "internalType": "bytes"
        },
        {
          "name": "_nftContract",
          "type": "address",
          "internalType": "address"
        },
        {
          "name": "_tokenId",
          "type": "uint256",
          "internalType": "uint256"
        },
        {
          "name": "_assetName",
          "type": "string",
          "internalType": "string"
        },
        {
          "name": "_assetDescription",
          "type": "string",
          "internalType": "string"
        },
        {
          "name": "_depositPrice",
          "type": "uint256",
          "internalType": "uint256"
        },
        {
          "name": "_duration",
          "type": "uint256",
          "internalType": "uint256"
        }
      ],
      "outputs": [],
      "stateMutability": "nonpayable"
    },
    {
      "type": "function",
      "name": "finalizeAuction",
      "inputs": [
        {
          "name": "auctionId",
          "type": "uint256",
          "internalType": "uint256"
        },
        {
          "name": "_winner",
          "type": "tuple",
          "internalType": "struct ZkAuction.Winner",
          "components": [
            {
              "name": "winner",
              "type": "address",
              "internalType": "address"
            },
            {
              "name": "price",
              "type": "uint256",
              "internalType": "uint256"
            }
          ]
        },
        {
          "name": "inputHash",
          "type": "bytes32",
          "internalType": "bytes32"
        },
        {
          "name": "proof",
          "type": "bytes",
          "internalType": "bytes"
        }
      ],
      "outputs": [],
      "stateMutability": "nonpayable"
    },
    {
      "type": "function",
      "name": "getAuctionsByOwner",
      "inputs": [
        {
          "name": "owner",
          "type": "address",
          "internalType": "address"
        }
      ],
      "outputs": [
        {
          "name": "",
          "type": "tuple[]",
          "internalType": "struct ZkAuction.Auction[]",
          "components": [
            {
              "name": "owner",
              "type": "address",
              "internalType": "address"
            },
            {
              "name": "ownerPublicKey",
              "type": "bytes",
              "internalType": "bytes"
            },
            {
              "name": "asset",
              "type": "tuple",
              "internalType": "struct ZkAuction.Asset",
              "components": [
                {
                  "name": "name",
                  "type": "string",
                  "internalType": "string"
                },
                {
                  "name": "description",
                  "type": "string",
                  "internalType": "string"
                },
                {
                  "name": "nftContract",
                  "type": "address",
                  "internalType": "address"
                },
                {
                  "name": "tokenId",
                  "type": "uint256",
                  "internalType": "uint256"
                }
              ]
            },
            {
              "name": "bids",
              "type": "tuple[]",
              "internalType": "struct ZkAuction.Bid[]",
              "components": [
                {
                  "name": "bidder",
                  "type": "address",
                  "internalType": "address"
                },
                {
                  "name": "encryptedPrice",
                  "type": "bytes",
                  "internalType": "bytes"
                }
              ]
            },
            {
              "name": "winner",
              "type": "tuple",
              "internalType": "struct ZkAuction.Winner",
              "components": [
                {
                  "name": "winner",
                  "type": "address",
                  "internalType": "address"
                },
                {
                  "name": "price",
                  "type": "uint256",
                  "internalType": "uint256"
                }
              ]
            },
            {
              "name": "depositPrice",
              "type": "uint256",
              "internalType": "uint256"
            },
            {
              "name": "endTime",
              "type": "uint256",
              "internalType": "uint256"
            },
            {
              "name": "ended",
              "type": "bool",
              "internalType": "bool"
            }
          ]
        }
      ],
      "stateMutability": "view"
    },
    {
      "type": "function",
      "name": "getBids",
      "inputs": [
        {
          "name": "auctionId",
          "type": "uint256",
          "internalType": "uint256"
        }
      ],
      "outputs": [
        {
          "name": "",
          "type": "tuple[]",
          "internalType": "struct ZkAuction.Bid[]",
          "components": [
            {
              "name": "bidder",
              "type": "address",
              "internalType": "address"
            },
            {
              "name": "encryptedPrice",
              "type": "bytes",
              "internalType": "bytes"
            }
          ]
        }
      ],
      "stateMutability": "view"
    },
    {
      "type": "function",
      "name": "hasDeposited",
      "inputs": [
        {
          "name": "",
          "type": "uint256",
          "internalType": "uint256"
        },
        {
          "name": "",
          "type": "address",
          "internalType": "address"
        }
      ],
      "outputs": [
        {
          "name": "",
          "type": "bool",
          "internalType": "bool"
        }
      ],
      "stateMutability": "view"
    },
    {
      "type": "function",
      "name": "lockToken",
      "inputs": [],
      "outputs": [
        {
          "name": "",
          "type": "address",
          "internalType": "contract IERC20"
        }
      ],
      "stateMutability": "view"
    },
    {
      "type": "function",
      "name": "onERC721Received",
      "inputs": [
        {
          "name": "operator",
          "type": "address",
          "internalType": "address"
        },
        {
          "name": "from",
          "type": "address",
          "internalType": "address"
        },
        {
          "name": "tokenId",
          "type": "uint256",
          "internalType": "uint256"
        },
        {
          "name": "data",
          "type": "bytes",
          "internalType": "bytes"
        }
      ],
      "outputs": [
        {
          "name": "",
          "type": "bytes4",
          "internalType": "bytes4"
        }
      ],
      "stateMutability": "pure"
    },
    {
      "type": "function",
      "name": "placeBid",
      "inputs": [
        {
          "name": "auctionId",
          "type": "uint256",
          "internalType": "uint256"
        },
        {
          "name": "_encryptedPrice",
          "type": "bytes",
          "internalType": "bytes"
        }
      ],
      "outputs": [],
      "stateMutability": "nonpayable"
    },
    {
      "type": "function",
      "name": "withdraw",
      "inputs": [
        {
          "name": "auctionId",
          "type": "uint256",
          "internalType": "uint256"
        }
      ],
      "outputs": [],
      "stateMutability": "nonpayable"
    },
    {
      "type": "event",
      "name": "AuctionCreated",
      "inputs": [
        {
          "name": "auctionId",
          "type": "uint256",
          "indexed": true,
          "internalType": "uint256"
        },
        {
          "name": "owner",
          "type": "address",
          "indexed": true,
          "internalType": "address"
        }
      ],
      "anonymous": false
    },
    {
      "type": "event",
      "name": "AuctionEnded",
      "inputs": [
        {
          "name": "auctionId",
          "type": "uint256",
          "indexed": true,
          "internalType": "uint256"
        },
        {
          "name": "winner",
          "type": "address",
          "indexed": true,
          "internalType": "address"
        },
        {
          "name": "price",
          "type": "uint256",
          "indexed": false,
          "internalType": "uint256"
        }
      ],
      "anonymous": false
    },
    {
      "type": "event",
      "name": "NewBid",
      "inputs": [
        {
          "name": "auctionId",
          "type": "uint256",
          "indexed": true,
          "internalType": "uint256"
        },
        {
          "name": "bidder",
          "type": "address",
          "indexed": true,
          "internalType": "address"
        },
        {
          "name": "encryptedPrice",
          "type": "bytes",
          "indexed": false,
          "internalType": "bytes"
        }
      ],
      "anonymous": false
    },
    {
      "type": "error",
      "name": "SafeERC20FailedOperation",
      "inputs": [
        {
          "name": "token",
          "type": "address",
          "internalType": "address"
        }
      ]
    }
  ],
  "bytecode": {
    "object": "0x60a060405234801561001057600080fd5b5060405161221338038061221383398101604081905261002f91610040565b6001600160a01b0316608052610070565b60006020828403121561005257600080fd5b81516001600160a01b038116811461006957600080fd5b9392505050565b60805161216c6100a7600039600081816101f5015281816106a0015281816106da015281816108270152610fc5015261216c6000f3fe608060405234801561001057600080fd5b50600436106100b45760003560e01c8063571a26a011610071578063571a26a014610179578063864bc0a01461019f57806399b1eb2e146101b2578063bca7a9e2146101f0578063cfeae7481461022f578063dc937abc1461024257600080fd5b8063131d9a27146100b957806314b004f4146100e2578063150b7a02146100f75780632ad715731461012f5780632e1a7d4d146101465780634117785514610159575b600080fd5b6100cc6100c736600461179a565b610255565b6040516100d991906117f9565b60405180910390f35b6100f56100f036600461193f565b6103fc565b005b6101166101053660046119e8565b630a85bd0160e11b95945050505050565b6040516001600160e01b031990911681526020016100d9565b61013860005481565b6040519081526020016100d9565b6100f561015436600461179a565b610757565b61016c610167366004611a89565b610853565b6040516100d99190611b80565b61018c61018736600461179a565b610c16565b6040516100d99796959493929190611c7f565b6100f56101ad366004611cf9565b610e52565b6101e06101c0366004611d40565b600360209081526000928352604080842090915290825290205460ff1681565b60405190151581526020016100d9565b6102177f000000000000000000000000000000000000000000000000000000000000000081565b6040516001600160a01b0390911681526020016100d9565b61018c61023d366004611d70565b611036565b6100f5610250366004611d9c565b611083565b6000818152600160205260409020600a01546060904210156102ba5760405162461bcd60e51b8152602060048201526019602482015278105d58dd1a5bdb881a185cc81b9bdd08195b991959081e595d603a1b60448201526064015b60405180910390fd5b6000828152600160205260409020600b015460ff16156102ec5760405162461bcd60e51b81526004016102b190611e61565b600082815260016020908152604080832060060180548251818502810185019093528083529193909284015b828210156103f1576000848152602090819020604080518082019091526002850290910180546001600160a01b03168252600181018054929391929184019161036090611e8c565b80601f016020809104026020016040519081016040528092919081815260200182805461038c90611e8c565b80156103d95780601f106103ae576101008083540402835291602001916103d9565b820191906000526020600020905b8154815290600101906020018083116103bc57829003601f168201915b50505050508152505081526020019060010190610318565b505050509050919050565b600084815260016020526040902080548591906001600160a01b0316331461045e5760405162461bcd60e51b81526020600482015260156024820152742cb7ba9030b932903737ba103a34329037bbb732b960591b60448201526064016102b1565b600086815260016020526040902080546001600160a01b031633146104c55760405162461bcd60e51b815260206004820152601960248201527f596f75206e656564206f776e6572206f662061756374696f6e0000000000000060448201526064016102b1565b6000878152600160205260409020600a01544210156105225760405162461bcd60e51b8152602060048201526019602482015278105d58dd1a5bdb881a185cc81b9bdd08195b991959081e595d603a1b60448201526064016102b1565b600b81015460ff16156105475760405162461bcd60e51b81526004016102b190611e61565b8060090154866020015111156105b45760405162461bcd60e51b815260206004820152602c60248201527f57696e6e657220686173206d6f726520626964207072696365207468616e206460448201526b65706f73697420707269636560a01b60648201526084016102b1565b85516007820180546001600160a01b0319166001600160a01b0392831690811790915560208801516008840155600b8301805460ff191660011790556004808401546005850154604051632142170760e11b815230938101939093526024830193909352604482019290925291169081906342842e0e90606401600060405180830381600087803b15801561064857600080fd5b505af115801561065c573d6000803e3d6000fd5b505050506008820154600983015411156106c7576007820154600883015460098401546106c7926001600160a01b03169161069691611edc565b6001600160a01b037f0000000000000000000000000000000000000000000000000000000000000000169190611581565b6008820154610702906001600160a01b037f000000000000000000000000000000000000000000000000000000000000000016903390611581565b600782015460088301546040519081526001600160a01b039091169089907fd2aa34a4fdbbc6dff6a3e56f46e0f3ae2a31d7785ff3487aa5c95c642acea5019060200160405180910390a35050505050505050565b6000818152600160209081526040808320600383528184203385529092529091205460ff166107c05760405162461bcd60e51b81526020600482015260156024820152744e6f20746f6b656e7320746f20776974686472617760581b60448201526064016102b1565b600b81015460ff166108145760405162461bcd60e51b815260206004820152601760248201527f546f6b656e7320617265207374696c6c206c6f636b656400000000000000000060448201526064016102b1565b600981015461084f906001600160a01b037f000000000000000000000000000000000000000000000000000000000000000016903390611581565b5050565b6001600160a01b0381166000908152600260209081526040808320805482518185028101850190935280835260609492939192909184015b828210156103f1576000848152602090819020604080516101008101909152600c850290910180546001600160a01b0316825260018101805492939192918401916108d590611e8c565b80601f016020809104026020016040519081016040528092919081815260200182805461090190611e8c565b801561094e5780601f106109235761010080835404028352916020019161094e565b820191906000526020600020905b81548152906001019060200180831161093157829003601f168201915b505050505081526020016002820160405180608001604052908160008201805461097790611e8c565b80601f01602080910402602001604051908101604052809291908181526020018280546109a390611e8c565b80156109f05780601f106109c5576101008083540402835291602001916109f0565b820191906000526020600020905b8154815290600101906020018083116109d357829003601f168201915b50505050508152602001600182018054610a0990611e8c565b80601f0160208091040260200160405190810160405280929190818152602001828054610a3590611e8c565b8015610a825780601f10610a5757610100808354040283529160200191610a82565b820191906000526020600020905b815481529060010190602001808311610a6557829003601f168201915b505050918352505060028201546001600160a01b031660208083019190915260039092015460409182015291835260068401805483518184028101840190945280845293820193909160009084015b82821015610baa576000848152602090819020604080518082019091526002850290910180546001600160a01b031682526001810180549293919291840191610b1990611e8c565b80601f0160208091040260200160405190810160405280929190818152602001828054610b4590611e8c565b8015610b925780601f10610b6757610100808354040283529160200191610b92565b820191906000526020600020905b815481529060010190602001808311610b7557829003601f168201915b50505050508152505081526020019060010190610ad1565b5050509082525060408051808201825260078401546001600160a01b03168152600884015460208281019190915280840191909152600984015491830191909152600a8301546060830152600b9092015460ff161515608090910152908252600192909201910161088b565b6001602081905260009182526040909120805491810180546001600160a01b0390931692610c4390611e8c565b80601f0160208091040260200160405190810160405280929190818152602001828054610c6f90611e8c565b8015610cbc5780601f10610c9157610100808354040283529160200191610cbc565b820191906000526020600020905b815481529060010190602001808311610c9f57829003601f168201915b50505050509080600201604051806080016040529081600082018054610ce190611e8c565b80601f0160208091040260200160405190810160405280929190818152602001828054610d0d90611e8c565b8015610d5a5780601f10610d2f57610100808354040283529160200191610d5a565b820191906000526020600020905b815481529060010190602001808311610d3d57829003601f168201915b50505050508152602001600182018054610d7390611e8c565b80601f0160208091040260200160405190810160405280929190818152602001828054610d9f90611e8c565b8015610dec5780601f10610dc157610100808354040283529160200191610dec565b820191906000526020600020905b815481529060010190602001808311610dcf57829003601f168201915b505050918352505060028201546001600160a01b03908116602080840191909152600390930154604092830152815180830190925260078501541681526008840154918101919091526009830154600a840154600b909401549293919290919060ff1687565b6000828152600160205260409020600b81015460ff1615610e855760405162461bcd60e51b81526004016102b190611e61565b80600a01544210610ece5760405162461bcd60e51b8152602060048201526013602482015272105d58dd1a5bdb881a185cc8195e1c1a5c9959606a1b60448201526064016102b1565b600083815260036020908152604080832033845290915290205460ff1615610f2c5760405162461bcd60e51b8152602060048201526011602482015270105b1c9958591e4819195c1bdcda5d1959607a1b60448201526064016102b1565b6000838152600360209081526040808320338085529083528184208054600160ff1990911681179091558251808401909352908252818301868152600686018054808401825590865293909420825160029094020180546001600160a01b0319166001600160a01b0390941693909317835592519092820190610faf9082611f43565b5050506009810154610fef906001600160a01b037f00000000000000000000000000000000000000000000000000000000000000001690339030906115e5565b336001600160a01b0316837f0aebdeac202f28be37e4f9405aceae67b58f4e341186d0dcb3d4443b306043b7846040516110299190612005565b60405180910390a3505050565b6002602052816000526040600020818154811061105257600080fd5b60009182526020909120600c9091020180546001820180546001600160a01b039092169450919250610c4390611e8c565b600082116110e35760405162461bcd60e51b815260206004820152602760248201527f4465706f736974207072696365206d7573742062652067726561746572207468604482015266616e207a65726f60c81b60648201526084016102b1565b6000811161113e5760405162461bcd60e51b815260206004820152602260248201527f4475726174696f6e206d7573742062652067726561746572207468616e207a65604482015261726f60f01b60648201526084016102b1565b6040516331a9108f60e11b815260048101869052869033906001600160a01b03831690636352211e90602401602060405180830381865afa158015611187573d6000803e3d6000fd5b505050506040513d601f19601f820116820180604052508101906111ab9190612018565b6001600160a01b03161461120c5760405162461bcd60e51b815260206004820152602260248201527f596f75206d757374206f776e20746865204e465420746f2061756374696f6e206044820152611a5d60f21b60648201526084016102b1565b60405163020604bf60e21b81526004810187905230906001600160a01b0383169063081812fc90602401602060405180830381865afa158015611253573d6000803e3d6000fd5b505050506040513d601f19601f820116820180604052508101906112779190612018565b6001600160a01b0316146112d95760405162461bcd60e51b8152602060048201526024808201527f596f75206e65656420617070726f766520746865204e465420746f20636f6e746044820152631c9858dd60e21b60648201526084016102b1565b60008054815260016020819052604090912080546001600160a01b031916331781559081016113088a82611f43565b5060408051608081018252878152602081018790526001600160a01b038a16918101919091526060810188905260028201806113448982611f43565b50602082015160018201906113599082611f43565b5060408201516002820180546001600160a01b0319166001600160a01b039092169190911790556060909101516003909101556009810184905561139d8342612035565b600a820155600b8101805460ff191690556000805490806113bd83612048565b90915550503360009081526002602090815260408220805460018181018355918452919092208354600c9092020180546001600160a01b0319166001600160a01b039290921691909117815582918181019061141b90840182612061565b5060028281019082018061142f8382612061565b5060018181019061144290840182612061565b5060028281015490820180546001600160a01b0319166001600160a01b03909216919091179055600391820154910155600682810180546114869284019190611695565b5060078281015490820180546001600160a01b039283166001600160a01b03199091161790556008808401549083015560098084015490830155600a8084015490830155600b9283015492909101805460ff191660ff909316151592909217909155604051632142170760e11b815233600482015230602482015260448101899052908316906342842e0e90606401600060405180830381600087803b15801561152f57600080fd5b505af1158015611543573d6000803e3d6000fd5b5050600080546040513394509092507f5d551e2a2cc977fd8c530317059b4f2d9f504fb82f7dfad736f8d56679bcdfd09190a3505050505050505050565b6040516001600160a01b038381166024830152604482018390526115e091859182169063a9059cbb906064015b604051602081830303815290604052915060e01b6020820180516001600160e01b038381831617835250505050611624565b505050565b6040516001600160a01b03848116602483015283811660448301526064820183905261161e9186918216906323b872dd906084016115ae565b50505050565b600080602060008451602086016000885af180611647576040513d6000823e3d81fd5b50506000513d9150811561165f57806001141561166c565b6001600160a01b0384163b155b1561161e57604051635274afe760e01b81526001600160a01b03851660048201526024016102b1565b82805482825590600052602060002090600202810192821561170a5760005260206000209160020282015b8281111561170a57825482546001600160a01b0319166001600160a01b0390911617825582826001808201906116f890840182612061565b505050916002019190600201906116c0565b5061171692915061171a565b5090565b808211156117165780546001600160a01b0319168155600061173f6001830182611748565b5060020161171a565b50805461175490611e8c565b6000825580601f10611764575050565b601f0160209004906000526020600020908101906117829190611785565b50565b5b808211156117165760008155600101611786565b6000602082840312156117ac57600080fd5b5035919050565b6000815180845260005b818110156117d9576020818501810151868301820152016117bd565b506000602082860101526020601f19601f83011685010191505092915050565b6000602082016020835280845180835260408501915060408160051b86010192506020860160005b8281101561187257868503603f19018452815180516001600160a01b0316865260209081015160409187018290529061185c908701826117b3565b9550506020938401939190910190600101611821565b50929695505050505050565b634e487b7160e01b600052604160045260246000fd5b6001600160a01b038116811461178257600080fd5b600082601f8301126118ba57600080fd5b81356020830160008067ffffffffffffffff8411156118db576118db61187e565b50604051601f19601f85018116603f0116810181811067ffffffffffffffff8211171561190a5761190a61187e565b60405283815290508082840187101561192257600080fd5b838360208301376000602085830101528094505050505092915050565b60008060008084860360a081121561195657600080fd5b853594506040601f198201121561196c57600080fd5b506040805190810167ffffffffffffffff811182821017156119905761199061187e565b60405260208601356119a181611894565b815260408601356020820152925060608501359150608085013567ffffffffffffffff8111156119d057600080fd5b6119dc878288016118a9565b91505092959194509250565b600080600080600060808688031215611a0057600080fd5b8535611a0b81611894565b94506020860135611a1b81611894565b935060408601359250606086013567ffffffffffffffff811115611a3e57600080fd5b8601601f81018813611a4f57600080fd5b803567ffffffffffffffff811115611a6657600080fd5b886020828401011115611a7857600080fd5b959894975092955050506020019190565b600060208284031215611a9b57600080fd5b8135611aa681611894565b9392505050565b6000815160808452611ac260808501826117b3565b905060208301518482036020860152611adb82826117b3565b6040858101516001600160a01b0316908701526060948501519490950193909352509192915050565b600082825180855260208501945060208160051b8301016020850160005b83811015611b7457848303601f19018852815180516001600160a01b03168452602090810151604091850182905290611b5d908501826117b3565b6020998a0199909450929092019150600101611b22565b50909695505050505050565b6000602082016020835280845180835260408501915060408160051b86010192506020860160005b8281101561187257868503603f19018452815180516001600160a01b0316865260208101516101206020880152611be36101208801826117b3565b905060408201518782036040890152611bfc8282611aad565b91505060608201518782036060890152611c168282611b04565b9150506080820151611c3e608089018280516001600160a01b03168252602090810151910152565b5060a082015160c088015260c082015160e088015260e08201519150611c6961010088018315159052565b9550506020938401939190910190600101611ba8565b6001600160a01b038816815261010060208201819052600090611ca4908301896117b3565b8281036040840152611cb68189611aad565b87516001600160a01b03166060850152602088015160808501529150611cd99050565b8460a08301528360c083015282151560e083015298975050505050505050565b60008060408385031215611d0c57600080fd5b82359150602083013567ffffffffffffffff811115611d2a57600080fd5b611d36858286016118a9565b9150509250929050565b60008060408385031215611d5357600080fd5b823591506020830135611d6581611894565b809150509250929050565b60008060408385031215611d8357600080fd5b8235611d8e81611894565b946020939093013593505050565b600080600080600080600060e0888a031215611db757600080fd5b873567ffffffffffffffff811115611dce57600080fd5b611dda8a828b016118a9565b9750506020880135611deb81611894565b955060408801359450606088013567ffffffffffffffff811115611e0e57600080fd5b611e1a8a828b016118a9565b945050608088013567ffffffffffffffff811115611e3757600080fd5b611e438a828b016118a9565b979a969950949793969560a0850135955060c0909401359392505050565b602080825260119082015270105d58dd1a5bdb881a185cc8195b991959607a1b604082015260600190565b600181811c90821680611ea057607f821691505b602082108103611ec057634e487b7160e01b600052602260045260246000fd5b50919050565b634e487b7160e01b600052601160045260246000fd5b81810381811115611eef57611eef611ec6565b92915050565b601f8211156115e057806000526020600020601f840160051c81016020851015611f1c5750805b601f840160051c820191505b81811015611f3c5760008155600101611f28565b5050505050565b815167ffffffffffffffff811115611f5d57611f5d61187e565b611f7181611f6b8454611e8c565b84611ef5565b6020601f821160018114611fa85760008315611f8d5750848201515b600184901b600019600386901b1c198216175b855550611f3c565b600084815260208120601f198516915b82811015611fd85787850151825560209485019460019092019101611fb8565b5084821015611ff65786840151600019600387901b60f8161c191681555b50505050600190811b01905550565b602081526000611aa660208301846117b3565b60006020828403121561202a57600080fd5b8151611aa681611894565b80820180821115611eef57611eef611ec6565b60006001820161205a5761205a611ec6565b5060010190565b81810361206c575050565b6120768254611e8c565b67ffffffffffffffff81111561208e5761208e61187e565b61209c81611f6b8454611e8c565b6000601f8211600181146120ce5760008315611f8d575081850154600184901b600019600386901b1c19821617611fa0565b600085815260209020601f19841690600086815260209020845b8381101561210857828601548255600195860195909101906020016120e8565b50858310156121265781850154600019600388901b60f8161c191681555b5050505050600190811b0190555056fea2646970667358221220d59d6c71ecc410a1d24d95c56b6a4ea62783ff150d30ea3288a68e447aeccbb564736f6c634300081c0033",
    "linkReferences": {}
  },
  "methodIdentifiers": {
    "auctionCount()": "2ad71573",
    "auctions(uint256)": "571a26a0",
    "auctionsByOwner(address,uint256)": "cfeae748",
    "createAuction(bytes,address,uint256,string,string,uint256,uint256)": "dc937abc",
    "finalizeAuction(uint256,(address,uint256),bytes32,bytes)": "14b004f4",
    "getAuctionsByOwner(address)": "41177855",
    "getBids(uint256)": "131d9a27",
    "hasDeposited(uint256,address)": "99b1eb2e",
    "lockToken()": "bca7a9e2",
    "onERC721Received(address,address,uint256,bytes)": "150b7a02",
    "placeBid(uint256,bytes)": "864bc0a0",
    "withdraw(uint256)": "2e1a7d4d"
  },
  "id": 46
}