{"abi":[{"type":"constructor","inputs":[{"name":"_lockToken","type":"address","internalType":"address"}],"stateMutability":"nonpayable"},{"type":"function","name":"auctionCount","inputs":[],"outputs":[{"name":"","type":"uint256","internalType":"uint256"}],"stateMutability":"view"},{"type":"function","name":"auctions","inputs":[{"name":"","type":"uint256","internalType":"uint256"}],"outputs":[{"name":"owner","type":"address","internalType":"address"},{"name":"ownerPublicKey","type":"bytes","internalType":"bytes"},{"name":"asset","type":"tuple","internalType":"struct ZkAuction.Asset","components":[{"name":"name","type":"string","internalType":"string"},{"name":"description","type":"string","internalType":"string"}]},{"name":"item","type":"tuple","internalType":"struct ZkAuction.Item","components":[{"name":"nftContract","type":"address","internalType":"contract IERC721"},{"name":"tokenId","type":"uint256","internalType":"uint256"}]},{"name":"winner","type":"tuple","internalType":"struct ZkAuction.Winner","components":[{"name":"winner","type":"address","internalType":"address"},{"name":"price","type":"uint256","internalType":"uint256"}]},{"name":"depositPrice","type":"uint256","internalType":"uint256"},{"name":"endTime","type":"uint256","internalType":"uint256"},{"name":"ended","type":"bool","internalType":"bool"}],"stateMutability":"view"},{"type":"function","name":"createAuction","inputs":[{"name":"_ownerPublicKey","type":"bytes","internalType":"bytes"},{"name":"_nftContract","type":"address","internalType":"address"},{"name":"_tokenId","type":"uint256","internalType":"uint256"},{"name":"_assetName","type":"string","internalType":"string"},{"name":"_assetDescription","type":"string","internalType":"string"},{"name":"_depositPrice","type":"uint256","internalType":"uint256"},{"name":"_duration","type":"uint256","internalType":"uint256"}],"outputs":[],"stateMutability":"nonpayable"},{"type":"function","name":"getBids","inputs":[{"name":"auctionId","type":"uint256","internalType":"uint256"}],"outputs":[{"name":"","type":"tuple[]","internalType":"struct ZkAuction.Bid[]","components":[{"name":"bidder","type":"address","internalType":"address"},{"name":"encryptedPrice","type":"bytes","internalType":"bytes"}]}],"stateMutability":"view"},{"type":"function","name":"lockToken","inputs":[],"outputs":[{"name":"","type":"address","internalType":"contract IERC20"}],"stateMutability":"view"},{"type":"function","name":"new_bid","inputs":[{"name":"auctionId","type":"uint256","internalType":"uint256"},{"name":"_encryptedPrice","type":"bytes","internalType":"bytes"}],"outputs":[],"stateMutability":"nonpayable"},{"type":"function","name":"revealWinner","inputs":[{"name":"auctionId","type":"uint256","internalType":"uint256"},{"name":"_winner","type":"tuple","internalType":"struct ZkAuction.Winner","components":[{"name":"winner","type":"address","internalType":"address"},{"name":"price","type":"uint256","internalType":"uint256"}]}],"outputs":[],"stateMutability":"nonpayable"},{"type":"function","name":"unlock","inputs":[{"name":"auctionId","type":"uint256","internalType":"uint256"}],"outputs":[],"stateMutability":"nonpayable"},{"type":"event","name":"AuctionCreated","inputs":[{"name":"auctionId","type":"uint256","indexed":true,"internalType":"uint256"},{"name":"owner","type":"address","indexed":true,"internalType":"address"}],"anonymous":false},{"type":"event","name":"AuctionEnded","inputs":[{"name":"auctionId","type":"uint256","indexed":true,"internalType":"uint256"},{"name":"winner","type":"address","indexed":true,"internalType":"address"},{"name":"price","type":"uint256","indexed":false,"internalType":"uint256"}],"anonymous":false},{"type":"event","name":"NewBid","inputs":[{"name":"auctionId","type":"uint256","indexed":true,"internalType":"uint256"},{"name":"bidder","type":"address","indexed":true,"internalType":"address"},{"name":"encryptedPrice","type":"bytes","indexed":false,"internalType":"bytes"}],"anonymous":false}],"bytecode":{"object":"0x60a060405234801561001057600080fd5b506040516115db3803806115db83398101604081905261002f91610040565b6001600160a01b0316608052610070565b60006020828403121561005257600080fd5b81516001600160a01b038116811461006957600080fd5b9392505050565b6080516115346100a7600039600081816101340152818161064201528181610823015281816108eb0152610ac101526115346000f3fe608060405234801561001057600080fd5b50600436106100885760003560e01c8063a1a168991161005b578063a1a1689914610109578063a974d28e1461011c578063bca7a9e21461012f578063dc937abc1461016e57600080fd5b8063131d9a271461008d5780632ad71573146100b6578063571a26a0146100cd5780636198e339146100f4575b600080fd5b6100a061009b366004610ef4565b610181565b6040516100ad9190610f53565b60405180910390f35b6100bf60015481565b6040519081526020016100ad565b6100e06100db366004610ef4565b61032a565b6040516100ad989796959493929190610fd8565b610107610102366004610ef4565b61056a565b005b6101076101173660046110c1565b6106bc565b61010761012a3660046111cb565b6109c6565b6101567f000000000000000000000000000000000000000000000000000000000000000081565b6040516001600160a01b0390911681526020016100ad565b61010761017c366004611212565b610bf1565b6000818152602081905260409020600b01546060904210156101ea5760405162461bcd60e51b815260206004820152601a60248201527f41756374696f6e20686173206e6f7420656e646564207965742e00000000000060448201526064015b60405180910390fd5b6000828152602081905260409020600c015460ff161561021c5760405162461bcd60e51b81526004016101e1906112d7565b60008281526020818152604080832060060180548251818502810185019093528083529193909284015b8282101561031f576000848152602090819020604080518082019091526002850290910180546001600160a01b03168252600181018054929391929184019161028e90611303565b80601f01602080910402602001604051908101604052809291908181526020018280546102ba90611303565b80156103075780601f106102dc57610100808354040283529160200191610307565b820191906000526020600020905b8154815290600101906020018083116102ea57829003601f168201915b50505050508152505081526020019060010190610246565b505050509050919050565b600060208190529081526040902080546001820180546001600160a01b03909216929161035690611303565b80601f016020809104026020016040519081016040528092919081815260200182805461038290611303565b80156103cf5780601f106103a4576101008083540402835291602001916103cf565b820191906000526020600020905b8154815290600101906020018083116103b257829003601f168201915b505050505090806002016040518060400160405290816000820180546103f490611303565b80601f016020809104026020016040519081016040528092919081815260200182805461042090611303565b801561046d5780601f106104425761010080835404028352916020019161046d565b820191906000526020600020905b81548152906001019060200180831161045057829003601f168201915b5050505050815260200160018201805461048690611303565b80601f01602080910402602001604051908101604052809291908181526020018280546104b290611303565b80156104ff5780601f106104d4576101008083540402835291602001916104ff565b820191906000526020600020905b8154815290600101906020018083116104e257829003601f168201915b50505091909252505060408051808201825260048501546001600160a01b03908116825260058601546020808401919091528351808501909452600787015490911683526008860154908301526009850154600b860154600c90960154949591949293509160ff1688565b600081815260208181526040808320338452600a81019092529091205460ff166105cc5760405162461bcd60e51b81526020600482015260136024820152724e6f20746f6b656e7320746f20756e6c6f636b60681b60448201526064016101e1565b600c81015460ff166106205760405162461bcd60e51b815260206004820152601760248201527f546f6b656e7320617265207374696c6c206c6f636b656400000000000000000060448201526064016101e1565b600981015460405163a9059cbb60e01b815233600482015260248101919091527f00000000000000000000000000000000000000000000000000000000000000006001600160a01b03169063a9059cbb906044016020604051808303816000875af1158015610693573d6000803e3d6000fd5b505050506040513d601f19601f820116820180604052508101906106b7919061133d565b505050565b6000828152602081905260409020600b015442101561071d5760405162461bcd60e51b815260206004820152601a60248201527f41756374696f6e20686173206e6f7420656e646564207965742e00000000000060448201526064016101e1565b6000828152602081905260409020600c015460ff161561074f5760405162461bcd60e51b81526004016101e1906112d7565b6000828152602081815260409182902083516007820180546001600160a01b0319166001600160a01b03928316908117909155928501516008830155600480830154600584015495516323b872dd60e01b815230928101929092526024820194909452604481019490945290929116906323b872dd90606401600060405180830381600087803b1580156107e257600080fd5b505af11580156107f6573d6000803e3d6000fd5b505050506008810154600982015411156108c9576007810154600882015460098301546001600160a01b037f000000000000000000000000000000000000000000000000000000000000000081169363a9059cbb93911691610858919061137c565b6040516001600160e01b031960e085901b1681526001600160a01b03909216600483015260248201526044016020604051808303816000875af11580156108a3573d6000803e3d6000fd5b505050506040513d601f19601f820116820180604052508101906108c7919061133d565b505b600881015460405163a9059cbb60e01b815233600482015260248101919091527f00000000000000000000000000000000000000000000000000000000000000006001600160a01b03169063a9059cbb906044016020604051808303816000875af115801561093c573d6000803e3d6000fd5b505050506040513d601f19601f82011682018060405250810190610960919061133d565b50600c8101805460ff19166001179055600781015460088201546040516001600160a01b039092169185917fd2aa34a4fdbbc6dff6a3e56f46e0f3ae2a31d7785ff3487aa5c95c642acea501916109b991815260200190565b60405180910390a3505050565b6000828152602081905260409020600c81015460ff16156109f95760405162461bcd60e51b81526004016101e1906112d7565b80600b01544210610a435760405162461bcd60e51b815260206004820152601460248201527320bab1ba34b7b7103430b99032bc3834b932b21760611b60448201526064016101e1565b336000908152600a8201602052604090205460ff1615610a995760405162461bcd60e51b8152602060048201526011602482015270105b1c9958591e4819195c1bdcda5d1959607a1b60448201526064016101e1565b60098101546040516323b872dd60e01b815233600482015230602482015260448101919091527f00000000000000000000000000000000000000000000000000000000000000006001600160a01b0316906323b872dd906064016020604051808303816000875af1158015610b12573d6000803e3d6000fd5b505050506040513d601f19601f82011682018060405250810190610b36919061133d565b50336000908152600a820160205260409020805460ff1916600117905560408051808201909152338152602080820184815260068401805460018082018355600092835293909120845160029092020180546001600160a01b0319166001600160a01b0390921691909117815590519091820190610bb490826113e3565b505050336001600160a01b0316837f0aebdeac202f28be37e4f9405aceae67b58f4e341186d0dcb3d4443b306043b7846040516109b991906114a2565b60008211610c515760405162461bcd60e51b815260206004820152602760248201527f4465706f736974207072696365206d7573742062652067726561746572207468604482015266616e207a65726f60c81b60648201526084016101e1565b60008111610cac5760405162461bcd60e51b815260206004820152602260248201527f4475726174696f6e206d7573742062652067726561746572207468616e207a65604482015261726f60f01b60648201526084016101e1565b6040516331a9108f60e11b815260048101869052869033906001600160a01b03831690636352211e90602401602060405180830381865afa158015610cf5573d6000803e3d6000fd5b505050506040513d601f19601f82011682018060405250810190610d1991906114b5565b6001600160a01b031614610d7b5760405162461bcd60e51b815260206004820152602360248201527f596f75206d757374206f776e20746865204e465420746f2061756374696f6e2060448201526234ba1760e91b60648201526084016101e1565b6040516323b872dd60e01b8152336004820152306024820152604481018790526001600160a01b038216906323b872dd90606401600060405180830381600087803b158015610dc957600080fd5b505af1158015610ddd573d6000803e3d6000fd5b505060018054925090506000610df2836114d2565b909155505060018054600090815260208190526040902080546001600160a01b03191633178155908101610e268a826113e3565b506040805180820182526001600160a01b03841680825260209182018a90526004840180546001600160a01b031916909117905560058301899055815180830190925287825281018690526002820180610e8089826113e3565b5060208201516001820190610e9590826113e3565b50505060098101849055610ea983426114eb565b600b820155600c8101805460ff191690556001546040513391907f5d551e2a2cc977fd8c530317059b4f2d9f504fb82f7dfad736f8d56679bcdfd090600090a3505050505050505050565b600060208284031215610f0657600080fd5b5035919050565b6000815180845260005b81811015610f3357602081850181015186830182015201610f17565b506000602082860101526020601f19601f83011685010191505092915050565b6000602082016020835280845180835260408501915060408160051b86010192506020860160005b82811015610fcc57868503603f19018452815180516001600160a01b03168652602090810151604091870182905290610fb690870182610f0d565b9550506020938401939190910190600101610f7b565b50929695505050505050565b6001600160a01b038916815261014060208201819052600090610ffd9083018a610f0d565b82810360408401528851604082526110186040830182610f0d565b905060208a015182820360208401526110318282610f0d565b8a516001600160a01b0316606087015260208b01516080870152935061105692505050565b85516001600160a01b031660a0830152602086015160c08301528460e0830152836101008301528215156101208301529998505050505050505050565b634e487b7160e01b600052604160045260246000fd5b6001600160a01b03811681146110be57600080fd5b50565b60008082840360608112156110d557600080fd5b833592506040601f19820112156110eb57600080fd5b506040805190810167ffffffffffffffff8111828210171561110f5761110f611093565b6040526020840135611120816110a9565b81526040939093013560208401525092909150565b600082601f83011261114657600080fd5b81356020830160008067ffffffffffffffff84111561116757611167611093565b50604051601f19601f85018116603f0116810181811067ffffffffffffffff8211171561119657611196611093565b6040528381529050808284018710156111ae57600080fd5b838360208301376000602085830101528094505050505092915050565b600080604083850312156111de57600080fd5b82359150602083013567ffffffffffffffff8111156111fc57600080fd5b61120885828601611135565b9150509250929050565b600080600080600080600060e0888a03121561122d57600080fd5b873567ffffffffffffffff81111561124457600080fd5b6112508a828b01611135565b9750506020880135611261816110a9565b955060408801359450606088013567ffffffffffffffff81111561128457600080fd5b6112908a828b01611135565b945050608088013567ffffffffffffffff8111156112ad57600080fd5b6112b98a828b01611135565b979a969950949793969560a0850135955060c0909401359392505050565b60208082526012908201527120bab1ba34b7b7103430b99032b73232b21760711b604082015260600190565b600181811c9082168061131757607f821691505b60208210810361133757634e487b7160e01b600052602260045260246000fd5b50919050565b60006020828403121561134f57600080fd5b8151801515811461135f57600080fd5b9392505050565b634e487b7160e01b600052601160045260246000fd5b8181038181111561138f5761138f611366565b92915050565b601f8211156106b757806000526020600020601f840160051c810160208510156113bc5750805b601f840160051c820191505b818110156113dc57600081556001016113c8565b5050505050565b815167ffffffffffffffff8111156113fd576113fd611093565b6114118161140b8454611303565b84611395565b6020601f821160018114611445576000831561142d5750848201515b600019600385901b1c1916600184901b1784556113dc565b600084815260208120601f198516915b828110156114755787850151825560209485019460019092019101611455565b50848210156114935786840151600019600387901b60f8161c191681555b50505050600190811b01905550565b60208152600061135f6020830184610f0d565b6000602082840312156114c757600080fd5b815161135f816110a9565b6000600182016114e4576114e4611366565b5060010190565b8082018082111561138f5761138f61136656fea264697066735822122079d96396a52a6ee6b21cef30927ab230e9d9d3584bb2f164f66addce2ab90cda64736f6c634300081c0033","linkReferences":{}},"methodIdentifiers":{"auctionCount()":"2ad71573","auctions(uint256)":"571a26a0","createAuction(bytes,address,uint256,string,string,uint256,uint256)":"dc937abc","getBids(uint256)":"131d9a27","lockToken()":"bca7a9e2","new_bid(uint256,bytes)":"a974d28e","revealWinner(uint256,(address,uint256))":"a1a16899","unlock(uint256)":"6198e339"},"id":28}