{
  "abi": [
    {
      "type": "constructor",
      "inputs": [
        {
          "name": "_lockToken",
          "type": "address",
          "internalType": "address"
        }
      ],
      "stateMutability": "nonpayable"
    },
    {
      "type": "function",
      "name": "ALIGNED_PAYMENT_SERVICE_ADDR",
      "inputs": [],
      "outputs": [
        {
          "name": "",
          "type": "address",
          "internalType": "address"
        }
      ],
      "stateMutability": "view"
    },
    {
      "type": "function",
      "name": "ALIGNED_SERVICE_MANAGER",
      "inputs": [],
      "outputs": [
        {
          "name": "",
          "type": "address",
          "internalType": "address"
        }
      ],
      "stateMutability": "view"
    },
    {
      "type": "function",
      "name": "ELF_COMMITMENT",
      "inputs": [],
      "outputs": [
        {
          "name": "",
          "type": "bytes32",
          "internalType": "bytes32"
        }
      ],
      "stateMutability": "view"
    },
    {
      "type": "function",
      "name": "auctionCount",
      "inputs": [],
      "outputs": [
        {
          "name": "",
          "type": "uint256",
          "internalType": "uint256"
        }
      ],
      "stateMutability": "view"
    },
    {
      "type": "function",
      "name": "auctions",
      "inputs": [
        {
          "name": "",
          "type": "uint256",
          "internalType": "uint256"
        }
      ],
      "outputs": [
        {
          "name": "owner",
          "type": "address",
          "internalType": "address"
        },
        {
          "name": "ownerPublicKey",
          "type": "bytes",
          "internalType": "bytes"
        },
        {
          "name": "asset",
          "type": "tuple",
          "internalType": "struct ZkAuction.Asset",
          "components": [
            {
              "name": "name",
              "type": "string",
              "internalType": "string"
            },
            {
              "name": "description",
              "type": "string",
              "internalType": "string"
            }
          ]
        },
        {
          "name": "item",
          "type": "tuple",
          "internalType": "struct ZkAuction.Item",
          "components": [
            {
              "name": "nftContract",
              "type": "address",
              "internalType": "contract IERC721"
            },
            {
              "name": "tokenId",
              "type": "uint256",
              "internalType": "uint256"
            }
          ]
        },
        {
          "name": "winner",
          "type": "tuple",
          "internalType": "struct ZkAuction.Winner",
          "components": [
            {
              "name": "winner",
              "type": "address",
              "internalType": "address"
            },
            {
              "name": "price",
              "type": "uint256",
              "internalType": "uint256"
            }
          ]
        },
        {
          "name": "depositPrice",
          "type": "uint256",
          "internalType": "uint256"
        },
        {
          "name": "endTime",
          "type": "uint256",
          "internalType": "uint256"
        },
        {
          "name": "ended",
          "type": "bool",
          "internalType": "bool"
        }
      ],
      "stateMutability": "view"
    },
    {
      "type": "function",
      "name": "createAuction",
      "inputs": [
        {
          "name": "_ownerPublicKey",
          "type": "bytes",
          "internalType": "bytes"
        },
        {
          "name": "_nftContract",
          "type": "address",
          "internalType": "address"
        },
        {
          "name": "_tokenId",
          "type": "uint256",
          "internalType": "uint256"
        },
        {
          "name": "_assetName",
          "type": "string",
          "internalType": "string"
        },
        {
          "name": "_assetDescription",
          "type": "string",
          "internalType": "string"
        },
        {
          "name": "_depositPrice",
          "type": "uint256",
          "internalType": "uint256"
        },
        {
          "name": "_duration",
          "type": "uint256",
          "internalType": "uint256"
        }
      ],
      "outputs": [],
      "stateMutability": "nonpayable"
    },
    {
      "type": "function",
      "name": "getBids",
      "inputs": [
        {
          "name": "auctionId",
          "type": "uint256",
          "internalType": "uint256"
        }
      ],
      "outputs": [
        {
          "name": "",
          "type": "tuple[]",
          "internalType": "struct ZkAuction.Bid[]",
          "components": [
            {
              "name": "bidder",
              "type": "address",
              "internalType": "address"
            },
            {
              "name": "encryptedPrice",
              "type": "bytes",
              "internalType": "bytes"
            }
          ]
        }
      ],
      "stateMutability": "view"
    },
    {
      "type": "function",
      "name": "lockToken",
      "inputs": [],
      "outputs": [
        {
          "name": "",
          "type": "address",
          "internalType": "contract IERC20"
        }
      ],
      "stateMutability": "view"
    },
    {
      "type": "function",
      "name": "new_bid",
      "inputs": [
        {
          "name": "auctionId",
          "type": "uint256",
          "internalType": "uint256"
        },
        {
          "name": "_encryptedPrice",
          "type": "bytes",
          "internalType": "bytes"
        }
      ],
      "outputs": [],
      "stateMutability": "nonpayable"
    },
    {
      "type": "function",
      "name": "revealWinner",
      "inputs": [
        {
          "name": "auctionId",
          "type": "uint256",
          "internalType": "uint256"
        },
        {
          "name": "winner",
          "type": "tuple",
          "internalType": "struct ZkAuction.Winner",
          "components": [
            {
              "name": "winner",
              "type": "address",
              "internalType": "address"
            },
            {
              "name": "price",
              "type": "uint256",
              "internalType": "uint256"
            }
          ]
        },
        {
          "name": "verifiedProofData",
          "type": "bytes",
          "internalType": "bytes"
        }
      ],
      "outputs": [],
      "stateMutability": "nonpayable"
    },
    {
      "type": "function",
      "name": "withdraw",
      "inputs": [
        {
          "name": "auctionId",
          "type": "uint256",
          "internalType": "uint256"
        }
      ],
      "outputs": [],
      "stateMutability": "nonpayable"
    },
    {
      "type": "event",
      "name": "AuctionCreated",
      "inputs": [
        {
          "name": "auctionId",
          "type": "uint256",
          "indexed": true,
          "internalType": "uint256"
        },
        {
          "name": "owner",
          "type": "address",
          "indexed": true,
          "internalType": "address"
        }
      ],
      "anonymous": false
    },
    {
      "type": "event",
      "name": "AuctionEnded",
      "inputs": [
        {
          "name": "auctionId",
          "type": "uint256",
          "indexed": true,
          "internalType": "uint256"
        },
        {
          "name": "winner",
          "type": "address",
          "indexed": true,
          "internalType": "address"
        },
        {
          "name": "price",
          "type": "uint256",
          "indexed": false,
          "internalType": "uint256"
        }
      ],
      "anonymous": false
    },
    {
      "type": "event",
      "name": "NewBid",
      "inputs": [
        {
          "name": "auctionId",
          "type": "uint256",
          "indexed": true,
          "internalType": "uint256"
        },
        {
          "name": "bidder",
          "type": "address",
          "indexed": true,
          "internalType": "address"
        },
        {
          "name": "encryptedPrice",
          "type": "bytes",
          "indexed": false,
          "internalType": "bytes"
        }
      ],
      "anonymous": false
    },
    {
      "type": "error",
      "name": "InvalidElf",
      "inputs": [
        {
          "name": "submittedElf",
          "type": "bytes32",
          "internalType": "bytes32"
        }
      ]
    }
  ],
  "bytecode": {
    "object": "0x60a060405234801561001057600080fd5b5060405161212c38038061212c83398101604081905261002f91610040565b6001600160a01b0316608052610070565b60006020828403121561005257600080fd5b81516001600160a01b038116811461006957600080fd5b9392505050565b60805161207e6100ae600039600081816101af0152818161047e015281816106d30152818161079b01528181610ba90152610d26015261207e6000f3fe608060405234801561001057600080fd5b50600436106100a95760003560e01c80634f51218d116100715780634f51218d1461015d578063571a26a014610170578063a974d28e14610197578063bca7a9e2146101aa578063c8dc35a9146101d1578063dc937abc146101ec57600080fd5b8063131d9a27146100ae5780632ad71573146100d75780632e1a7d4d146100ee57806338afd93614610103578063470df9ec1461012a575b600080fd5b6100c16100bc3660046117ae565b6101ff565b6040516100ce9190611817565b60405180910390f35b6100e060015481565b6040519081526020016100ce565b6101016100fc3660046117ae565b6103a4565b005b6100e07fe2a6abcfe3391a99ab84db41d4d1f5aead0ad92930932f20ff57c5d9a2fcc20381565b6101457358f280bebe9b34c9939c3c39e0890c81f163b62381565b6040516001600160a01b0390911681526020016100ce565b61010161016b36600461197c565b6104f8565b61018361017e3660046117ae565b610877565b6040516100ce989796959493929190611a1b565b6101016101a5366004611ad6565b610ab7565b6101457f000000000000000000000000000000000000000000000000000000000000000081565b61014573815aeca64a974297942d2bbf034abee22a38a00381565b6101016101fa366004611b1d565b610de3565b6000818152602081905260409020600b01546060904210156102645760405162461bcd60e51b8152602060048201526019602482015278105d58dd1a5bdb881a185cc81b9bdd08195b991959081e595d603a1b60448201526064015b60405180910390fd5b6000828152602081905260409020600c015460ff16156102965760405162461bcd60e51b815260040161025b90611be2565b60008281526020818152604080832060060180548251818502810185019093528083529193909284015b82821015610399576000848152602090819020604080518082019091526002850290910180546001600160a01b03168252600181018054929391929184019161030890611c0d565b80601f016020809104026020016040519081016040528092919081815260200182805461033490611c0d565b80156103815780601f1061035657610100808354040283529160200191610381565b820191906000526020600020905b81548152906001019060200180831161036457829003601f168201915b505050505081525050815260200190600101906102c0565b505050509050919050565b600081815260208181526040808320338452600a81019092529091205460ff166104085760405162461bcd60e51b81526020600482015260156024820152744e6f20746f6b656e7320746f20776974686472617760581b604482015260640161025b565b600c81015460ff1661045c5760405162461bcd60e51b815260206004820152601760248201527f546f6b656e7320617265207374696c6c206c6f636b6564000000000000000000604482015260640161025b565b600981015460405163a9059cbb60e01b815233600482015260248101919091527f00000000000000000000000000000000000000000000000000000000000000006001600160a01b03169063a9059cbb906044016020604051808303816000875af11580156104cf573d6000803e3d6000fd5b505050506040513d601f19601f820116820180604052508101906104f39190611c47565b505050565b6000838152602081905260409020600b01544210156105555760405162461bcd60e51b8152602060048201526019602482015278105d58dd1a5bdb881a185cc81b9bdd08195b991959081e595d603a1b604482015260640161025b565b6000838152602081905260409020600c015460ff16156105875760405162461bcd60e51b815260040161025b90611be2565b61059282848361127d565b6000838152602081815260409091206009810154918401519091101561060f5760405162461bcd60e51b815260206004820152602c60248201527f57696e6e657220686173206d6f726520626964207072696365207468616e206460448201526b65706f73697420707269636560a01b606482015260840161025b565b82516007820180546001600160a01b0319166001600160a01b039283169081179091556020850151600884015560048084015460058501546040516323b872dd60e01b81523093810193909352602483019390935260448201929092529116906323b872dd90606401600060405180830381600087803b15801561069257600080fd5b505af11580156106a6573d6000803e3d6000fd5b50505050600881015460098201541115610779576007810154600882015460098301546001600160a01b037f000000000000000000000000000000000000000000000000000000000000000081169363a9059cbb939116916107089190611c86565b6040516001600160e01b031960e085901b1681526001600160a01b03909216600483015260248201526044016020604051808303816000875af1158015610753573d6000803e3d6000fd5b505050506040513d601f19601f820116820180604052508101906107779190611c47565b505b600881015460405163a9059cbb60e01b815233600482015260248101919091527f00000000000000000000000000000000000000000000000000000000000000006001600160a01b03169063a9059cbb906044016020604051808303816000875af11580156107ec573d6000803e3d6000fd5b505050506040513d601f19601f820116820180604052508101906108109190611c47565b50600c8101805460ff19166001179055600781015460088201546040516001600160a01b039092169186917fd2aa34a4fdbbc6dff6a3e56f46e0f3ae2a31d7785ff3487aa5c95c642acea5019161086991815260200190565b60405180910390a350505050565b600060208190529081526040902080546001820180546001600160a01b0390921692916108a390611c0d565b80601f01602080910402602001604051908101604052809291908181526020018280546108cf90611c0d565b801561091c5780601f106108f15761010080835404028352916020019161091c565b820191906000526020600020905b8154815290600101906020018083116108ff57829003601f168201915b5050505050908060020160405180604001604052908160008201805461094190611c0d565b80601f016020809104026020016040519081016040528092919081815260200182805461096d90611c0d565b80156109ba5780601f1061098f576101008083540402835291602001916109ba565b820191906000526020600020905b81548152906001019060200180831161099d57829003601f168201915b505050505081526020016001820180546109d390611c0d565b80601f01602080910402602001604051908101604052809291908181526020018280546109ff90611c0d565b8015610a4c5780601f10610a2157610100808354040283529160200191610a4c565b820191906000526020600020905b815481529060010190602001808311610a2f57829003601f168201915b50505091909252505060408051808201825260048501546001600160a01b03908116825260058601546020808401919091528351808501909452600787015490911683526008860154908301526009850154600b860154600c90960154949591949293509160ff1688565b6000828152602081905260409020600c81015460ff1615610aea5760405162461bcd60e51b815260040161025b90611be2565b80600b01544210610b335760405162461bcd60e51b8152602060048201526013602482015272105d58dd1a5bdb881a185cc8195e1c1a5c9959606a1b604482015260640161025b565b336000908152600a8201602052604090205460ff1615610b895760405162461bcd60e51b8152602060048201526011602482015270105b1c9958591e4819195c1bdcda5d1959607a1b604482015260640161025b565b6009810154604051636eb1769f60e11b81523360048201523060248201527f00000000000000000000000000000000000000000000000000000000000000006001600160a01b03169063dd62ed3e90604401602060405180830381865afa158015610bf8573d6000803e3d6000fd5b505050506040513d601f19601f82011682018060405250810190610c1c9190611c9f565b14610c7c5760405162461bcd60e51b815260206004820152602a60248201527f596f75206e65656420617070726f766520746f6b656e206465706f73697420746044820152691bc818dbdb9d1c9858dd60b21b606482015260840161025b565b336000818152600a8301602090815260408083208054600160ff1990911681179091558151808301909252938152808201868152600686018054808701825590855292909320815160029093020180546001600160a01b0319166001600160a01b0390931692909217825591519192909190820190610cfb9082611d06565b50505060098101546040516323b872dd60e01b815233600482015230602482015260448101919091527f00000000000000000000000000000000000000000000000000000000000000006001600160a01b0316906323b872dd906064016020604051808303816000875af1158015610d77573d6000803e3d6000fd5b505050506040513d601f19601f82011682018060405250810190610d9b9190611c47565b50336001600160a01b0316837f0aebdeac202f28be37e4f9405aceae67b58f4e341186d0dcb3d4443b306043b784604051610dd69190611dc5565b60405180910390a3505050565b60008211610e435760405162461bcd60e51b815260206004820152602760248201527f4465706f736974207072696365206d7573742062652067726561746572207468604482015266616e207a65726f60c81b606482015260840161025b565b60008111610e9e5760405162461bcd60e51b815260206004820152602260248201527f4475726174696f6e206d7573742062652067726561746572207468616e207a65604482015261726f60f01b606482015260840161025b565b6040516331a9108f60e11b815260048101869052869033906001600160a01b03831690636352211e90602401602060405180830381865afa158015610ee7573d6000803e3d6000fd5b505050506040513d601f19601f82011682018060405250810190610f0b9190611dd8565b6001600160a01b031614610f6c5760405162461bcd60e51b815260206004820152602260248201527f596f75206d757374206f776e20746865204e465420746f2061756374696f6e206044820152611a5d60f21b606482015260840161025b565b60405163020604bf60e21b81526004810187905230906001600160a01b0383169063081812fc90602401602060405180830381865afa158015610fb3573d6000803e3d6000fd5b505050506040513d601f19601f82011682018060405250810190610fd79190611dd8565b6001600160a01b0316146110395760405162461bcd60e51b8152602060048201526024808201527f596f75206e65656420617070726f766520746865204e465420746f20636f6e746044820152631c9858dd60e21b606482015260840161025b565b6001805490600061104983611df5565b909155505060018054600090815260208190526040902080546001600160a01b0319163317815590810161107d8a82611d06565b506040805180820182526001600160a01b03841680825260209182018a90526004840180546001600160a01b0319169091179055600583018990558151808301909252878252810186905260028201806110d78982611d06565b50602082015160018201906110ec9082611d06565b505050600981018490556111008342611e0e565b600b820155600c8101805460ff191690556040516323b872dd60e01b8152336004820152306024820152604481018890526001600160a01b038316906323b872dd90606401600060405180830381600087803b15801561115f57600080fd5b505af1158015611173573d6000803e3d6000fd5b50506040516331a9108f60e11b8152600481018a90523092506001600160a01b0385169150636352211e90602401602060405180830381865afa1580156111be573d6000803e3d6000fd5b505050506040513d601f19601f820116820180604052508101906111e29190611dd8565b6001600160a01b0316146112435760405162461bcd60e51b815260206004820152602260248201527f41756374696f6e20636f6e7472616374206d757374206f776e20746865204e466044820152612a1760f11b606482015260840161025b565b6001546040513391907f5d551e2a2cc977fd8c530317059b4f2d9f504fb82f7dfad736f8d56679bcdfd090600090a3505050505050505050565b6000806000806000806000808880602001905181019061129d9190611e6e565b97509750975097509750975097509750847fe2a6abcfe3391a99ab84db41d4d1f5aead0ad92930932f20ff57c5d9a2fcc20360001b146112f35760405163636ca83360e11b81526004810186905260240161025b565b606084901c33146113505760405162461bcd60e51b815260206004820152602160248201527f70726f6f6647656e657261746f724164647220646f6573206e6f74206d6174636044820152600d60fb1b606482015260840161025b565b87516020890120861461139c5760405162461bcd60e51b8152602060048201526014602482015273125b9d985b1a59081c1d589b1a58c81a5b9c1d5d60621b604482015260640161025b565b600080898060200190518101906113b39190611f32565b915091508c600001516001600160a01b0316816001600160a01b03161461141c5760405162461bcd60e51b815260206004820152601e60248201527f57696e6e657220696e2070726f6f6620646f6573206e6f74206d617463680000604482015260640161025b565b816114268d6115fa565b146114735760405162461bcd60e51b815260206004820152601b60248201527f41756374696f6e206861736820646f6573206e6f74206d617463680000000000604482015260640161025b565b6000807358f280bebe9b34c9939c3c39e0890c81f163b6236001600160a01b03168b8b8b8b8b8b8b73815aeca64a974297942d2bbf034abee22a38a0036040516024016114c7989796959493929190611f63565b60408051601f198184030181529181526020820180516001600160e01b03166306045a9160e01b179052516114fc9190611fca565b600060405180830381855afa9150503d8060008114611537576040519150601f19603f3d011682016040523d82523d6000602084013e61153c565b606091505b5091509150816115835760405162461bcd60e51b81526020600482015260126024820152711cdd185d1a58d7d8d85b1b0819985a5b195960721b604482015260640161025b565b6000818060200190518101906115999190611c47565b9050806115e85760405162461bcd60e51b815260206004820152601b60248201527f70726f6f66206e6f7420696e636c7564656420696e2062617463680000000000604482015260640161025b565b50505050505050505050505050505050565b60008181526020818152604080832060060180548251818502810185019093528083528493849084015b828210156116fd576000848152602090819020604080518082019091526002850290910180546001600160a01b03168252600181018054929391929184019161166c90611c0d565b80601f016020809104026020016040519081016040528092919081815260200182805461169890611c0d565b80156116e55780601f106116ba576101008083540402835291602001916116e5565b820191906000526020600020905b8154815290600101906020018083116116c857829003601f168201915b50505050508152505081526020019060010190611624565b50505050905060008360405160200161171891815260200190565b604051602081830303815290604052905060005b825181101561179e578183828151811061174857611748611fe6565b60200260200101516000015184838151811061176657611766611fe6565b60200260200101516020015160405160200161178493929190611ffc565b60408051601f19818403018152919052915060010161172c565b5080516020909101209392505050565b6000602082840312156117c057600080fd5b5035919050565b60005b838110156117e25781810151838201526020016117ca565b50506000910152565b600081518084526118038160208601602086016117c7565b601f01601f19169290920160200192915050565b6000602082016020835280845180835260408501915060408160051b86010192506020860160005b8281101561189057868503603f19018452815180516001600160a01b0316865260209081015160409187018290529061187a908701826117eb565b955050602093840193919091019060010161183f565b50929695505050505050565b634e487b7160e01b600052604160045260246000fd5b604051601f8201601f1916810167ffffffffffffffff811182821017156118db576118db61189c565b604052919050565b6001600160a01b03811681146118f857600080fd5b50565b600067ffffffffffffffff8211156119155761191561189c565b50601f01601f191660200190565b600082601f83011261193457600080fd5b813560208301600061194d611948846118fb565b6118b2565b905082815285838301111561196157600080fd5b82826020830137600092810160200192909252509392505050565b6000806000838503608081121561199257600080fd5b843593506040601f19820112156119a857600080fd5b506040805190810167ffffffffffffffff811182821017156119cc576119cc61189c565b60405260208501356119dd816118e3565b8152604085013560208201529150606084013567ffffffffffffffff811115611a0557600080fd5b611a1186828701611923565b9150509250925092565b6001600160a01b038916815261014060208201819052600090611a409083018a6117eb565b8281036040840152885160408252611a5b60408301826117eb565b905060208a01518282036020840152611a7482826117eb565b8a516001600160a01b0316606087015260208b015160808701529350611a9992505050565b85516001600160a01b031660a0830152602086015160c08301528460e0830152836101008301528215156101208301529998505050505050505050565b60008060408385031215611ae957600080fd5b82359150602083013567ffffffffffffffff811115611b0757600080fd5b611b1385828601611923565b9150509250929050565b600080600080600080600060e0888a031215611b3857600080fd5b873567ffffffffffffffff811115611b4f57600080fd5b611b5b8a828b01611923565b9750506020880135611b6c816118e3565b955060408801359450606088013567ffffffffffffffff811115611b8f57600080fd5b611b9b8a828b01611923565b945050608088013567ffffffffffffffff811115611bb857600080fd5b611bc48a828b01611923565b979a969950949793969560a0850135955060c0909401359392505050565b602080825260119082015270105d58dd1a5bdb881a185cc8195b991959607a1b604082015260600190565b600181811c90821680611c2157607f821691505b602082108103611c4157634e487b7160e01b600052602260045260246000fd5b50919050565b600060208284031215611c5957600080fd5b81518015158114611c6957600080fd5b9392505050565b634e487b7160e01b600052601160045260246000fd5b81810381811115611c9957611c99611c70565b92915050565b600060208284031215611cb157600080fd5b5051919050565b601f8211156104f357806000526020600020601f840160051c81016020851015611cdf5750805b601f840160051c820191505b81811015611cff5760008155600101611ceb565b5050505050565b815167ffffffffffffffff811115611d2057611d2061189c565b611d3481611d2e8454611c0d565b84611cb8565b6020601f821160018114611d685760008315611d505750848201515b600019600385901b1c1916600184901b178455611cff565b600084815260208120601f198516915b82811015611d985787850151825560209485019460019092019101611d78565b5084821015611db65786840151600019600387901b60f8161c191681555b50505050600190811b01905550565b602081526000611c6960208301846117eb565b600060208284031215611dea57600080fd5b8151611c69816118e3565b600060018201611e0757611e07611c70565b5060010190565b80820180821115611c9957611c99611c70565b600082601f830112611e3257600080fd5b8151611e40611948826118fb565b818152846020838601011115611e5557600080fd5b611e668260208301602087016117c7565b949350505050565b600080600080600080600080610100898b031215611e8b57600080fd5b885167ffffffffffffffff811115611ea257600080fd5b611eae8b828c01611e21565b60208b015160408c015160608d015160808e0151939c50919a509850965090506bffffffffffffffffffffffff1981168114611ee957600080fd5b60a08a015160c08b0151919550935067ffffffffffffffff811115611f0d57600080fd5b611f198b828c01611e21565b60e09a909a0151989b979a509598949793969295505050565b60008060408385031215611f4557600080fd5b82516020840151909250611f58816118e3565b809150509250929050565b8881528760208201528660408201526bffffffffffffffffffffffff198616606082015284608082015261010060a08201526000611fa56101008301866117eb565b60c0830194909452506001600160a01b039190911660e0909101529695505050505050565b60008251611fdc8184602087016117c7565b9190910192915050565b634e487b7160e01b600052603260045260246000fd5b6000845161200e8184602089016117c7565b606085901b6bffffffffffffffffffffffff1916908301908152835161203b8160148401602088016117c7565b016014019594505050505056fea2646970667358221220dc8709d017346d15dc46077777780fbdb4222db7e69dc0cd64059f2ba128fc2c64736f6c634300081c0033",
    "linkReferences": {}
  },
  "methodIdentifiers": {
    "ALIGNED_PAYMENT_SERVICE_ADDR()": "c8dc35a9",
    "ALIGNED_SERVICE_MANAGER()": "470df9ec",
    "ELF_COMMITMENT()": "38afd936",
    "auctionCount()": "2ad71573",
    "auctions(uint256)": "571a26a0",
    "createAuction(bytes,address,uint256,string,string,uint256,uint256)": "dc937abc",
    "getBids(uint256)": "131d9a27",
    "lockToken()": "bca7a9e2",
    "new_bid(uint256,bytes)": "a974d28e",
    "revealWinner(uint256,(address,uint256),bytes)": "4f51218d",
    "withdraw(uint256)": "2e1a7d4d"
  },
  "id": 44
}