{"abi":[{"type":"function","name":"auctionCount","inputs":[],"outputs":[{"name":"","type":"uint256","internalType":"uint256"}],"stateMutability":"view"},{"type":"function","name":"auctions","inputs":[{"name":"","type":"uint256","internalType":"uint256"}],"outputs":[{"name":"owner","type":"address","internalType":"address"},{"name":"ownerPublicKey","type":"bytes","internalType":"bytes"},{"name":"asset","type":"tuple","internalType":"struct ZkAuction.Asset","components":[{"name":"name","type":"string","internalType":"string"},{"name":"description","type":"string","internalType":"string"}]},{"name":"winner","type":"tuple","internalType":"struct ZkAuction.Winner","components":[{"name":"winner","type":"address","internalType":"address"},{"name":"encryptedPrice","type":"bytes","internalType":"bytes"}]},{"name":"depositPrice","type":"uint256","internalType":"uint256"},{"name":"endTime","type":"uint256","internalType":"uint256"},{"name":"ended","type":"bool","internalType":"bool"}],"stateMutability":"view"},{"type":"function","name":"createAuction","inputs":[{"name":"_ownerPublicKey","type":"bytes","internalType":"bytes"},{"name":"_assetName","type":"string","internalType":"string"},{"name":"_assetDescription","type":"string","internalType":"string"},{"name":"_depositPrice","type":"uint256","internalType":"uint256"},{"name":"_duration","type":"uint256","internalType":"uint256"}],"outputs":[],"stateMutability":"nonpayable"},{"type":"event","name":"AuctionCreated","inputs":[{"name":"auctionId","type":"uint256","indexed":true,"internalType":"uint256"},{"name":"owner","type":"address","indexed":true,"internalType":"address"}],"anonymous":false},{"type":"event","name":"AuctionEnded","inputs":[{"name":"auctionId","type":"uint256","indexed":true,"internalType":"uint256"},{"name":"winner","type":"address","indexed":true,"internalType":"address"},{"name":"encryptedPrice","type":"bytes","indexed":false,"internalType":"bytes"}],"anonymous":false},{"type":"event","name":"NewBid","inputs":[{"name":"auctionId","type":"uint256","indexed":true,"internalType":"uint256"},{"name":"bidder","type":"address","indexed":true,"internalType":"address"},{"name":"encryptedPrice","type":"bytes","indexed":false,"internalType":"bytes"}],"anonymous":false}],"bytecode":{"object":"0x6080604052348015600f57600080fd5b506108728061001f6000396000f3fe608060405234801561001057600080fd5b50600436106100415760003560e01c8063291154cd146100465780632ad715731461005b578063571a26a014610077575b600080fd5b6100596100543660046104e0565b61009d565b005b61006460015481565b6040519081526020015b60405180910390f35b61008a61008536600461059a565b610176565b60405161006e97969594939291906105f9565b600180549060006100ad836106c2565b909155505060018054600090815260208190526040902080546001600160a01b031916331781559081016100e18782610764565b50604080518082019091528581526020810185905260028201806101058882610764565b506020820151600182019061011a9082610764565b5050506007810183905561012e8242610823565b6009820155600a8101805460ff191690556001546040513391907f5d551e2a2cc977fd8c530317059b4f2d9f504fb82f7dfad736f8d56679bcdfd090600090a3505050505050565b600060208190529081526040902080546001820180546001600160a01b0390921692916101a2906106db565b80601f01602080910402602001604051908101604052809291908181526020018280546101ce906106db565b801561021b5780601f106101f05761010080835404028352916020019161021b565b820191906000526020600020905b8154815290600101906020018083116101fe57829003601f168201915b50505050509080600201604051806040016040529081600082018054610240906106db565b80601f016020809104026020016040519081016040528092919081815260200182805461026c906106db565b80156102b95780601f1061028e576101008083540402835291602001916102b9565b820191906000526020600020905b81548152906001019060200180831161029c57829003601f168201915b505050505081526020016001820180546102d2906106db565b80601f01602080910402602001604051908101604052809291908181526020018280546102fe906106db565b801561034b5780601f106103205761010080835404028352916020019161034b565b820191906000526020600020905b81548152906001019060200180831161032e57829003601f168201915b505050919092525050604080518082019091526005840180546001600160a01b03168252600685018054949594929350909160208401919061038c906106db565b80601f01602080910402602001604051908101604052809291908181526020018280546103b8906106db565b80156104055780601f106103da57610100808354040283529160200191610405565b820191906000526020600020905b8154815290600101906020018083116103e857829003601f168201915b5050509190925250505060078201546009830154600a909301549192909160ff1687565b634e487b7160e01b600052604160045260246000fd5b60008067ffffffffffffffff84111561045a5761045a610429565b50604051601f19601f85018116603f0116810181811067ffffffffffffffff8211171561048957610489610429565b6040528381529050808284018510156104a157600080fd5b83836020830137600060208583010152509392505050565b600082601f8301126104ca57600080fd5b6104d98383356020850161043f565b9392505050565b600080600080600060a086880312156104f857600080fd5b853567ffffffffffffffff81111561050f57600080fd5b8601601f8101881361052057600080fd5b61052f8882356020840161043f565b955050602086013567ffffffffffffffff81111561054c57600080fd5b610558888289016104b9565b945050604086013567ffffffffffffffff81111561057557600080fd5b610581888289016104b9565b9598949750949560608101359550608001359392505050565b6000602082840312156105ac57600080fd5b5035919050565b6000815180845260005b818110156105d9576020818501810151868301820152016105bd565b506000602082860101526020601f19601f83011685010191505092915050565b6001600160a01b038816815260e06020820181905260009061061d908301896105b3565b828103604084015287516040825261063860408301826105b3565b90506020890151828203602084015261065182826105b3565b92505050828103606084015260018060a01b03875116815260208701516040602083015261068260408301826105b3565b925050508460808301528360a08301526106a060c083018415159052565b98975050505050505050565b634e487b7160e01b600052601160045260246000fd5b6000600182016106d4576106d46106ac565b5060010190565b600181811c908216806106ef57607f821691505b60208210810361070f57634e487b7160e01b600052602260045260246000fd5b50919050565b601f82111561075f57806000526020600020601f840160051c8101602085101561073c5750805b601f840160051c820191505b8181101561075c5760008155600101610748565b50505b505050565b815167ffffffffffffffff81111561077e5761077e610429565b6107928161078c84546106db565b84610715565b6020601f8211600181146107c657600083156107ae5750848201515b600019600385901b1c1916600184901b17845561075c565b600084815260208120601f198516915b828110156107f657878501518255602094850194600190920191016107d6565b50848210156108145786840151600019600387901b60f8161c191681555b50505050600190811b01905550565b80820180821115610836576108366106ac565b9291505056fea2646970667358221220c527a703e1102c455142fa012b33090be4be5e42fa79cbbf55b70b1d0786b63a64736f6c634300081c0033","linkReferences":{}},"methodIdentifiers":{"auctionCount()":"2ad71573","auctions(uint256)":"571a26a0","createAuction(bytes,string,string,uint256,uint256)":"291154cd"},"id":25}